{"contracts/verifiers/TransferCircuitGroth16Verifier.sol":{"TransferCircuitGroth16Verifier":{"abi":[{"inputs":[],"name":"ALPHA_X","outputs":[{"internalType":"uint256","name":"","type":"uint256"}],"stateMutability":"view","type":"function"},{"inputs":[],"name":"ALPHA_Y","outputs":[{"internalType":"uint256","name":"","type":"uint256"}],"stateMutability":"view","type":"function"},{"inputs":[],"name":"BASE_FIELD_SIZE","outputs":[{"internalType":"uint256","name":"","type":"uint256"}],"stateMutability":"view","type":"function"},{"inputs":[],"name":"BETA_X1","outputs":[{"internalType":"uint256","name":"","type":"uint256"}],"stateMutability":"view","type":"function"},{"inputs":[],"name":"BETA_X2","outputs":[{"internalType":"uint256","name":"","type":"uint256"}],"stateMutability":"view","type":"function"},{"inputs":[],"name":"BETA_Y1","outputs":[{"internalType":"uint256","name":"","type":"uint256"}],"stateMutability":"view","type":"function"},{"inputs":[],"name":"BETA_Y2","outputs":[{"internalType":"uint256","name":"","type":"uint256"}],"stateMutability":"view","type":"function"},{"inputs":[],"name":"DELTA_X1","outputs":[{"internalType":"uint256","name":"","type":"uint256"}],"stateMutability":"view","type":"function"},{"inputs":[],"name":"DELTA_X2","outputs":[{"internalType":"uint256","name":"","type":"uint256"}],"stateMutability":"view","type":"function"},{"inputs":[],"name":"DELTA_Y1","outputs":[{"internalType":"uint256","name":"","type":"uint256"}],"stateMutability":"view","type":"function"},{"inputs":[],"name":"DELTA_Y2","outputs":[{"internalType":"uint256","name":"","type":"uint256"}],"stateMutability":"view","type":"function"},{"inputs":[],"name":"GAMMA_X1","outputs":[{"internalType":"uint256","name":"","type":"uint256"}],"stateMutability":"view","type":"function"},{"inputs":[],"name":"GAMMA_X2","outputs":[{"internalType":"uint256","name":"","type":"uint256"}],"stateMutability":"view","type":"function"},{"inputs":[],"name":"GAMMA_Y1","outputs":[{"internalType":"uint256","name":"","type":"uint256"}],"stateMutability":"view","type":"function"},{"inputs":[],"name":"GAMMA_Y2","outputs":[{"internalType":"uint256","name":"","type":"uint256"}],"stateMutability":"view","type":"function"},{"inputs":[],"name":"IC0_X","outputs":[{"internalType":"uint256","name":"","type":"uint256"}],"stateMutability":"view","type":"function"},{"inputs":[],"name":"IC0_Y","outputs":[{"internalType":"uint256","name":"","type":"uint256"}],"stateMutability":"view","type":"function"},{"inputs":[],"name":"IC10_X","outputs":[{"internalType":"uint256","name":"","type":"uint256"}],"stateMutability":"view","type":"function"},{"inputs":[],"name":"IC10_Y","outputs":[{"internalType":"uint256","name":"","type":"uint256"}],"stateMutability":"view","type":"function"},{"inputs":[],"name":"IC11_X","outputs":[{"internalType":"uint256","name":"","type":"uint256"}],"stateMutability":"view","type":"function"},{"inputs":[],"name":"IC11_Y","outputs":[{"internalType":"uint256","name":"","type":"uint256"}],"stateMutability":"view","type":"function"},{"inputs":[],"name":"IC12_X","outputs":[{"internalType":"uint256","name":"","type":"uint256"}],"stateMutability":"view","type":"function"},{"inputs":[],"name":"IC12_Y","outputs":[{"internalType":"uint256","name":"","type":"uint256"}],"stateMutability":"view","type":"function"},{"inputs":[],"name":"IC13_X","outputs":[{"internalType":"uint256","name":"","type":"uint256"}],"stateMutability":"view","type":"function"},{"inputs":[],"name":"IC13_Y","outputs":[{"internalType":"uint256","name":"","type":"uint256"}],"stateMutability":"view","type":"function"},{"inputs":[],"name":"IC14_X","outputs":[{"internalType":"uint256","name":"","type":"uint256"}],"stateMutability":"view","type":"function"},{"inputs":[],"name":"IC14_Y","outputs":[{"internalType":"uint256","name":"","type":"uint256"}],"stateMutability":"view","type":"function"},{"inputs":[],"name":"IC15_X","outputs":[{"internalType":"uint256","name":"","type":"uint256"}],"stateMutability":"view","type":"function"},{"inputs":[],"name":"IC15_Y","outputs":[{"internalType":"uint256","name":"","type":"uint256"}],"stateMutability":"view","type":"function"},{"inputs":[],"name":"IC16_X","outputs":[{"internalType":"uint256","name":"","type":"uint256"}],"stateMutability":"view","type":"function"},{"inputs":[],"name":"IC16_Y","outputs":[{"internalType":"uint256","name":"","type":"uint256"}],"stateMutability":"view","type":"function"},{"inputs":[],"name":"IC17_X","outputs":[{"internalType":"uint256","name":"","type":"uint256"}],"stateMutability":"view","type":"function"},{"inputs":[],"name":"IC17_Y","outputs":[{"internalType":"uint256","name":"","type":"uint256"}],"stateMutability":"view","type":"function"},{"inputs":[],"name":"IC18_X","outputs":[{"internalType":"uint256","name":"","type":"uint256"}],"stateMutability":"view","type":"function"},{"inputs":[],"name":"IC18_Y","outputs":[{"internalType":"uint256","name":"","type":"uint256"}],"stateMutability":"view","type":"function"},{"inputs":[],"name":"IC19_X","outputs":[{"internalType":"uint256","name":"","type":"uint256"}],"stateMutability":"view","type":"function"},{"inputs":[],"name":"IC19_Y","outputs":[{"internalType":"uint256","name":"","type":"uint256"}],"stateMutability":"view","type":"function"},{"inputs":[],"name":"IC1_X","outputs":[{"internalType":"uint256","name":"","type":"uint256"}],"stateMutability":"view","type":"function"},{"inputs":[],"name":"IC1_Y","outputs":[{"internalType":"uint256","name":"","type":"uint256"}],"stateMutability":"view","type":"function"},{"inputs":[],"name":"IC20_X","outputs":[{"internalType":"uint256","name":"","type":"uint256"}],"stateMutability":"view","type":"function"},{"inputs":[],"name":"IC20_Y","outputs":[{"internalType":"uint256","name":"","type":"uint256"}],"stateMutability":"view","type":"function"},{"inputs":[],"name":"IC21_X","outputs":[{"internalType":"uint256","name":"","type":"uint256"}],"stateMutability":"view","type":"function"},{"inputs":[],"name":"IC21_Y","outputs":[{"internalType":"uint256","name":"","type":"uint256"}],"stateMutability":"view","type":"function"},{"inputs":[],"name":"IC22_X","outputs":[{"internalType":"uint256","name":"","type":"uint256"}],"stateMutability":"view","type":"function"},{"inputs":[],"name":"IC22_Y","outputs":[{"internalType":"uint256","name":"","type":"uint256"}],"stateMutability":"view","type":"function"},{"inputs":[],"name":"IC23_X","outputs":[{"internalType":"uint256","name":"","type":"uint256"}],"stateMutability":"view","type":"function"},{"inputs":[],"name":"IC23_Y","outputs":[{"internalType":"uint256","name":"","type":"uint256"}],"stateMutability":"view","type":"function"},{"inputs":[],"name":"IC24_X","outputs":[{"internalType":"uint256","name":"","type":"uint256"}],"stateMutability":"view","type":"function"},{"inputs":[],"name":"IC24_Y","outputs":[{"internalType":"uint256","name":"","type":"uint256"}],"stateMutability":"view","type":"function"},{"inputs":[],"name":"IC25_X","outputs":[{"internalType":"uint256","name":"","type":"uint256"}],"stateMutability":"view","type":"function"},{"inputs":[],"name":"IC25_Y","outputs":[{"internalType":"uint256","name":"","type":"uint256"}],"stateMutability":"view","type":"function"},{"inputs":[],"name":"IC26_X","outputs":[{"internalType":"uint256","name":"","type":"uint256"}],"stateMutability":"view","type":"function"},{"inputs":[],"name":"IC26_Y","outputs":[{"internalType":"uint256","name":"","type":"uint256"}],"stateMutability":"view","type":"function"},{"inputs":[],"name":"IC27_X","outputs":[{"internalType":"uint256","name":"","type":"uint256"}],"stateMutability":"view","type":"function"},{"inputs":[],"name":"IC27_Y","outputs":[{"internalType":"uint256","name":"","type":"uint256"}],"stateMutability":"view","type":"function"},{"inputs":[],"name":"IC28_X","outputs":[{"internalType":"uint256","name":"","type":"uint256"}],"stateMutability":"view","type":"function"},{"inputs":[],"name":"IC28_Y","outputs":[{"internalType":"uint256","name":"","type":"uint256"}],"stateMutability":"view","type":"function"},{"inputs":[],"name":"IC29_X","outputs":[{"internalType":"uint256","name":"","type":"uint256"}],"stateMutability":"view","type":"function"},{"inputs":[],"name":"IC29_Y","outputs":[{"internalType":"uint256","name":"","type":"uint256"}],"stateMutability":"view","type":"function"},{"inputs":[],"name":"IC2_X","outputs":[{"internalType":"uint256","name":"","type":"uint256"}],"stateMutability":"view","type":"function"},{"inputs":[],"name":"IC2_Y","outputs":[{"internalType":"uint256","name":"","type":"uint256"}],"stateMutability":"view","type":"function"},{"inputs":[],"name":"IC30_X","outputs":[{"internalType":"uint256","name":"","type":"uint256"}],"stateMutability":"view","type":"function"},{"inputs":[],"name":"IC30_Y","outputs":[{"internalType":"uint256","name":"","type":"uint256"}],"stateMutability":"view","type":"function"},{"inputs":[],"name":"IC31_X","outputs":[{"internalType":"uint256","name":"","type":"uint256"}],"stateMutability":"view","type":"function"},{"inputs":[],"name":"IC31_Y","outputs":[{"internalType":"uint256","name":"","type":"uint256"}],"stateMutability":"view","type":"function"},{"inputs":[],"name":"IC32_X","outputs":[{"internalType":"uint256","name":"","type":"uint256"}],"stateMutability":"view","type":"function"},{"inputs":[],"name":"IC32_Y","outputs":[{"internalType":"uint256","name":"","type":"uint256"}],"stateMutability":"view","type":"function"},{"inputs":[],"name":"IC3_X","outputs":[{"internalType":"uint256","name":"","type":"uint256"}],"stateMutability":"view","type":"function"},{"inputs":[],"name":"IC3_Y","outputs":[{"internalType":"uint256","name":"","type":"uint256"}],"stateMutability":"view","type":"function"},{"inputs":[],"name":"IC4_X","outputs":[{"internalType":"uint256","name":"","type":"uint256"}],"stateMutability":"view","type":"function"},{"inputs":[],"name":"IC4_Y","outputs":[{"internalType":"uint256","name":"","type":"uint256"}],"stateMutability":"view","type":"function"},{"inputs":[],"name":"IC5_X","outputs":[{"internalType":"uint256","name":"","type":"uint256"}],"stateMutability":"view","type":"function"},{"inputs":[],"name":"IC5_Y","outputs":[{"internalType":"uint256","name":"","type":"uint256"}],"stateMutability":"view","type":"function"},{"inputs":[],"name":"IC6_X","outputs":[{"internalType":"uint256","name":"","type":"uint256"}],"stateMutability":"view","type":"function"},{"inputs":[],"name":"IC6_Y","outputs":[{"internalType":"uint256","name":"","type":"uint256"}],"stateMutability":"view","type":"function"},{"inputs":[],"name":"IC7_X","outputs":[{"internalType":"uint256","name":"","type":"uint256"}],"stateMutability":"view","type":"function"},{"inputs":[],"name":"IC7_Y","outputs":[{"internalType":"uint256","name":"","type":"uint256"}],"stateMutability":"view","type":"function"},{"inputs":[],"name":"IC8_X","outputs":[{"internalType":"uint256","name":"","type":"uint256"}],"stateMutability":"view","type":"function"},{"inputs":[],"name":"IC8_Y","outputs":[{"internalType":"uint256","name":"","type":"uint256"}],"stateMutability":"view","type":"function"},{"inputs":[],"name":"IC9_X","outputs":[{"internalType":"uint256","name":"","type":"uint256"}],"stateMutability":"view","type":"function"},{"inputs":[],"name":"IC9_Y","outputs":[{"internalType":"uint256","name":"","type":"uint256"}],"stateMutability":"view","type":"function"},{"inputs":[],"name":"P_TOTAL_SIZE","outputs":[{"internalType":"uint256","name":"","type":"uint256"}],"stateMutability":"view","type":"function"},{"inputs":[],"name":"SCALAR_FIELD_SIZE","outputs":[{"internalType":"uint256","name":"","type":"uint256"}],"stateMutability":"view","type":"function"},{"inputs":[{"internalType":"uint256[2]","name":"pointA_","type":"uint256[2]"},{"internalType":"uint256[2][2]","name":"pointB_","type":"uint256[2][2]"},{"internalType":"uint256[2]","name":"pointC_","type":"uint256[2]"},{"internalType":"uint256[32]","name":"publicSignals_","type":"uint256[32]"}],"name":"verifyProof","outputs":[{"internalType":"bool","name":"verified_","type":"bool"}],"stateMutability":"view","type":"function"}],"evm":{"bytecode":{"linkReferences":{},"object":"6080604052348015600f57600080fd5b5061232a8061001f6000396000f3fe608060405234801561001057600080fd5b50600436106104ac5760003560e01c8063742797c41161026d578063d0fdd6af11610151578063dfcf46f0116100ce578063e834dbdd11610092578063e834dbdd1461100b578063e848dd6f14611031578063eb38888b14611058578063eeb9f2e41461107f578063eedee58f146110a5578063f7a65aae14610f4857600080fd5b8063dfcf46f014610f48578063e11e8ee214610f6f578063e1e7dabb14610f96578063e552575914610fbd578063e662660614610fe457600080fd5b8063d8c710e011610115578063d8c710e014610e85578063dacb4e6914610eac578063dc05a82214610ed3578063dce4200414610efa578063dd924b4714610f2157600080fd5b8063d0fdd6af14610de9578063d1fb02a314610e10578063d663b36514610e37578063d70a63cc14610be5578063d7aa472a14610e5e57600080fd5b8063a127ed86116101ea578063aed43349116101ae578063aed4334914610d4d578063b936325c1461081c578063ba68817514610d74578063bf48189e14610d9b578063c4c642ef14610dc2578063cc9c92ae14610d2657600080fd5b8063a127ed8614610ca8578063a1978c3c14610ccf578063a6aca97614610cf6578063ac6f103e14610cff578063acb4193614610d2657600080fd5b8063901660c411610231578063901660c414610be5578063924f0a1514610c0c5780639683682614610c33578063970e603714610c5a5780639c8b8ac514610c8157600080fd5b8063742797c414610b235780637fdf8fc114610b4a578063839a60d014610b7157806385b195eb14610b98578063898611fd14610bbe57600080fd5b8063396375031161039457806355061a7a1161031157806361bb1795116102d557806361bb179514610a3a5780636336ec6c14610a6157806363d2f16814610a885780636a5935a714610aaf5780636e8374dc14610ad657806373354b6014610afd57600080fd5b806355061a7a1461097757806359b396b51461099e5780635bf9f093146109c55780635c01e537146109ec5780636076d7ed14610a1357600080fd5b806345ce05a81161035857806345ce05a8146108b45780634b750a92146108db5780634e528e9f146109025780634e890b271461092957806350def9051461095057600080fd5b806339637503146107f65780633a9e6a4d1461081c5780633cc08b241461084357806341fe6a9a146108665780634234a1d61461088d57600080fd5b806324934a111161042d5780632dacca56116103f15780632dacca561461070d57806330c1731c1461073457806331aa5e261461075b57806332148d471461078257806334a18522146107a957806336b397dc146107cf57600080fd5b806324934a111461064a578063286f014b1461067157806328e44695146106985780632c0556ed146106bf5780632d527448146106e657600080fd5b80630ddec475116104745780630ddec475146105875780630de199a5146105ae5780631077f544146105d557806311fbfe66146105fc5780631c4d44061461062357600080fd5b806302020654146104b157806308cceecf146104eb5780630c99ab7c146105125780630cbb35c3146105395780630d48668814610560575b600080fd5b6104d87f20b5f9d2929f9d1c416549f2bf4d007519ecbece59b3c0e764f31286dfe37b7c81565b6040519081526020015b60405180910390f35b6104d87f06afe48c571539099da5ac59491e0e203df5658ff654b250b0525ed791bde83f81565b6104d87f04f109a9043f0736c31fd7ac58c1371d9ad11830eb63341596dd6a075566c2ed81565b6104d87f2556d9fbc17cae3e3790ab6bd9d314d1954140f9d02adb59b9b48ee979a5d23081565b6104d87f229d46bb0f28980f63ed732ac9c63a8201e1911f5cb5f8110d311be0fade10aa81565b6104d87f30644e72e131a029b85045b68181585d2833e84879b9709143e1f593f000000181565b6104d87f0a9068bb86cc932e13eecb08b3f022e0bdf9f1f695929e21294033e53c919b8b81565b6104d87f288b33d9fa44f864c5c91f790fa50e5c2a698f417d260f5e9d54c0d8a1bda6ed81565b6104d87f15fd0def66442f6145179e697ddd2eb4210cd4f0ab9f648395ca60fc0a3a838f81565b6104d87f1739c1b1a457a8c7313123d24d2f9192f896b7c63eea05a9d57f06547ad0cec881565b6104d87f23fcf72fb01b297050f5a24417038f2a0a6a50dbfcac6941d430374bdf59449281565b6104d87f1f81db9c744e0cb02e4553bba155ece68cf6ade88b69514a949415ff91d22f6281565b6104d87f28c652662a86080d4c5d09b938ebeed07b7a217c9b8c4cdad790a3c9dfe4c97b81565b6104d87f1f875f7286bd16986ef99bccccd27a3786a035ac93db1e683ff8d84d3a53ef7c81565b6104d87f06fa3b9bbc0f1161c019c848596cdf154e18874ac84e48ada9b26891489d80ff81565b6104d87f23c5ff4a6af434b289e8865783ec931fd1b0726bc15bca93dbe42f010d3563ea81565b6104d87f021d5de6e1e78a94e3f1ba87d967aeb0a16f428f56ff3f430397b27fb73afca481565b6104d87f2cff3b75b31a9408d6fd59ec89820a6ec62f692e03c27afe0d8a8ebba51420cc81565b6104d87f098bed6b8829c7cba186c8a05dec1296d4b567b7ac693738d5b7c779caf600a281565b6104d87e907377179f86703005860e48c37223ba67a3af40c0d92603b70d846df712f181565b6104d87f2b308bcd2e81aec22d71893e7f3c3c000af9543e66b6f0dc3b4b32858961c13b81565b6104d87e447e7b8a936665056915e9cdde693b78cdd4e5f6c573faadef8e190e71a90b81565b6104d87f090689d0585ff075ec9e99ad690c3395bc4b313370b38ef355acdadcd122975b81565b61085661085136600461220f565b6110cc565b60405190151581526020016104e2565b6104d87f2e8e422476c8aa10edb674c8d67cc22bb8f93f29dfc9031d52322ffbb309c66e81565b6104d87f12de9c799ecf41aecd06bb5a9180add5a574c4b444f2da65dd008f421d29c93781565b6104d87f0cfba7b3d2b6b5146f13aa9b38d237420b43d456bd551a1e95284a74d5fdc9ce81565b6104d87f114a80e01b3c8257e89901f851be4d95a86cc2d547d9270bad02e7da8dbea86981565b6104d87f19dc1ae1cb1ab8db0aea2d2666c4a413dddb3bd65ee2677bfbf709b115da552f81565b6104d87f07336b93c4558113f410c97c43cfd9ad5d2bc0e0b4cdd3eec71f4b840333958e81565b6104d87f13c7352a8f29919d93cc94bf86c8800bda20aef8797d1abc871750feff8bc3dd81565b6104d87f107a259d8f5ff4c316ff76a5fab4bcd8df012f40c60385045064477fb0c3934b81565b6104d87f28eefa9e331561e3021c05d89a7803ef9401969d098d346f05478edfa924ca3f81565b6104d87f05ffdc39e07d30c593e450f343692336797fb2b9d7928579beddf5b4314c2f2881565b6104d87f078e441d5f913298eee2b136349e447b0c4ef2a5568c6393dbaf10b499d31b3581565b6104d87f1c03c3897f2cfc2f0185b5e379fde762b7bd1dbd337b6095faa29f20a12a95a381565b6104d87f02f7e60587d3f233c2061fb131fbd84c3cb1d413ae5b8fae41400cb4645b0b4f81565b6104d87f187e2f19d9d1cc66cfa50a02a10b80eced78334b2bcdb24ea443bfb4a6ac9ced81565b6104d87f10c8404c7de800423f4f084eef24083c7e8bf909f56a84233cf5847507570a1d81565b6104d87f14bedd503c37ceb061d8ec60209fe345ce89830a19230301f076caff004d192681565b6104d87f08f8782826c3f003694c4122b0546b6a5a0d7f47ce4be9c09741cd1d7e6883da81565b6104d87e10904681e4eb2129062bb0d32ee1df78d16c79610196fc3e965029414d5cbb81565b6104d87f0d5b82e143fe82261e806bd844fb31c04d96ec4992ed1487c096b7092772c41d81565b6104d87f0e187847ad4c798374d0d6732bf501847dd68bc0e071241e0213bc7fc13db7ab81565b6104d87f30644e72e131a029b85045b68181585d97816a916871ca8d3c208c16d87cfd4781565b6104d87e731d446be28eac35291905a299316a911ba3c0f08e9d2890e6d8988585ee4e81565b6104d87f247b88a7b1c3b2dce69247f47f696c290414de2277888bbd8b9ca36b01bc18ac81565b6104d87f198e9393920d483a7260bfb731fb5d25f1aa493335a9e71297e485b7aef312c281565b6104d87f0d724b53103d7718a13d6c815182f8ee319835c261e8e92b961f39f162a3fa9d81565b6104d87f01b514b6e343d274e0c5e3094c112cbba2d4cb29c4caaac8d23b6b3f4093090b81565b6104d87f02dc9b404f8e38e5f19eb4647a99e5502de7e8b74e549b1b1b4f66602d4c62c381565b6104d87f039ad749fee897f891546936fec6f5f035d0f8ea0468ddf897ec6e649d162be181565b6104d87f2ae069085c5956425591f6237f3b38a6e76406381a72b4e086362bf8ebd0790d81565b6104d87f0c415c50362c02920367e1c45dc5952cefa926950dae3bd6cdd0d9c9c14537e481565b6104d861030081565b6104d87f1c82cef521a0b840790f85d830cb96d5377bb7372ba7577cbb606a8affe403a781565b6104d87f12c85ea5db8c6deb4aab71808dcb408fe3d1e7690c43d37b4ce6cc0166fa7daa81565b6104d87f16f1d2a2ad4096aec237215770d14e74bb837c04448b166a41269febddc4f56f81565b6104d87f1bf082025f3757c9d01172b545483267080ccd8e4dba8cc1df9f9ee0308f23ab81565b6104d87f0f20c0fb8c72346a2d8b713008894506c97c6813fa1c0496d5b1c25f87728fd381565b6104d87f1b3d150c69189120a0d813b66bd5fa6f90d2fc49d50bae8aa34d90d9571a08f781565b6104d87f24d9dd358e13725ba0641428d2406b43479181d6208afaaa5abcb7accb37f43081565b6104d87f2d4d9aa7e302d9df41749d5507949d05dbea33fbb16c643b22f599a2be6df2e281565b6104d87f2185e663e3286b2e6013c9ab15951771ffb42646644f51113427eba2d71d451381565b6104d87f1f46e0aef5e5a33dcef3c91c6168cc7ddc121d534ba27b1b9d0f10fa4f9e799e81565b6104d87f11b4c385d2519be8eb926b757e396fa776d98d0a5fa69466f3eed4b958e6dd1e81565b6104d87f2023f14a57c38cf4dd2a01d88ff44452dd1a144627a0fbde9757548d0578af6581565b6104d87f0967032fcbf776d1afc985f88877f182d38480a653f2decaa9794cbc3bf3060c81565b6104d87f264f55b7d972df8121b2f8473e161bb7afe44003c34464d2eebf29446cbdaa0881565b6104d87f304cfbd1e08a704a99f5e847d93f8c3caafddec46b7a0d379da69a4d112346a781565b6104d87f1800deef121f1e76426a00665e5c4479674322d4f75edadd46debd5cd992f6ed81565b6104d87f226e31cb9ba7b28a0b157e5f39c232c0c81c0f7d3cbd7ff8662d674fb383c7d881565b6104d87f17888aa0284ff8d6a7b462ede5f31f52052e4db8fc394f0cc9c6d1ba548c21b681565b6104d87f2591ca675cb4590538f31db2fab149e7985ea042c4f57ba4ce5fcd52be095ec181565b6104d87f150c5d9bbe16b91062f765ffd9618d8337a9f8da0c3890db54be7ec391ffeb8181565b6104d87e6930dfc6200db7ad8b4c58b6780100e744a535f4b8713dc43d4aa39b710a7781565b6104d87f15f0312e34b132b3dbe7a824f8f9cb9d662d0a1e67c18a14a4604d93cf239f6d81565b6104d87f2d70a74b4a4be610cab3be650556d79582ae45798c4e5d740db3c378bc0ce07281565b6104d87ec7cf61488c43d82b3c607609f184ca52145a4fb28c46e4d59ea4fcf2acf26181565b6104d87f2229733e523a60e720c445d6551ec3d0890c2f5fa87b968ecb72eb5f1179bc5781565b6000611f12565b7f30644e72e131a029b85045b68181585d2833e84879b9709143e1f593f00000011190565b816040820152826060820152836080820152600060408083016060604085016007611770fa3d1515169050801561113b5760408260808460066096fa3d15151690505b949350505050565b7f187e2f19d9d1cc66cfa50a02a10b80eced78334b2bcdb24ea443bfb4a6ac9ced85527f0d5b82e143fe82261e806bd844fb31c04d96ec4992ed1487c096b7092772c41d602086015260006111de60008601517f0c415c50362c02920367e1c45dc5952cefa926950dae3bd6cdd0d9c9c14537e47f2185e663e3286b2e6013c9ab15951771ffb42646644f51113427eba2d71d4513896110f8565b15611f095761123360208601517f2556d9fbc17cae3e3790ab6bd9d314d1954140f9d02adb59b9b48ee979a5d2307f264f55b7d972df8121b2f8473e161bb7afe44003c34464d2eebf29446cbdaa08896110f8565b15611f095761128860408601517f13c7352a8f29919d93cc94bf86c8800bda20aef8797d1abc871750feff8bc3dd7f12de9c799ecf41aecd06bb5a9180add5a574c4b444f2da65dd008f421d29c937896110f8565b15611f09576112dd60608601517f07336b93c4558113f410c97c43cfd9ad5d2bc0e0b4cdd3eec71f4b840333958e7f2229733e523a60e720c445d6551ec3d0890c2f5fa87b968ecb72eb5f1179bc57896110f8565b15611f095761133260808601517f23fcf72fb01b297050f5a24417038f2a0a6a50dbfcac6941d430374bdf5944927f247b88a7b1c3b2dce69247f47f696c290414de2277888bbd8b9ca36b01bc18ac896110f8565b15611f095761138760a08601517f0f20c0fb8c72346a2d8b713008894506c97c6813fa1c0496d5b1c25f87728fd37f16f1d2a2ad4096aec237215770d14e74bb837c04448b166a41269febddc4f56f896110f8565b15611f09576113dc60c08601517f1f875f7286bd16986ef99bccccd27a3786a035ac93db1e683ff8d84d3a53ef7c7f2cff3b75b31a9408d6fd59ec89820a6ec62f692e03c27afe0d8a8ebba51420cc896110f8565b15611f095761143160e08601517f23c5ff4a6af434b289e8865783ec931fd1b0726bc15bca93dbe42f010d3563ea7f2e8e422476c8aa10edb674c8d67cc22bb8f93f29dfc9031d52322ffbb309c66e896110f8565b15611f09576114876101008601517f28c652662a86080d4c5d09b938ebeed07b7a217c9b8c4cdad790a3c9dfe4c97b7f2023f14a57c38cf4dd2a01d88ff44452dd1a144627a0fbde9757548d0578af65896110f8565b15611f09576114dd6101208601517f15f0312e34b132b3dbe7a824f8f9cb9d662d0a1e67c18a14a4604d93cf239f6d7f15fd0def66442f6145179e697ddd2eb4210cd4f0ab9f648395ca60fc0a3a838f896110f8565b15611f09576115316101408601517e10904681e4eb2129062bb0d32ee1df78d16c79610196fc3e965029414d5cbb7e447e7b8a936665056915e9cdde693b78cdd4e5f6c573faadef8e190e71a90b896110f8565b15611f09576115876101608601517f1bf082025f3757c9d01172b545483267080ccd8e4dba8cc1df9f9ee0308f23ab7f2ae069085c5956425591f6237f3b38a6e76406381a72b4e086362bf8ebd0790d896110f8565b15611f09576115dd6101808601517f288b33d9fa44f864c5c91f790fa50e5c2a698f417d260f5e9d54c0d8a1bda6ed7f2b308bcd2e81aec22d71893e7f3c3c000af9543e66b6f0dc3b4b32858961c13b896110f8565b15611f09576116326101a08601517e6930dfc6200db7ad8b4c58b6780100e744a535f4b8713dc43d4aa39b710a777f11b4c385d2519be8eb926b757e396fa776d98d0a5fa69466f3eed4b958e6dd1e896110f8565b15611f09576116886101c08601517f021d5de6e1e78a94e3f1ba87d967aeb0a16f428f56ff3f430397b27fb73afca47f114a80e01b3c8257e89901f851be4d95a86cc2d547d9270bad02e7da8dbea869896110f8565b15611f09576116de6101e08601517f098bed6b8829c7cba186c8a05dec1296d4b567b7ac693738d5b7c779caf600a27f226e31cb9ba7b28a0b157e5f39c232c0c81c0f7d3cbd7ff8662d674fb383c7d8896110f8565b15611f09576117346102008601517f06fa3b9bbc0f1161c019c848596cdf154e18874ac84e48ada9b26891489d80ff7f1f81db9c744e0cb02e4553bba155ece68cf6ade88b69514a949415ff91d22f62896110f8565b15611f095761178a6102208601517f24d9dd358e13725ba0641428d2406b43479181d6208afaaa5abcb7accb37f4307f0cfba7b3d2b6b5146f13aa9b38d237420b43d456bd551a1e95284a74d5fdc9ce896110f8565b15611f09576117e06102408601517f1c03c3897f2cfc2f0185b5e379fde762b7bd1dbd337b6095faa29f20a12a95a37f28eefa9e331561e3021c05d89a7803ef9401969d098d346f05478edfa924ca3f896110f8565b15611f09576118366102608601517f05ffdc39e07d30c593e450f343692336797fb2b9d7928579beddf5b4314c2f287f20b5f9d2929f9d1c416549f2bf4d007519ecbece59b3c0e764f31286dfe37b7c896110f8565b15611f095761188c6102808601517f19dc1ae1cb1ab8db0aea2d2666c4a413dddb3bd65ee2677bfbf709b115da552f7f1f46e0aef5e5a33dcef3c91c6168cc7ddc121d534ba27b1b9d0f10fa4f9e799e896110f8565b15611f09576118e26102a08601517f0d724b53103d7718a13d6c815182f8ee319835c261e8e92b961f39f162a3fa9d7f04f109a9043f0736c31fd7ac58c1371d9ad11830eb63341596dd6a075566c2ed896110f8565b15611f09576119386102c08601517f06afe48c571539099da5ac59491e0e203df5658ff654b250b0525ed791bde83f7f0a9068bb86cc932e13eecb08b3f022e0bdf9f1f695929e21294033e53c919b8b896110f8565b15611f095761198d6102e08601517ec7cf61488c43d82b3c607609f184ca52145a4fb28c46e4d59ea4fcf2acf2617f2d70a74b4a4be610cab3be650556d79582ae45798c4e5d740db3c378bc0ce072896110f8565b15611f09576119e36103008601517f1c82cef521a0b840790f85d830cb96d5377bb7372ba7577cbb606a8affe403a77f1b3d150c69189120a0d813b66bd5fa6f90d2fc49d50bae8aa34d90d9571a08f7896110f8565b15611f0957611a396103208601517f10c8404c7de800423f4f084eef24083c7e8bf909f56a84233cf5847507570a1d7f01b514b6e343d274e0c5e3094c112cbba2d4cb29c4caaac8d23b6b3f4093090b896110f8565b15611f0957611a8f6103408601517f150c5d9bbe16b91062f765ffd9618d8337a9f8da0c3890db54be7ec391ffeb817f229d46bb0f28980f63ed732ac9c63a8201e1911f5cb5f8110d311be0fade10aa896110f8565b15611f0957611ae46103608601517f107a259d8f5ff4c316ff76a5fab4bcd8df012f40c60385045064477fb0c3934b7e731d446be28eac35291905a299316a911ba3c0f08e9d2890e6d8988585ee4e896110f8565b15611f0957611b3a6103808601517f078e441d5f913298eee2b136349e447b0c4ef2a5568c6393dbaf10b499d31b357f02dc9b404f8e38e5f19eb4647a99e5502de7e8b74e549b1b1b4f66602d4c62c3896110f8565b15611f0957611b8f6103a08601517e907377179f86703005860e48c37223ba67a3af40c0d92603b70d846df712f17f08f8782826c3f003694c4122b0546b6a5a0d7f47ce4be9c09741cd1d7e6883da896110f8565b15611f0957611be56103c08601517f039ad749fee897f891546936fec6f5f035d0f8ea0468ddf897ec6e649d162be17f2591ca675cb4590538f31db2fab149e7985ea042c4f57ba4ce5fcd52be095ec1896110f8565b15611f0957611c3b6103e08601517f17888aa0284ff8d6a7b462ede5f31f52052e4db8fc394f0cc9c6d1ba548c21b67f02f7e60587d3f233c2061fb131fbd84c3cb1d413ae5b8fae41400cb4645b0b4f896110f8565b15611f09577f198e9393920d483a7260bfb731fb5d25f1aa493335a9e71297e485b7aef312c260408701527f1800deef121f1e76426a00665e5c4479674322d4f75edadd46debd5cd992f6ed60608701527f090689d0585ff075ec9e99ad690c3395bc4b313370b38ef355acdadcd122975b60808701527f12c85ea5db8c6deb4aab71808dcb408fe3d1e7690c43d37b4ce6cc0166fa7daa60a0870152815160c08701527f30644e72e131a029b85045b68181585d97816a916871ca8d3c208c16d87cfd4760208301517f30644e72e131a029b85045b68181585d97816a916871ca8d3c208c16d87cfd47030660e087015282515161010087015260208351015161012087015260208301515161014087015260208084015101516101608701527f2d4d9aa7e302d9df41749d5507949d05dbea33fbb16c643b22f599a2be6df2e26101808701527f14bedd503c37ceb061d8ec60209fe345ce89830a19230301f076caff004d19266101a08701527f0967032fcbf776d1afc985f88877f182d38480a653f2decaa9794cbc3bf3060c6101c08701527f0e187847ad4c798374d0d6732bf501847dd68bc0e071241e0213bc7fc13db7ab6101e08701527f304cfbd1e08a704a99f5e847d93f8c3caafddec46b7a0d379da69a4d112346a76102008701527f1739c1b1a457a8c7313123d24d2f9192f896b7c63eea05a9d57f06547ad0cec8610220870152835161024087015260208401516102608701527f198e9393920d483a7260bfb731fb5d25f1aa493335a9e71297e485b7aef312c26102808701527f1800deef121f1e76426a00665e5c4479674322d4f75edadd46debd5cd992f6ed6102a08701527f090689d0585ff075ec9e99ad690c3395bc4b313370b38ef355acdadcd122975b6102c08701527f12c85ea5db8c6deb4aab71808dcb408fe3d1e7690c43d37b4ce6cc0166fa7daa6102e08701526020866103008860086202c308fa86511690505b95945050505050565b604051610300810160405260019150611f2e60008401516110d3565b82169150611f3f60208401516110d3565b82169150611f5060408401516110d3565b82169150611f6160608401516110d3565b82169150611f7260808401516110d3565b82169150611f8360a08401516110d3565b82169150611f9460c08401516110d3565b82169150611fa560e08401516110d3565b82169150611fb76101008401516110d3565b82169150611fc96101208401516110d3565b82169150611fdb6101408401516110d3565b82169150611fed6101608401516110d3565b82169150611fff6101808401516110d3565b821691506120116101a08401516110d3565b821691506120236101c08401516110d3565b821691506120356101e08401516110d3565b821691506120476102008401516110d3565b821691506120596102208401516110d3565b8216915061206b6102408401516110d3565b8216915061207d6102608401516110d3565b8216915061208f6102808401516110d3565b821691506120a16102a08401516110d3565b821691506120b36102c08401516110d3565b821691506120c56102e08401516110d3565b821691506120d76103008401516110d3565b821691506120e96103208401516110d3565b821691506120fb6103408401516110d3565b8216915061210d6103608401516110d3565b8216915061211f6103808401516110d3565b821691506121316103a08401516110d3565b821691506121436103c08401516110d3565b821691506121556103e08401516110d3565b82169150811519156121715761216e818486888a611143565b91505b50949350505050565b604051601f8201601f1916810167ffffffffffffffff811182821017156121b157634e487b7160e01b600052604160045260246000fd5b604052919050565b600082601f8301126121ca57600080fd5b60006121d6604061217a565b90508060408401858111156121ea57600080fd5b845b818110156122045780358352602092830192016121ec565b509195945050505050565b600080600080610500858703121561222657600080fd5b61223086866121b9565b935085605f86011261224157600080fd5b604061224c8161217a565b8060c088018981111561225e57600080fd5b8389015b81811015612283576122748b826121b9565b84526020909301928401612262565b508196506122918a826121b9565b9550505050506101008501600087601f8301126122ac578081fd5b806104006122b98161217a565b91508301818a8211156122ca578384fd5b5b818510156122e35784358152602094850194016122cb565b50969995985093965092945050505056fea264697066735822122042040c6ec27189dbb1eb04066062bea235410d0edbf585e270de6cc022750fc764736f6c634300081b0033","opcodes":"PUSH1 0x80 PUSH1 0x40 MSTORE CALLVALUE DUP1 ISZERO PUSH1 0xF JUMPI PUSH1 0x0 DUP1 REVERT JUMPDEST POP PUSH2 0x232A DUP1 PUSH2 0x1F PUSH1 0x0 CODECOPY PUSH1 0x0 RETURN INVALID PUSH1 0x80 PUSH1 0x40 MSTORE CALLVALUE DUP1 ISZERO PUSH2 0x10 JUMPI PUSH1 0x0 DUP1 REVERT JUMPDEST POP PUSH1 0x4 CALLDATASIZE LT PUSH2 0x4AC JUMPI PUSH1 0x0 CALLDATALOAD PUSH1 0xE0 SHR DUP1 PUSH4 0x742797C4 GT PUSH2 0x26D JUMPI DUP1 PUSH4 0xD0FDD6AF GT PUSH2 0x151 JUMPI DUP1 PUSH4 0xDFCF46F0 GT PUSH2 0xCE JUMPI DUP1 PUSH4 0xE834DBDD GT PUSH2 0x92 JUMPI DUP1 PUSH4 0xE834DBDD EQ PUSH2 0x100B JUMPI DUP1 PUSH4 0xE848DD6F EQ PUSH2 0x1031 JUMPI DUP1 PUSH4 0xEB38888B EQ PUSH2 0x1058 JUMPI DUP1 PUSH4 0xEEB9F2E4 EQ PUSH2 0x107F JUMPI DUP1 PUSH4 0xEEDEE58F EQ PUSH2 0x10A5 JUMPI DUP1 PUSH4 0xF7A65AAE EQ PUSH2 0xF48 JUMPI PUSH1 0x0 DUP1 REVERT JUMPDEST DUP1 PUSH4 0xDFCF46F0 EQ PUSH2 0xF48 JUMPI DUP1 PUSH4 0xE11E8EE2 EQ PUSH2 0xF6F JUMPI DUP1 PUSH4 0xE1E7DABB EQ PUSH2 0xF96 JUMPI DUP1 PUSH4 0xE5525759 EQ PUSH2 0xFBD JUMPI DUP1 PUSH4 0xE6626606 EQ PUSH2 0xFE4 JUMPI PUSH1 0x0 DUP1 REVERT JUMPDEST DUP1 PUSH4 0xD8C710E0 GT PUSH2 0x115 JUMPI DUP1 PUSH4 0xD8C710E0 EQ PUSH2 0xE85 JUMPI DUP1 PUSH4 0xDACB4E69 EQ PUSH2 0xEAC JUMPI DUP1 PUSH4 0xDC05A822 EQ PUSH2 0xED3 JUMPI DUP1 PUSH4 0xDCE42004 EQ PUSH2 0xEFA JUMPI DUP1 PUSH4 0xDD924B47 EQ PUSH2 0xF21 JUMPI PUSH1 0x0 DUP1 REVERT JUMPDEST DUP1 PUSH4 0xD0FDD6AF EQ PUSH2 0xDE9 JUMPI DUP1 PUSH4 0xD1FB02A3 EQ PUSH2 0xE10 JUMPI DUP1 PUSH4 0xD663B365 EQ PUSH2 0xE37 JUMPI DUP1 PUSH4 0xD70A63CC EQ PUSH2 0xBE5 JUMPI DUP1 PUSH4 0xD7AA472A EQ PUSH2 0xE5E JUMPI PUSH1 0x0 DUP1 REVERT JUMPDEST DUP1 PUSH4 0xA127ED86 GT PUSH2 0x1EA JUMPI DUP1 PUSH4 0xAED43349 GT PUSH2 0x1AE JUMPI DUP1 PUSH4 0xAED43349 EQ PUSH2 0xD4D JUMPI DUP1 PUSH4 0xB936325C EQ PUSH2 0x81C JUMPI DUP1 PUSH4 0xBA688175 EQ PUSH2 0xD74 JUMPI DUP1 PUSH4 0xBF48189E EQ PUSH2 0xD9B JUMPI DUP1 PUSH4 0xC4C642EF EQ PUSH2 0xDC2 JUMPI DUP1 PUSH4 0xCC9C92AE EQ PUSH2 0xD26 JUMPI PUSH1 0x0 DUP1 REVERT JUMPDEST DUP1 PUSH4 0xA127ED86 EQ PUSH2 0xCA8 JUMPI DUP1 PUSH4 0xA1978C3C EQ PUSH2 0xCCF JUMPI DUP1 PUSH4 0xA6ACA976 EQ PUSH2 0xCF6 JUMPI DUP1 PUSH4 0xAC6F103E EQ PUSH2 0xCFF JUMPI DUP1 PUSH4 0xACB41936 EQ PUSH2 0xD26 JUMPI PUSH1 0x0 DUP1 REVERT JUMPDEST DUP1 PUSH4 0x901660C4 GT PUSH2 0x231 JUMPI DUP1 PUSH4 0x901660C4 EQ PUSH2 0xBE5 JUMPI DUP1 PUSH4 0x924F0A15 EQ PUSH2 0xC0C JUMPI DUP1 PUSH4 0x96836826 EQ PUSH2 0xC33 JUMPI DUP1 PUSH4 0x970E6037 EQ PUSH2 0xC5A JUMPI DUP1 PUSH4 0x9C8B8AC5 EQ PUSH2 0xC81 JUMPI PUSH1 0x0 DUP1 REVERT JUMPDEST DUP1 PUSH4 0x742797C4 EQ PUSH2 0xB23 JUMPI DUP1 PUSH4 0x7FDF8FC1 EQ PUSH2 0xB4A JUMPI DUP1 PUSH4 0x839A60D0 EQ PUSH2 0xB71 JUMPI DUP1 PUSH4 0x85B195EB EQ PUSH2 0xB98 JUMPI DUP1 PUSH4 0x898611FD EQ PUSH2 0xBBE JUMPI PUSH1 0x0 DUP1 REVERT JUMPDEST DUP1 PUSH4 0x39637503 GT PUSH2 0x394 JUMPI DUP1 PUSH4 0x55061A7A GT PUSH2 0x311 JUMPI DUP1 PUSH4 0x61BB1795 GT PUSH2 0x2D5 JUMPI DUP1 PUSH4 0x61BB1795 EQ PUSH2 0xA3A JUMPI DUP1 PUSH4 0x6336EC6C EQ PUSH2 0xA61 JUMPI DUP1 PUSH4 0x63D2F168 EQ PUSH2 0xA88 JUMPI DUP1 PUSH4 0x6A5935A7 EQ PUSH2 0xAAF JUMPI DUP1 PUSH4 0x6E8374DC EQ PUSH2 0xAD6 JUMPI DUP1 PUSH4 0x73354B60 EQ PUSH2 0xAFD JUMPI PUSH1 0x0 DUP1 REVERT JUMPDEST DUP1 PUSH4 0x55061A7A EQ PUSH2 0x977 JUMPI DUP1 PUSH4 0x59B396B5 EQ PUSH2 0x99E JUMPI DUP1 PUSH4 0x5BF9F093 EQ PUSH2 0x9C5 JUMPI DUP1 PUSH4 0x5C01E537 EQ PUSH2 0x9EC JUMPI DUP1 PUSH4 0x6076D7ED EQ PUSH2 0xA13 JUMPI PUSH1 0x0 DUP1 REVERT JUMPDEST DUP1 PUSH4 0x45CE05A8 GT PUSH2 0x358 JUMPI DUP1 PUSH4 0x45CE05A8 EQ PUSH2 0x8B4 JUMPI DUP1 PUSH4 0x4B750A92 EQ PUSH2 0x8DB JUMPI DUP1 PUSH4 0x4E528E9F EQ PUSH2 0x902 JUMPI DUP1 PUSH4 0x4E890B27 EQ PUSH2 0x929 JUMPI DUP1 PUSH4 0x50DEF905 EQ PUSH2 0x950 JUMPI PUSH1 0x0 DUP1 REVERT JUMPDEST DUP1 PUSH4 0x39637503 EQ PUSH2 0x7F6 JUMPI DUP1 PUSH4 0x3A9E6A4D EQ PUSH2 0x81C JUMPI DUP1 PUSH4 0x3CC08B24 EQ PUSH2 0x843 JUMPI DUP1 PUSH4 0x41FE6A9A EQ PUSH2 0x866 JUMPI DUP1 PUSH4 0x4234A1D6 EQ PUSH2 0x88D JUMPI PUSH1 0x0 DUP1 REVERT JUMPDEST DUP1 PUSH4 0x24934A11 GT PUSH2 0x42D JUMPI DUP1 PUSH4 0x2DACCA56 GT PUSH2 0x3F1 JUMPI DUP1 PUSH4 0x2DACCA56 EQ PUSH2 0x70D JUMPI DUP1 PUSH4 0x30C1731C EQ PUSH2 0x734 JUMPI DUP1 PUSH4 0x31AA5E26 EQ PUSH2 0x75B JUMPI DUP1 PUSH4 0x32148D47 EQ PUSH2 0x782 JUMPI DUP1 PUSH4 0x34A18522 EQ PUSH2 0x7A9 JUMPI DUP1 PUSH4 0x36B397DC EQ PUSH2 0x7CF JUMPI PUSH1 0x0 DUP1 REVERT JUMPDEST DUP1 PUSH4 0x24934A11 EQ PUSH2 0x64A JUMPI DUP1 PUSH4 0x286F014B EQ PUSH2 0x671 JUMPI DUP1 PUSH4 0x28E44695 EQ PUSH2 0x698 JUMPI DUP1 PUSH4 0x2C0556ED EQ PUSH2 0x6BF JUMPI DUP1 PUSH4 0x2D527448 EQ PUSH2 0x6E6 JUMPI PUSH1 0x0 DUP1 REVERT JUMPDEST DUP1 PUSH4 0xDDEC475 GT PUSH2 0x474 JUMPI DUP1 PUSH4 0xDDEC475 EQ PUSH2 0x587 JUMPI DUP1 PUSH4 0xDE199A5 EQ PUSH2 0x5AE JUMPI DUP1 PUSH4 0x1077F544 EQ PUSH2 0x5D5 JUMPI DUP1 PUSH4 0x11FBFE66 EQ PUSH2 0x5FC JUMPI DUP1 PUSH4 0x1C4D4406 EQ PUSH2 0x623 JUMPI PUSH1 0x0 DUP1 REVERT JUMPDEST DUP1 PUSH4 0x2020654 EQ PUSH2 0x4B1 JUMPI DUP1 PUSH4 0x8CCEECF EQ PUSH2 0x4EB JUMPI DUP1 PUSH4 0xC99AB7C EQ PUSH2 0x512 JUMPI DUP1 PUSH4 0xCBB35C3 EQ PUSH2 0x539 JUMPI DUP1 PUSH4 0xD486688 EQ PUSH2 0x560 JUMPI JUMPDEST PUSH1 0x0 DUP1 REVERT JUMPDEST PUSH2 0x4D8 PUSH32 0x20B5F9D2929F9D1C416549F2BF4D007519ECBECE59B3C0E764F31286DFE37B7C DUP2 JUMP JUMPDEST PUSH1 0x40 MLOAD SWAP1 DUP2 MSTORE PUSH1 0x20 ADD JUMPDEST PUSH1 0x40 MLOAD DUP1 SWAP2 SUB SWAP1 RETURN JUMPDEST PUSH2 0x4D8 PUSH32 0x6AFE48C571539099DA5AC59491E0E203DF5658FF654B250B0525ED791BDE83F DUP2 JUMP JUMPDEST PUSH2 0x4D8 PUSH32 0x4F109A9043F0736C31FD7AC58C1371D9AD11830EB63341596DD6A075566C2ED DUP2 JUMP JUMPDEST PUSH2 0x4D8 PUSH32 0x2556D9FBC17CAE3E3790AB6BD9D314D1954140F9D02ADB59B9B48EE979A5D230 DUP2 JUMP JUMPDEST PUSH2 0x4D8 PUSH32 0x229D46BB0F28980F63ED732AC9C63A8201E1911F5CB5F8110D311BE0FADE10AA DUP2 JUMP JUMPDEST PUSH2 0x4D8 PUSH32 0x30644E72E131A029B85045B68181585D2833E84879B9709143E1F593F0000001 DUP2 JUMP JUMPDEST PUSH2 0x4D8 PUSH32 0xA9068BB86CC932E13EECB08B3F022E0BDF9F1F695929E21294033E53C919B8B DUP2 JUMP JUMPDEST PUSH2 0x4D8 PUSH32 0x288B33D9FA44F864C5C91F790FA50E5C2A698F417D260F5E9D54C0D8A1BDA6ED DUP2 JUMP JUMPDEST PUSH2 0x4D8 PUSH32 0x15FD0DEF66442F6145179E697DDD2EB4210CD4F0AB9F648395CA60FC0A3A838F DUP2 JUMP JUMPDEST PUSH2 0x4D8 PUSH32 0x1739C1B1A457A8C7313123D24D2F9192F896B7C63EEA05A9D57F06547AD0CEC8 DUP2 JUMP JUMPDEST PUSH2 0x4D8 PUSH32 0x23FCF72FB01B297050F5A24417038F2A0A6A50DBFCAC6941D430374BDF594492 DUP2 JUMP JUMPDEST PUSH2 0x4D8 PUSH32 0x1F81DB9C744E0CB02E4553BBA155ECE68CF6ADE88B69514A949415FF91D22F62 DUP2 JUMP JUMPDEST PUSH2 0x4D8 PUSH32 0x28C652662A86080D4C5D09B938EBEED07B7A217C9B8C4CDAD790A3C9DFE4C97B DUP2 JUMP JUMPDEST PUSH2 0x4D8 PUSH32 0x1F875F7286BD16986EF99BCCCCD27A3786A035AC93DB1E683FF8D84D3A53EF7C DUP2 JUMP JUMPDEST PUSH2 0x4D8 PUSH32 0x6FA3B9BBC0F1161C019C848596CDF154E18874AC84E48ADA9B26891489D80FF DUP2 JUMP JUMPDEST PUSH2 0x4D8 PUSH32 0x23C5FF4A6AF434B289E8865783EC931FD1B0726BC15BCA93DBE42F010D3563EA DUP2 JUMP JUMPDEST PUSH2 0x4D8 PUSH32 0x21D5DE6E1E78A94E3F1BA87D967AEB0A16F428F56FF3F430397B27FB73AFCA4 DUP2 JUMP JUMPDEST PUSH2 0x4D8 PUSH32 0x2CFF3B75B31A9408D6FD59EC89820A6EC62F692E03C27AFE0D8A8EBBA51420CC DUP2 JUMP JUMPDEST PUSH2 0x4D8 PUSH32 0x98BED6B8829C7CBA186C8A05DEC1296D4B567B7AC693738D5B7C779CAF600A2 DUP2 JUMP JUMPDEST PUSH2 0x4D8 PUSH31 0x907377179F86703005860E48C37223BA67A3AF40C0D92603B70D846DF712F1 DUP2 JUMP JUMPDEST PUSH2 0x4D8 PUSH32 0x2B308BCD2E81AEC22D71893E7F3C3C000AF9543E66B6F0DC3B4B32858961C13B DUP2 JUMP JUMPDEST PUSH2 0x4D8 PUSH31 0x447E7B8A936665056915E9CDDE693B78CDD4E5F6C573FAADEF8E190E71A90B DUP2 JUMP JUMPDEST PUSH2 0x4D8 PUSH32 0x90689D0585FF075EC9E99AD690C3395BC4B313370B38EF355ACDADCD122975B DUP2 JUMP JUMPDEST PUSH2 0x856 PUSH2 0x851 CALLDATASIZE PUSH1 0x4 PUSH2 0x220F JUMP JUMPDEST PUSH2 0x10CC JUMP JUMPDEST PUSH1 0x40 MLOAD SWAP1 ISZERO ISZERO DUP2 MSTORE PUSH1 0x20 ADD PUSH2 0x4E2 JUMP JUMPDEST PUSH2 0x4D8 PUSH32 0x2E8E422476C8AA10EDB674C8D67CC22BB8F93F29DFC9031D52322FFBB309C66E DUP2 JUMP JUMPDEST PUSH2 0x4D8 PUSH32 0x12DE9C799ECF41AECD06BB5A9180ADD5A574C4B444F2DA65DD008F421D29C937 DUP2 JUMP JUMPDEST PUSH2 0x4D8 PUSH32 0xCFBA7B3D2B6B5146F13AA9B38D237420B43D456BD551A1E95284A74D5FDC9CE DUP2 JUMP JUMPDEST PUSH2 0x4D8 PUSH32 0x114A80E01B3C8257E89901F851BE4D95A86CC2D547D9270BAD02E7DA8DBEA869 DUP2 JUMP JUMPDEST PUSH2 0x4D8 PUSH32 0x19DC1AE1CB1AB8DB0AEA2D2666C4A413DDDB3BD65EE2677BFBF709B115DA552F DUP2 JUMP JUMPDEST PUSH2 0x4D8 PUSH32 0x7336B93C4558113F410C97C43CFD9AD5D2BC0E0B4CDD3EEC71F4B840333958E DUP2 JUMP JUMPDEST PUSH2 0x4D8 PUSH32 0x13C7352A8F29919D93CC94BF86C8800BDA20AEF8797D1ABC871750FEFF8BC3DD DUP2 JUMP JUMPDEST PUSH2 0x4D8 PUSH32 0x107A259D8F5FF4C316FF76A5FAB4BCD8DF012F40C60385045064477FB0C3934B DUP2 JUMP JUMPDEST PUSH2 0x4D8 PUSH32 0x28EEFA9E331561E3021C05D89A7803EF9401969D098D346F05478EDFA924CA3F DUP2 JUMP JUMPDEST PUSH2 0x4D8 PUSH32 0x5FFDC39E07D30C593E450F343692336797FB2B9D7928579BEDDF5B4314C2F28 DUP2 JUMP JUMPDEST PUSH2 0x4D8 PUSH32 0x78E441D5F913298EEE2B136349E447B0C4EF2A5568C6393DBAF10B499D31B35 DUP2 JUMP JUMPDEST PUSH2 0x4D8 PUSH32 0x1C03C3897F2CFC2F0185B5E379FDE762B7BD1DBD337B6095FAA29F20A12A95A3 DUP2 JUMP JUMPDEST PUSH2 0x4D8 PUSH32 0x2F7E60587D3F233C2061FB131FBD84C3CB1D413AE5B8FAE41400CB4645B0B4F DUP2 JUMP JUMPDEST PUSH2 0x4D8 PUSH32 0x187E2F19D9D1CC66CFA50A02A10B80ECED78334B2BCDB24EA443BFB4A6AC9CED DUP2 JUMP JUMPDEST PUSH2 0x4D8 PUSH32 0x10C8404C7DE800423F4F084EEF24083C7E8BF909F56A84233CF5847507570A1D DUP2 JUMP JUMPDEST PUSH2 0x4D8 PUSH32 0x14BEDD503C37CEB061D8EC60209FE345CE89830A19230301F076CAFF004D1926 DUP2 JUMP JUMPDEST PUSH2 0x4D8 PUSH32 0x8F8782826C3F003694C4122B0546B6A5A0D7F47CE4BE9C09741CD1D7E6883DA DUP2 JUMP JUMPDEST PUSH2 0x4D8 PUSH31 0x10904681E4EB2129062BB0D32EE1DF78D16C79610196FC3E965029414D5CBB DUP2 JUMP JUMPDEST PUSH2 0x4D8 PUSH32 0xD5B82E143FE82261E806BD844FB31C04D96EC4992ED1487C096B7092772C41D DUP2 JUMP JUMPDEST PUSH2 0x4D8 PUSH32 0xE187847AD4C798374D0D6732BF501847DD68BC0E071241E0213BC7FC13DB7AB DUP2 JUMP JUMPDEST PUSH2 0x4D8 PUSH32 0x30644E72E131A029B85045B68181585D97816A916871CA8D3C208C16D87CFD47 DUP2 JUMP JUMPDEST PUSH2 0x4D8 PUSH31 0x731D446BE28EAC35291905A299316A911BA3C0F08E9D2890E6D8988585EE4E DUP2 JUMP JUMPDEST PUSH2 0x4D8 PUSH32 0x247B88A7B1C3B2DCE69247F47F696C290414DE2277888BBD8B9CA36B01BC18AC DUP2 JUMP JUMPDEST PUSH2 0x4D8 PUSH32 0x198E9393920D483A7260BFB731FB5D25F1AA493335A9E71297E485B7AEF312C2 DUP2 JUMP JUMPDEST PUSH2 0x4D8 PUSH32 0xD724B53103D7718A13D6C815182F8EE319835C261E8E92B961F39F162A3FA9D DUP2 JUMP JUMPDEST PUSH2 0x4D8 PUSH32 0x1B514B6E343D274E0C5E3094C112CBBA2D4CB29C4CAAAC8D23B6B3F4093090B DUP2 JUMP JUMPDEST PUSH2 0x4D8 PUSH32 0x2DC9B404F8E38E5F19EB4647A99E5502DE7E8B74E549B1B1B4F66602D4C62C3 DUP2 JUMP JUMPDEST PUSH2 0x4D8 PUSH32 0x39AD749FEE897F891546936FEC6F5F035D0F8EA0468DDF897EC6E649D162BE1 DUP2 JUMP JUMPDEST PUSH2 0x4D8 PUSH32 0x2AE069085C5956425591F6237F3B38A6E76406381A72B4E086362BF8EBD0790D DUP2 JUMP JUMPDEST PUSH2 0x4D8 PUSH32 0xC415C50362C02920367E1C45DC5952CEFA926950DAE3BD6CDD0D9C9C14537E4 DUP2 JUMP JUMPDEST PUSH2 0x4D8 PUSH2 0x300 DUP2 JUMP JUMPDEST PUSH2 0x4D8 PUSH32 0x1C82CEF521A0B840790F85D830CB96D5377BB7372BA7577CBB606A8AFFE403A7 DUP2 JUMP JUMPDEST PUSH2 0x4D8 PUSH32 0x12C85EA5DB8C6DEB4AAB71808DCB408FE3D1E7690C43D37B4CE6CC0166FA7DAA DUP2 JUMP JUMPDEST PUSH2 0x4D8 PUSH32 0x16F1D2A2AD4096AEC237215770D14E74BB837C04448B166A41269FEBDDC4F56F DUP2 JUMP JUMPDEST PUSH2 0x4D8 PUSH32 0x1BF082025F3757C9D01172B545483267080CCD8E4DBA8CC1DF9F9EE0308F23AB DUP2 JUMP JUMPDEST PUSH2 0x4D8 PUSH32 0xF20C0FB8C72346A2D8B713008894506C97C6813FA1C0496D5B1C25F87728FD3 DUP2 JUMP JUMPDEST PUSH2 0x4D8 PUSH32 0x1B3D150C69189120A0D813B66BD5FA6F90D2FC49D50BAE8AA34D90D9571A08F7 DUP2 JUMP JUMPDEST PUSH2 0x4D8 PUSH32 0x24D9DD358E13725BA0641428D2406B43479181D6208AFAAA5ABCB7ACCB37F430 DUP2 JUMP JUMPDEST PUSH2 0x4D8 PUSH32 0x2D4D9AA7E302D9DF41749D5507949D05DBEA33FBB16C643B22F599A2BE6DF2E2 DUP2 JUMP JUMPDEST PUSH2 0x4D8 PUSH32 0x2185E663E3286B2E6013C9AB15951771FFB42646644F51113427EBA2D71D4513 DUP2 JUMP JUMPDEST PUSH2 0x4D8 PUSH32 0x1F46E0AEF5E5A33DCEF3C91C6168CC7DDC121D534BA27B1B9D0F10FA4F9E799E DUP2 JUMP JUMPDEST PUSH2 0x4D8 PUSH32 0x11B4C385D2519BE8EB926B757E396FA776D98D0A5FA69466F3EED4B958E6DD1E DUP2 JUMP JUMPDEST PUSH2 0x4D8 PUSH32 0x2023F14A57C38CF4DD2A01D88FF44452DD1A144627A0FBDE9757548D0578AF65 DUP2 JUMP JUMPDEST PUSH2 0x4D8 PUSH32 0x967032FCBF776D1AFC985F88877F182D38480A653F2DECAA9794CBC3BF3060C DUP2 JUMP JUMPDEST PUSH2 0x4D8 PUSH32 0x264F55B7D972DF8121B2F8473E161BB7AFE44003C34464D2EEBF29446CBDAA08 DUP2 JUMP JUMPDEST PUSH2 0x4D8 PUSH32 0x304CFBD1E08A704A99F5E847D93F8C3CAAFDDEC46B7A0D379DA69A4D112346A7 DUP2 JUMP JUMPDEST PUSH2 0x4D8 PUSH32 0x1800DEEF121F1E76426A00665E5C4479674322D4F75EDADD46DEBD5CD992F6ED DUP2 JUMP JUMPDEST PUSH2 0x4D8 PUSH32 0x226E31CB9BA7B28A0B157E5F39C232C0C81C0F7D3CBD7FF8662D674FB383C7D8 DUP2 JUMP JUMPDEST PUSH2 0x4D8 PUSH32 0x17888AA0284FF8D6A7B462EDE5F31F52052E4DB8FC394F0CC9C6D1BA548C21B6 DUP2 JUMP JUMPDEST PUSH2 0x4D8 PUSH32 0x2591CA675CB4590538F31DB2FAB149E7985EA042C4F57BA4CE5FCD52BE095EC1 DUP2 JUMP JUMPDEST PUSH2 0x4D8 PUSH32 0x150C5D9BBE16B91062F765FFD9618D8337A9F8DA0C3890DB54BE7EC391FFEB81 DUP2 JUMP JUMPDEST PUSH2 0x4D8 PUSH31 0x6930DFC6200DB7AD8B4C58B6780100E744A535F4B8713DC43D4AA39B710A77 DUP2 JUMP JUMPDEST PUSH2 0x4D8 PUSH32 0x15F0312E34B132B3DBE7A824F8F9CB9D662D0A1E67C18A14A4604D93CF239F6D DUP2 JUMP JUMPDEST PUSH2 0x4D8 PUSH32 0x2D70A74B4A4BE610CAB3BE650556D79582AE45798C4E5D740DB3C378BC0CE072 DUP2 JUMP JUMPDEST PUSH2 0x4D8 PUSH31 0xC7CF61488C43D82B3C607609F184CA52145A4FB28C46E4D59EA4FCF2ACF261 DUP2 JUMP JUMPDEST PUSH2 0x4D8 PUSH32 0x2229733E523A60E720C445D6551EC3D0890C2F5FA87B968ECB72EB5F1179BC57 DUP2 JUMP JUMPDEST PUSH1 0x0 PUSH2 0x1F12 JUMP JUMPDEST PUSH32 0x30644E72E131A029B85045B68181585D2833E84879B9709143E1F593F0000001 GT SWAP1 JUMP JUMPDEST DUP2 PUSH1 0x40 DUP3 ADD MSTORE DUP3 PUSH1 0x60 DUP3 ADD MSTORE DUP4 PUSH1 0x80 DUP3 ADD MSTORE PUSH1 0x0 PUSH1 0x40 DUP1 DUP4 ADD PUSH1 0x60 PUSH1 0x40 DUP6 ADD PUSH1 0x7 PUSH2 0x1770 STATICCALL RETURNDATASIZE ISZERO ISZERO AND SWAP1 POP DUP1 ISZERO PUSH2 0x113B JUMPI PUSH1 0x40 DUP3 PUSH1 0x80 DUP5 PUSH1 0x6 PUSH1 0x96 STATICCALL RETURNDATASIZE ISZERO ISZERO AND SWAP1 POP JUMPDEST SWAP5 SWAP4 POP POP POP POP JUMP JUMPDEST PUSH32 0x187E2F19D9D1CC66CFA50A02A10B80ECED78334B2BCDB24EA443BFB4A6AC9CED DUP6 MSTORE PUSH32 0xD5B82E143FE82261E806BD844FB31C04D96EC4992ED1487C096B7092772C41D PUSH1 0x20 DUP7 ADD MSTORE PUSH1 0x0 PUSH2 0x11DE PUSH1 0x0 DUP7 ADD MLOAD PUSH32 0xC415C50362C02920367E1C45DC5952CEFA926950DAE3BD6CDD0D9C9C14537E4 PUSH32 0x2185E663E3286B2E6013C9AB15951771FFB42646644F51113427EBA2D71D4513 DUP10 PUSH2 0x10F8 JUMP JUMPDEST ISZERO PUSH2 0x1F09 JUMPI PUSH2 0x1233 PUSH1 0x20 DUP7 ADD MLOAD PUSH32 0x2556D9FBC17CAE3E3790AB6BD9D314D1954140F9D02ADB59B9B48EE979A5D230 PUSH32 0x264F55B7D972DF8121B2F8473E161BB7AFE44003C34464D2EEBF29446CBDAA08 DUP10 PUSH2 0x10F8 JUMP JUMPDEST ISZERO PUSH2 0x1F09 JUMPI PUSH2 0x1288 PUSH1 0x40 DUP7 ADD MLOAD PUSH32 0x13C7352A8F29919D93CC94BF86C8800BDA20AEF8797D1ABC871750FEFF8BC3DD PUSH32 0x12DE9C799ECF41AECD06BB5A9180ADD5A574C4B444F2DA65DD008F421D29C937 DUP10 PUSH2 0x10F8 JUMP JUMPDEST ISZERO PUSH2 0x1F09 JUMPI PUSH2 0x12DD PUSH1 0x60 DUP7 ADD MLOAD PUSH32 0x7336B93C4558113F410C97C43CFD9AD5D2BC0E0B4CDD3EEC71F4B840333958E PUSH32 0x2229733E523A60E720C445D6551EC3D0890C2F5FA87B968ECB72EB5F1179BC57 DUP10 PUSH2 0x10F8 JUMP JUMPDEST ISZERO PUSH2 0x1F09 JUMPI PUSH2 0x1332 PUSH1 0x80 DUP7 ADD MLOAD PUSH32 0x23FCF72FB01B297050F5A24417038F2A0A6A50DBFCAC6941D430374BDF594492 PUSH32 0x247B88A7B1C3B2DCE69247F47F696C290414DE2277888BBD8B9CA36B01BC18AC DUP10 PUSH2 0x10F8 JUMP JUMPDEST ISZERO PUSH2 0x1F09 JUMPI PUSH2 0x1387 PUSH1 0xA0 DUP7 ADD MLOAD PUSH32 0xF20C0FB8C72346A2D8B713008894506C97C6813FA1C0496D5B1C25F87728FD3 PUSH32 0x16F1D2A2AD4096AEC237215770D14E74BB837C04448B166A41269FEBDDC4F56F DUP10 PUSH2 0x10F8 JUMP JUMPDEST ISZERO PUSH2 0x1F09 JUMPI PUSH2 0x13DC PUSH1 0xC0 DUP7 ADD MLOAD PUSH32 0x1F875F7286BD16986EF99BCCCCD27A3786A035AC93DB1E683FF8D84D3A53EF7C PUSH32 0x2CFF3B75B31A9408D6FD59EC89820A6EC62F692E03C27AFE0D8A8EBBA51420CC DUP10 PUSH2 0x10F8 JUMP JUMPDEST ISZERO PUSH2 0x1F09 JUMPI PUSH2 0x1431 PUSH1 0xE0 DUP7 ADD MLOAD PUSH32 0x23C5FF4A6AF434B289E8865783EC931FD1B0726BC15BCA93DBE42F010D3563EA PUSH32 0x2E8E422476C8AA10EDB674C8D67CC22BB8F93F29DFC9031D52322FFBB309C66E DUP10 PUSH2 0x10F8 JUMP JUMPDEST ISZERO PUSH2 0x1F09 JUMPI PUSH2 0x1487 PUSH2 0x100 DUP7 ADD MLOAD PUSH32 0x28C652662A86080D4C5D09B938EBEED07B7A217C9B8C4CDAD790A3C9DFE4C97B PUSH32 0x2023F14A57C38CF4DD2A01D88FF44452DD1A144627A0FBDE9757548D0578AF65 DUP10 PUSH2 0x10F8 JUMP JUMPDEST ISZERO PUSH2 0x1F09 JUMPI PUSH2 0x14DD PUSH2 0x120 DUP7 ADD MLOAD PUSH32 0x15F0312E34B132B3DBE7A824F8F9CB9D662D0A1E67C18A14A4604D93CF239F6D PUSH32 0x15FD0DEF66442F6145179E697DDD2EB4210CD4F0AB9F648395CA60FC0A3A838F DUP10 PUSH2 0x10F8 JUMP JUMPDEST ISZERO PUSH2 0x1F09 JUMPI PUSH2 0x1531 PUSH2 0x140 DUP7 ADD MLOAD PUSH31 0x10904681E4EB2129062BB0D32EE1DF78D16C79610196FC3E965029414D5CBB PUSH31 0x447E7B8A936665056915E9CDDE693B78CDD4E5F6C573FAADEF8E190E71A90B DUP10 PUSH2 0x10F8 JUMP JUMPDEST ISZERO PUSH2 0x1F09 JUMPI PUSH2 0x1587 PUSH2 0x160 DUP7 ADD MLOAD PUSH32 0x1BF082025F3757C9D01172B545483267080CCD8E4DBA8CC1DF9F9EE0308F23AB PUSH32 0x2AE069085C5956425591F6237F3B38A6E76406381A72B4E086362BF8EBD0790D DUP10 PUSH2 0x10F8 JUMP JUMPDEST ISZERO PUSH2 0x1F09 JUMPI PUSH2 0x15DD PUSH2 0x180 DUP7 ADD MLOAD PUSH32 0x288B33D9FA44F864C5C91F790FA50E5C2A698F417D260F5E9D54C0D8A1BDA6ED PUSH32 0x2B308BCD2E81AEC22D71893E7F3C3C000AF9543E66B6F0DC3B4B32858961C13B DUP10 PUSH2 0x10F8 JUMP JUMPDEST ISZERO PUSH2 0x1F09 JUMPI PUSH2 0x1632 PUSH2 0x1A0 DUP7 ADD MLOAD PUSH31 0x6930DFC6200DB7AD8B4C58B6780100E744A535F4B8713DC43D4AA39B710A77 PUSH32 0x11B4C385D2519BE8EB926B757E396FA776D98D0A5FA69466F3EED4B958E6DD1E DUP10 PUSH2 0x10F8 JUMP JUMPDEST ISZERO PUSH2 0x1F09 JUMPI PUSH2 0x1688 PUSH2 0x1C0 DUP7 ADD MLOAD PUSH32 0x21D5DE6E1E78A94E3F1BA87D967AEB0A16F428F56FF3F430397B27FB73AFCA4 PUSH32 0x114A80E01B3C8257E89901F851BE4D95A86CC2D547D9270BAD02E7DA8DBEA869 DUP10 PUSH2 0x10F8 JUMP JUMPDEST ISZERO PUSH2 0x1F09 JUMPI PUSH2 0x16DE PUSH2 0x1E0 DUP7 ADD MLOAD PUSH32 0x98BED6B8829C7CBA186C8A05DEC1296D4B567B7AC693738D5B7C779CAF600A2 PUSH32 0x226E31CB9BA7B28A0B157E5F39C232C0C81C0F7D3CBD7FF8662D674FB383C7D8 DUP10 PUSH2 0x10F8 JUMP JUMPDEST ISZERO PUSH2 0x1F09 JUMPI PUSH2 0x1734 PUSH2 0x200 DUP7 ADD MLOAD PUSH32 0x6FA3B9BBC0F1161C019C848596CDF154E18874AC84E48ADA9B26891489D80FF PUSH32 0x1F81DB9C744E0CB02E4553BBA155ECE68CF6ADE88B69514A949415FF91D22F62 DUP10 PUSH2 0x10F8 JUMP JUMPDEST ISZERO PUSH2 0x1F09 JUMPI PUSH2 0x178A PUSH2 0x220 DUP7 ADD MLOAD PUSH32 0x24D9DD358E13725BA0641428D2406B43479181D6208AFAAA5ABCB7ACCB37F430 PUSH32 0xCFBA7B3D2B6B5146F13AA9B38D237420B43D456BD551A1E95284A74D5FDC9CE DUP10 PUSH2 0x10F8 JUMP JUMPDEST ISZERO PUSH2 0x1F09 JUMPI PUSH2 0x17E0 PUSH2 0x240 DUP7 ADD MLOAD PUSH32 0x1C03C3897F2CFC2F0185B5E379FDE762B7BD1DBD337B6095FAA29F20A12A95A3 PUSH32 0x28EEFA9E331561E3021C05D89A7803EF9401969D098D346F05478EDFA924CA3F DUP10 PUSH2 0x10F8 JUMP JUMPDEST ISZERO PUSH2 0x1F09 JUMPI PUSH2 0x1836 PUSH2 0x260 DUP7 ADD MLOAD PUSH32 0x5FFDC39E07D30C593E450F343692336797FB2B9D7928579BEDDF5B4314C2F28 PUSH32 0x20B5F9D2929F9D1C416549F2BF4D007519ECBECE59B3C0E764F31286DFE37B7C DUP10 PUSH2 0x10F8 JUMP JUMPDEST ISZERO PUSH2 0x1F09 JUMPI PUSH2 0x188C PUSH2 0x280 DUP7 ADD MLOAD PUSH32 0x19DC1AE1CB1AB8DB0AEA2D2666C4A413DDDB3BD65EE2677BFBF709B115DA552F PUSH32 0x1F46E0AEF5E5A33DCEF3C91C6168CC7DDC121D534BA27B1B9D0F10FA4F9E799E DUP10 PUSH2 0x10F8 JUMP JUMPDEST ISZERO PUSH2 0x1F09 JUMPI PUSH2 0x18E2 PUSH2 0x2A0 DUP7 ADD MLOAD PUSH32 0xD724B53103D7718A13D6C815182F8EE319835C261E8E92B961F39F162A3FA9D PUSH32 0x4F109A9043F0736C31FD7AC58C1371D9AD11830EB63341596DD6A075566C2ED DUP10 PUSH2 0x10F8 JUMP JUMPDEST ISZERO PUSH2 0x1F09 JUMPI PUSH2 0x1938 PUSH2 0x2C0 DUP7 ADD MLOAD PUSH32 0x6AFE48C571539099DA5AC59491E0E203DF5658FF654B250B0525ED791BDE83F PUSH32 0xA9068BB86CC932E13EECB08B3F022E0BDF9F1F695929E21294033E53C919B8B DUP10 PUSH2 0x10F8 JUMP JUMPDEST ISZERO PUSH2 0x1F09 JUMPI PUSH2 0x198D PUSH2 0x2E0 DUP7 ADD MLOAD PUSH31 0xC7CF61488C43D82B3C607609F184CA52145A4FB28C46E4D59EA4FCF2ACF261 PUSH32 0x2D70A74B4A4BE610CAB3BE650556D79582AE45798C4E5D740DB3C378BC0CE072 DUP10 PUSH2 0x10F8 JUMP JUMPDEST ISZERO PUSH2 0x1F09 JUMPI PUSH2 0x19E3 PUSH2 0x300 DUP7 ADD MLOAD PUSH32 0x1C82CEF521A0B840790F85D830CB96D5377BB7372BA7577CBB606A8AFFE403A7 PUSH32 0x1B3D150C69189120A0D813B66BD5FA6F90D2FC49D50BAE8AA34D90D9571A08F7 DUP10 PUSH2 0x10F8 JUMP JUMPDEST ISZERO PUSH2 0x1F09 JUMPI PUSH2 0x1A39 PUSH2 0x320 DUP7 ADD MLOAD PUSH32 0x10C8404C7DE800423F4F084EEF24083C7E8BF909F56A84233CF5847507570A1D PUSH32 0x1B514B6E343D274E0C5E3094C112CBBA2D4CB29C4CAAAC8D23B6B3F4093090B DUP10 PUSH2 0x10F8 JUMP JUMPDEST ISZERO PUSH2 0x1F09 JUMPI PUSH2 0x1A8F PUSH2 0x340 DUP7 ADD MLOAD PUSH32 0x150C5D9BBE16B91062F765FFD9618D8337A9F8DA0C3890DB54BE7EC391FFEB81 PUSH32 0x229D46BB0F28980F63ED732AC9C63A8201E1911F5CB5F8110D311BE0FADE10AA DUP10 PUSH2 0x10F8 JUMP JUMPDEST ISZERO PUSH2 0x1F09 JUMPI PUSH2 0x1AE4 PUSH2 0x360 DUP7 ADD MLOAD PUSH32 0x107A259D8F5FF4C316FF76A5FAB4BCD8DF012F40C60385045064477FB0C3934B PUSH31 0x731D446BE28EAC35291905A299316A911BA3C0F08E9D2890E6D8988585EE4E DUP10 PUSH2 0x10F8 JUMP JUMPDEST ISZERO PUSH2 0x1F09 JUMPI PUSH2 0x1B3A PUSH2 0x380 DUP7 ADD MLOAD PUSH32 0x78E441D5F913298EEE2B136349E447B0C4EF2A5568C6393DBAF10B499D31B35 PUSH32 0x2DC9B404F8E38E5F19EB4647A99E5502DE7E8B74E549B1B1B4F66602D4C62C3 DUP10 PUSH2 0x10F8 JUMP JUMPDEST ISZERO PUSH2 0x1F09 JUMPI PUSH2 0x1B8F PUSH2 0x3A0 DUP7 ADD MLOAD PUSH31 0x907377179F86703005860E48C37223BA67A3AF40C0D92603B70D846DF712F1 PUSH32 0x8F8782826C3F003694C4122B0546B6A5A0D7F47CE4BE9C09741CD1D7E6883DA DUP10 PUSH2 0x10F8 JUMP JUMPDEST ISZERO PUSH2 0x1F09 JUMPI PUSH2 0x1BE5 PUSH2 0x3C0 DUP7 ADD MLOAD PUSH32 0x39AD749FEE897F891546936FEC6F5F035D0F8EA0468DDF897EC6E649D162BE1 PUSH32 0x2591CA675CB4590538F31DB2FAB149E7985EA042C4F57BA4CE5FCD52BE095EC1 DUP10 PUSH2 0x10F8 JUMP JUMPDEST ISZERO PUSH2 0x1F09 JUMPI PUSH2 0x1C3B PUSH2 0x3E0 DUP7 ADD MLOAD PUSH32 0x17888AA0284FF8D6A7B462EDE5F31F52052E4DB8FC394F0CC9C6D1BA548C21B6 PUSH32 0x2F7E60587D3F233C2061FB131FBD84C3CB1D413AE5B8FAE41400CB4645B0B4F DUP10 PUSH2 0x10F8 JUMP JUMPDEST ISZERO PUSH2 0x1F09 JUMPI PUSH32 0x198E9393920D483A7260BFB731FB5D25F1AA493335A9E71297E485B7AEF312C2 PUSH1 0x40 DUP8 ADD MSTORE PUSH32 0x1800DEEF121F1E76426A00665E5C4479674322D4F75EDADD46DEBD5CD992F6ED PUSH1 0x60 DUP8 ADD MSTORE PUSH32 0x90689D0585FF075EC9E99AD690C3395BC4B313370B38EF355ACDADCD122975B PUSH1 0x80 DUP8 ADD MSTORE PUSH32 0x12C85EA5DB8C6DEB4AAB71808DCB408FE3D1E7690C43D37B4CE6CC0166FA7DAA PUSH1 0xA0 DUP8 ADD MSTORE DUP2 MLOAD PUSH1 0xC0 DUP8 ADD MSTORE PUSH32 0x30644E72E131A029B85045B68181585D97816A916871CA8D3C208C16D87CFD47 PUSH1 0x20 DUP4 ADD MLOAD PUSH32 0x30644E72E131A029B85045B68181585D97816A916871CA8D3C208C16D87CFD47 SUB MOD PUSH1 0xE0 DUP8 ADD MSTORE DUP3 MLOAD MLOAD PUSH2 0x100 DUP8 ADD MSTORE PUSH1 0x20 DUP4 MLOAD ADD MLOAD PUSH2 0x120 DUP8 ADD MSTORE PUSH1 0x20 DUP4 ADD MLOAD MLOAD PUSH2 0x140 DUP8 ADD MSTORE PUSH1 0x20 DUP1 DUP5 ADD MLOAD ADD MLOAD PUSH2 0x160 DUP8 ADD MSTORE PUSH32 0x2D4D9AA7E302D9DF41749D5507949D05DBEA33FBB16C643B22F599A2BE6DF2E2 PUSH2 0x180 DUP8 ADD MSTORE PUSH32 0x14BEDD503C37CEB061D8EC60209FE345CE89830A19230301F076CAFF004D1926 PUSH2 0x1A0 DUP8 ADD MSTORE PUSH32 0x967032FCBF776D1AFC985F88877F182D38480A653F2DECAA9794CBC3BF3060C PUSH2 0x1C0 DUP8 ADD MSTORE PUSH32 0xE187847AD4C798374D0D6732BF501847DD68BC0E071241E0213BC7FC13DB7AB PUSH2 0x1E0 DUP8 ADD MSTORE PUSH32 0x304CFBD1E08A704A99F5E847D93F8C3CAAFDDEC46B7A0D379DA69A4D112346A7 PUSH2 0x200 DUP8 ADD MSTORE PUSH32 0x1739C1B1A457A8C7313123D24D2F9192F896B7C63EEA05A9D57F06547AD0CEC8 PUSH2 0x220 DUP8 ADD MSTORE DUP4 MLOAD PUSH2 0x240 DUP8 ADD MSTORE PUSH1 0x20 DUP5 ADD MLOAD PUSH2 0x260 DUP8 ADD MSTORE PUSH32 0x198E9393920D483A7260BFB731FB5D25F1AA493335A9E71297E485B7AEF312C2 PUSH2 0x280 DUP8 ADD MSTORE PUSH32 0x1800DEEF121F1E76426A00665E5C4479674322D4F75EDADD46DEBD5CD992F6ED PUSH2 0x2A0 DUP8 ADD MSTORE PUSH32 0x90689D0585FF075EC9E99AD690C3395BC4B313370B38EF355ACDADCD122975B PUSH2 0x2C0 DUP8 ADD MSTORE PUSH32 0x12C85EA5DB8C6DEB4AAB71808DCB408FE3D1E7690C43D37B4CE6CC0166FA7DAA PUSH2 0x2E0 DUP8 ADD MSTORE PUSH1 0x20 DUP7 PUSH2 0x300 DUP9 PUSH1 0x8 PUSH3 0x2C308 STATICCALL DUP7 MLOAD AND SWAP1 POP JUMPDEST SWAP6 SWAP5 POP POP POP POP POP JUMP JUMPDEST PUSH1 0x40 MLOAD PUSH2 0x300 DUP2 ADD PUSH1 0x40 MSTORE PUSH1 0x1 SWAP2 POP PUSH2 0x1F2E PUSH1 0x0 DUP5 ADD MLOAD PUSH2 0x10D3 JUMP JUMPDEST DUP3 AND SWAP2 POP PUSH2 0x1F3F PUSH1 0x20 DUP5 ADD MLOAD PUSH2 0x10D3 JUMP JUMPDEST DUP3 AND SWAP2 POP PUSH2 0x1F50 PUSH1 0x40 DUP5 ADD MLOAD PUSH2 0x10D3 JUMP JUMPDEST DUP3 AND SWAP2 POP PUSH2 0x1F61 PUSH1 0x60 DUP5 ADD MLOAD PUSH2 0x10D3 JUMP JUMPDEST DUP3 AND SWAP2 POP PUSH2 0x1F72 PUSH1 0x80 DUP5 ADD MLOAD PUSH2 0x10D3 JUMP JUMPDEST DUP3 AND SWAP2 POP PUSH2 0x1F83 PUSH1 0xA0 DUP5 ADD MLOAD PUSH2 0x10D3 JUMP JUMPDEST DUP3 AND SWAP2 POP PUSH2 0x1F94 PUSH1 0xC0 DUP5 ADD MLOAD PUSH2 0x10D3 JUMP JUMPDEST DUP3 AND SWAP2 POP PUSH2 0x1FA5 PUSH1 0xE0 DUP5 ADD MLOAD PUSH2 0x10D3 JUMP JUMPDEST DUP3 AND SWAP2 POP PUSH2 0x1FB7 PUSH2 0x100 DUP5 ADD MLOAD PUSH2 0x10D3 JUMP JUMPDEST DUP3 AND SWAP2 POP PUSH2 0x1FC9 PUSH2 0x120 DUP5 ADD MLOAD PUSH2 0x10D3 JUMP JUMPDEST DUP3 AND SWAP2 POP PUSH2 0x1FDB PUSH2 0x140 DUP5 ADD MLOAD PUSH2 0x10D3 JUMP JUMPDEST DUP3 AND SWAP2 POP PUSH2 0x1FED PUSH2 0x160 DUP5 ADD MLOAD PUSH2 0x10D3 JUMP JUMPDEST DUP3 AND SWAP2 POP PUSH2 0x1FFF PUSH2 0x180 DUP5 ADD MLOAD PUSH2 0x10D3 JUMP JUMPDEST DUP3 AND SWAP2 POP PUSH2 0x2011 PUSH2 0x1A0 DUP5 ADD MLOAD PUSH2 0x10D3 JUMP JUMPDEST DUP3 AND SWAP2 POP PUSH2 0x2023 PUSH2 0x1C0 DUP5 ADD MLOAD PUSH2 0x10D3 JUMP JUMPDEST DUP3 AND SWAP2 POP PUSH2 0x2035 PUSH2 0x1E0 DUP5 ADD MLOAD PUSH2 0x10D3 JUMP JUMPDEST DUP3 AND SWAP2 POP PUSH2 0x2047 PUSH2 0x200 DUP5 ADD MLOAD PUSH2 0x10D3 JUMP JUMPDEST DUP3 AND SWAP2 POP PUSH2 0x2059 PUSH2 0x220 DUP5 ADD MLOAD PUSH2 0x10D3 JUMP JUMPDEST DUP3 AND SWAP2 POP PUSH2 0x206B PUSH2 0x240 DUP5 ADD MLOAD PUSH2 0x10D3 JUMP JUMPDEST DUP3 AND SWAP2 POP PUSH2 0x207D PUSH2 0x260 DUP5 ADD MLOAD PUSH2 0x10D3 JUMP JUMPDEST DUP3 AND SWAP2 POP PUSH2 0x208F PUSH2 0x280 DUP5 ADD MLOAD PUSH2 0x10D3 JUMP JUMPDEST DUP3 AND SWAP2 POP PUSH2 0x20A1 PUSH2 0x2A0 DUP5 ADD MLOAD PUSH2 0x10D3 JUMP JUMPDEST DUP3 AND SWAP2 POP PUSH2 0x20B3 PUSH2 0x2C0 DUP5 ADD MLOAD PUSH2 0x10D3 JUMP JUMPDEST DUP3 AND SWAP2 POP PUSH2 0x20C5 PUSH2 0x2E0 DUP5 ADD MLOAD PUSH2 0x10D3 JUMP JUMPDEST DUP3 AND SWAP2 POP PUSH2 0x20D7 PUSH2 0x300 DUP5 ADD MLOAD PUSH2 0x10D3 JUMP JUMPDEST DUP3 AND SWAP2 POP PUSH2 0x20E9 PUSH2 0x320 DUP5 ADD MLOAD PUSH2 0x10D3 JUMP JUMPDEST DUP3 AND SWAP2 POP PUSH2 0x20FB PUSH2 0x340 DUP5 ADD MLOAD PUSH2 0x10D3 JUMP JUMPDEST DUP3 AND SWAP2 POP PUSH2 0x210D PUSH2 0x360 DUP5 ADD MLOAD PUSH2 0x10D3 JUMP JUMPDEST DUP3 AND SWAP2 POP PUSH2 0x211F PUSH2 0x380 DUP5 ADD MLOAD PUSH2 0x10D3 JUMP JUMPDEST DUP3 AND SWAP2 POP PUSH2 0x2131 PUSH2 0x3A0 DUP5 ADD MLOAD PUSH2 0x10D3 JUMP JUMPDEST DUP3 AND SWAP2 POP PUSH2 0x2143 PUSH2 0x3C0 DUP5 ADD MLOAD PUSH2 0x10D3 JUMP JUMPDEST DUP3 AND SWAP2 POP PUSH2 0x2155 PUSH2 0x3E0 DUP5 ADD MLOAD PUSH2 0x10D3 JUMP JUMPDEST DUP3 AND SWAP2 POP DUP2 ISZERO NOT ISZERO PUSH2 0x2171 JUMPI PUSH2 0x216E DUP2 DUP5 DUP7 DUP9 DUP11 PUSH2 0x1143 JUMP JUMPDEST SWAP2 POP JUMPDEST POP SWAP5 SWAP4 POP POP POP POP JUMP JUMPDEST PUSH1 0x40 MLOAD PUSH1 0x1F DUP3 ADD PUSH1 0x1F NOT AND DUP2 ADD PUSH8 0xFFFFFFFFFFFFFFFF DUP2 GT DUP3 DUP3 LT OR ISZERO PUSH2 0x21B1 JUMPI PUSH4 0x4E487B71 PUSH1 0xE0 SHL PUSH1 0x0 MSTORE PUSH1 0x41 PUSH1 0x4 MSTORE PUSH1 0x24 PUSH1 0x0 REVERT JUMPDEST PUSH1 0x40 MSTORE SWAP2 SWAP1 POP JUMP JUMPDEST PUSH1 0x0 DUP3 PUSH1 0x1F DUP4 ADD SLT PUSH2 0x21CA JUMPI PUSH1 0x0 DUP1 REVERT JUMPDEST PUSH1 0x0 PUSH2 0x21D6 PUSH1 0x40 PUSH2 0x217A JUMP JUMPDEST SWAP1 POP DUP1 PUSH1 0x40 DUP5 ADD DUP6 DUP2 GT ISZERO PUSH2 0x21EA JUMPI PUSH1 0x0 DUP1 REVERT JUMPDEST DUP5 JUMPDEST DUP2 DUP2 LT ISZERO PUSH2 0x2204 JUMPI DUP1 CALLDATALOAD DUP4 MSTORE PUSH1 0x20 SWAP3 DUP4 ADD SWAP3 ADD PUSH2 0x21EC JUMP JUMPDEST POP SWAP2 SWAP6 SWAP5 POP POP POP POP POP JUMP JUMPDEST PUSH1 0x0 DUP1 PUSH1 0x0 DUP1 PUSH2 0x500 DUP6 DUP8 SUB SLT ISZERO PUSH2 0x2226 JUMPI PUSH1 0x0 DUP1 REVERT JUMPDEST PUSH2 0x2230 DUP7 DUP7 PUSH2 0x21B9 JUMP JUMPDEST SWAP4 POP DUP6 PUSH1 0x5F DUP7 ADD SLT PUSH2 0x2241 JUMPI PUSH1 0x0 DUP1 REVERT JUMPDEST PUSH1 0x40 PUSH2 0x224C DUP2 PUSH2 0x217A JUMP JUMPDEST DUP1 PUSH1 0xC0 DUP9 ADD DUP10 DUP2 GT ISZERO PUSH2 0x225E JUMPI PUSH1 0x0 DUP1 REVERT JUMPDEST DUP4 DUP10 ADD JUMPDEST DUP2 DUP2 LT ISZERO PUSH2 0x2283 JUMPI PUSH2 0x2274 DUP12 DUP3 PUSH2 0x21B9 JUMP JUMPDEST DUP5 MSTORE PUSH1 0x20 SWAP1 SWAP4 ADD SWAP3 DUP5 ADD PUSH2 0x2262 JUMP JUMPDEST POP DUP2 SWAP7 POP PUSH2 0x2291 DUP11 DUP3 PUSH2 0x21B9 JUMP JUMPDEST SWAP6 POP POP POP POP POP PUSH2 0x100 DUP6 ADD PUSH1 0x0 DUP8 PUSH1 0x1F DUP4 ADD SLT PUSH2 0x22AC JUMPI DUP1 DUP2 REVERT JUMPDEST DUP1 PUSH2 0x400 PUSH2 0x22B9 DUP2 PUSH2 0x217A JUMP JUMPDEST SWAP2 POP DUP4 ADD DUP2 DUP11 DUP3 GT ISZERO PUSH2 0x22CA JUMPI DUP4 DUP5 REVERT JUMPDEST JUMPDEST DUP2 DUP6 LT ISZERO PUSH2 0x22E3 JUMPI DUP5 CALLDATALOAD DUP2 MSTORE PUSH1 0x20 SWAP5 DUP6 ADD SWAP5 ADD PUSH2 0x22CB JUMP JUMPDEST POP SWAP7 SWAP10 SWAP6 SWAP9 POP SWAP4 SWAP7 POP SWAP3 SWAP5 POP POP POP POP JUMP INVALID LOG2 PUSH5 0x6970667358 0x22 SLT KECCAK256 TIMESTAMP DIV 0xC PUSH15 0xC27189DBB1EB04066062BEA235410D 0xE 0xDB CREATE2 DUP6 0xE2 PUSH17 0xDE6CC022750FC764736F6C634300081B00 CALLER "},"methodIdentifiers":{"ALPHA_X()":"d1fb02a3","ALPHA_Y()":"6a5935a7","BASE_FIELD_SIZE()":"839a60d0","BETA_X1()":"dc05a822","BETA_X2()":"7fdf8fc1","BETA_Y1()":"dd924b47","BETA_Y2()":"1c4d4406","DELTA_X1()":"d70a63cc","DELTA_X2()":"f7a65aae","DELTA_Y1()":"b936325c","DELTA_Y2()":"cc9c92ae","GAMMA_X1()":"901660c4","GAMMA_X2()":"dfcf46f0","GAMMA_Y1()":"3a9e6a4d","GAMMA_Y2()":"acb41936","IC0_X()":"6336ec6c","IC0_Y()":"742797c4","IC10_X()":"11fbfe66","IC10_Y()":"e848dd6f","IC11_X()":"39637503","IC11_Y()":"73354b60","IC12_X()":"a127ed86","IC12_Y()":"ba688175","IC13_X()":"36b397dc","IC13_Y()":"1077f544","IC14_X()":"d8c710e0","IC14_Y()":"e834dbdd","IC15_X()":"4b750a92","IC15_Y()":"30c1731c","IC16_X()":"e11e8ee2","IC16_Y()":"32148d47","IC17_X()":"286f014b","IC17_Y()":"2d527448","IC18_X()":"45ce05a8","IC18_Y()":"d0fdd6af","IC19_X()":"59b396b5","IC19_Y()":"6076d7ed","IC1_X()":"d663b365","IC1_Y()":"a1978c3c","IC20_X()":"02020654","IC20_Y()":"5bf9f093","IC21_X()":"d7aa472a","IC21_Y()":"4e528e9f","IC22_X()":"0c99ab7c","IC22_Y()":"924f0a15","IC23_X()":"0de199a5","IC23_Y()":"08cceecf","IC24_X()":"eb38888b","IC24_Y()":"eeb9f2e4","IC25_X()":"c4c642ef","IC25_Y()":"ac6f103e","IC26_X()":"96836826","IC26_Y()":"63d2f168","IC27_X()":"0d486688","IC27_Y()":"e6626606","IC28_X()":"85b195eb","IC28_Y()":"55061a7a","IC29_X()":"970e6037","IC29_Y()":"5c01e537","IC2_X()":"dce42004","IC2_Y()":"0cbb35c3","IC30_X()":"6e8374dc","IC30_Y()":"34a18522","IC31_X()":"e5525759","IC31_Y()":"9c8b8ac5","IC32_X()":"61bb1795","IC32_Y()":"e1e7dabb","IC3_X()":"4234a1d6","IC3_Y()":"50def905","IC4_X()":"eedee58f","IC4_Y()":"4e890b27","IC5_X()":"898611fd","IC5_Y()":"24934a11","IC6_X()":"aed43349","IC6_Y()":"bf48189e","IC7_X()":"31aa5e26","IC7_Y()":"2c0556ed","IC8_X()":"41fe6a9a","IC8_Y()":"2dacca56","IC9_X()":"dacb4e69","IC9_Y()":"28e44695","P_TOTAL_SIZE()":"a6aca976","SCALAR_FIELD_SIZE()":"0ddec475","verifyProof(uint256[2],uint256[2][2],uint256[2],uint256[32])":"3cc08b24"}}}}}