{"contracts/verifiers/WithdrawCircuitGroth16Verifier.sol":{"WithdrawCircuitGroth16Verifier":{"abi":[{"inputs":[],"name":"ALPHA_X","outputs":[{"internalType":"uint256","name":"","type":"uint256"}],"stateMutability":"view","type":"function"},{"inputs":[],"name":"ALPHA_Y","outputs":[{"internalType":"uint256","name":"","type":"uint256"}],"stateMutability":"view","type":"function"},{"inputs":[],"name":"BASE_FIELD_SIZE","outputs":[{"internalType":"uint256","name":"","type":"uint256"}],"stateMutability":"view","type":"function"},{"inputs":[],"name":"BETA_X1","outputs":[{"internalType":"uint256","name":"","type":"uint256"}],"stateMutability":"view","type":"function"},{"inputs":[],"name":"BETA_X2","outputs":[{"internalType":"uint256","name":"","type":"uint256"}],"stateMutability":"view","type":"function"},{"inputs":[],"name":"BETA_Y1","outputs":[{"internalType":"uint256","name":"","type":"uint256"}],"stateMutability":"view","type":"function"},{"inputs":[],"name":"BETA_Y2","outputs":[{"internalType":"uint256","name":"","type":"uint256"}],"stateMutability":"view","type":"function"},{"inputs":[],"name":"DELTA_X1","outputs":[{"internalType":"uint256","name":"","type":"uint256"}],"stateMutability":"view","type":"function"},{"inputs":[],"name":"DELTA_X2","outputs":[{"internalType":"uint256","name":"","type":"uint256"}],"stateMutability":"view","type":"function"},{"inputs":[],"name":"DELTA_Y1","outputs":[{"internalType":"uint256","name":"","type":"uint256"}],"stateMutability":"view","type":"function"},{"inputs":[],"name":"DELTA_Y2","outputs":[{"internalType":"uint256","name":"","type":"uint256"}],"stateMutability":"view","type":"function"},{"inputs":[],"name":"GAMMA_X1","outputs":[{"internalType":"uint256","name":"","type":"uint256"}],"stateMutability":"view","type":"function"},{"inputs":[],"name":"GAMMA_X2","outputs":[{"internalType":"uint256","name":"","type":"uint256"}],"stateMutability":"view","type":"function"},{"inputs":[],"name":"GAMMA_Y1","outputs":[{"internalType":"uint256","name":"","type":"uint256"}],"stateMutability":"view","type":"function"},{"inputs":[],"name":"GAMMA_Y2","outputs":[{"internalType":"uint256","name":"","type":"uint256"}],"stateMutability":"view","type":"function"},{"inputs":[],"name":"IC0_X","outputs":[{"internalType":"uint256","name":"","type":"uint256"}],"stateMutability":"view","type":"function"},{"inputs":[],"name":"IC0_Y","outputs":[{"internalType":"uint256","name":"","type":"uint256"}],"stateMutability":"view","type":"function"},{"inputs":[],"name":"IC10_X","outputs":[{"internalType":"uint256","name":"","type":"uint256"}],"stateMutability":"view","type":"function"},{"inputs":[],"name":"IC10_Y","outputs":[{"internalType":"uint256","name":"","type":"uint256"}],"stateMutability":"view","type":"function"},{"inputs":[],"name":"IC11_X","outputs":[{"internalType":"uint256","name":"","type":"uint256"}],"stateMutability":"view","type":"function"},{"inputs":[],"name":"IC11_Y","outputs":[{"internalType":"uint256","name":"","type":"uint256"}],"stateMutability":"view","type":"function"},{"inputs":[],"name":"IC12_X","outputs":[{"internalType":"uint256","name":"","type":"uint256"}],"stateMutability":"view","type":"function"},{"inputs":[],"name":"IC12_Y","outputs":[{"internalType":"uint256","name":"","type":"uint256"}],"stateMutability":"view","type":"function"},{"inputs":[],"name":"IC13_X","outputs":[{"internalType":"uint256","name":"","type":"uint256"}],"stateMutability":"view","type":"function"},{"inputs":[],"name":"IC13_Y","outputs":[{"internalType":"uint256","name":"","type":"uint256"}],"stateMutability":"view","type":"function"},{"inputs":[],"name":"IC14_X","outputs":[{"internalType":"uint256","name":"","type":"uint256"}],"stateMutability":"view","type":"function"},{"inputs":[],"name":"IC14_Y","outputs":[{"internalType":"uint256","name":"","type":"uint256"}],"stateMutability":"view","type":"function"},{"inputs":[],"name":"IC15_X","outputs":[{"internalType":"uint256","name":"","type":"uint256"}],"stateMutability":"view","type":"function"},{"inputs":[],"name":"IC15_Y","outputs":[{"internalType":"uint256","name":"","type":"uint256"}],"stateMutability":"view","type":"function"},{"inputs":[],"name":"IC16_X","outputs":[{"internalType":"uint256","name":"","type":"uint256"}],"stateMutability":"view","type":"function"},{"inputs":[],"name":"IC16_Y","outputs":[{"internalType":"uint256","name":"","type":"uint256"}],"stateMutability":"view","type":"function"},{"inputs":[],"name":"IC1_X","outputs":[{"internalType":"uint256","name":"","type":"uint256"}],"stateMutability":"view","type":"function"},{"inputs":[],"name":"IC1_Y","outputs":[{"internalType":"uint256","name":"","type":"uint256"}],"stateMutability":"view","type":"function"},{"inputs":[],"name":"IC2_X","outputs":[{"internalType":"uint256","name":"","type":"uint256"}],"stateMutability":"view","type":"function"},{"inputs":[],"name":"IC2_Y","outputs":[{"internalType":"uint256","name":"","type":"uint256"}],"stateMutability":"view","type":"function"},{"inputs":[],"name":"IC3_X","outputs":[{"internalType":"uint256","name":"","type":"uint256"}],"stateMutability":"view","type":"function"},{"inputs":[],"name":"IC3_Y","outputs":[{"internalType":"uint256","name":"","type":"uint256"}],"stateMutability":"view","type":"function"},{"inputs":[],"name":"IC4_X","outputs":[{"internalType":"uint256","name":"","type":"uint256"}],"stateMutability":"view","type":"function"},{"inputs":[],"name":"IC4_Y","outputs":[{"internalType":"uint256","name":"","type":"uint256"}],"stateMutability":"view","type":"function"},{"inputs":[],"name":"IC5_X","outputs":[{"internalType":"uint256","name":"","type":"uint256"}],"stateMutability":"view","type":"function"},{"inputs":[],"name":"IC5_Y","outputs":[{"internalType":"uint256","name":"","type":"uint256"}],"stateMutability":"view","type":"function"},{"inputs":[],"name":"IC6_X","outputs":[{"internalType":"uint256","name":"","type":"uint256"}],"stateMutability":"view","type":"function"},{"inputs":[],"name":"IC6_Y","outputs":[{"internalType":"uint256","name":"","type":"uint256"}],"stateMutability":"view","type":"function"},{"inputs":[],"name":"IC7_X","outputs":[{"internalType":"uint256","name":"","type":"uint256"}],"stateMutability":"view","type":"function"},{"inputs":[],"name":"IC7_Y","outputs":[{"internalType":"uint256","name":"","type":"uint256"}],"stateMutability":"view","type":"function"},{"inputs":[],"name":"IC8_X","outputs":[{"internalType":"uint256","name":"","type":"uint256"}],"stateMutability":"view","type":"function"},{"inputs":[],"name":"IC8_Y","outputs":[{"internalType":"uint256","name":"","type":"uint256"}],"stateMutability":"view","type":"function"},{"inputs":[],"name":"IC9_X","outputs":[{"internalType":"uint256","name":"","type":"uint256"}],"stateMutability":"view","type":"function"},{"inputs":[],"name":"IC9_Y","outputs":[{"internalType":"uint256","name":"","type":"uint256"}],"stateMutability":"view","type":"function"},{"inputs":[],"name":"P_TOTAL_SIZE","outputs":[{"internalType":"uint256","name":"","type":"uint256"}],"stateMutability":"view","type":"function"},{"inputs":[],"name":"SCALAR_FIELD_SIZE","outputs":[{"internalType":"uint256","name":"","type":"uint256"}],"stateMutability":"view","type":"function"},{"inputs":[{"internalType":"uint256[2]","name":"pointA_","type":"uint256[2]"},{"internalType":"uint256[2][2]","name":"pointB_","type":"uint256[2][2]"},{"internalType":"uint256[2]","name":"pointC_","type":"uint256[2]"},{"internalType":"uint256[16]","name":"publicSignals_","type":"uint256[16]"}],"name":"verifyProof","outputs":[{"internalType":"bool","name":"verified_","type":"bool"}],"stateMutability":"view","type":"function"}],"evm":{"bytecode":{"linkReferences":{},"object":"6080604052348015600f57600080fd5b506116328061001f6000396000f3fe608060405234801561001057600080fd5b506004361061030c5760003560e01c8063898611fd1161019d578063d663b365116100e9578063dd924b47116100a2578063e834dbdd1161007c578063e834dbdd146109db578063e848dd6f14610a02578063eedee58f14610a29578063f7a65aae1461098d57600080fd5b8063dd924b4714610966578063dfcf46f01461098d578063e11e8ee2146109b457600080fd5b8063d663b365146108a4578063d70a63cc14610740578063d8c710e0146108ca578063dacb4e69146108f1578063dc05a82214610918578063dce420041461093f57600080fd5b8063aed4334911610156578063bf48189e11610130578063bf48189e14610833578063c82febf51461085a578063cc9c92ae146107be578063d1fb02a31461087d57600080fd5b8063aed43349146107e5578063b936325c14610545578063ba6881751461080c57600080fd5b8063898611fd14610719578063901660c414610740578063a127ed8614610767578063a1978c3c1461078e578063a6aca976146107b5578063acb41936146107be57600080fd5b8063396375031161025c57806350def9051161021557806373354b60116101ef57806373354b601461067d578063742797c4146106a45780637fdf8fc1146106cb578063839a60d0146106f257600080fd5b806350def905146106085780636336ec6c1461062f5780636a5935a71461065657600080fd5b8063396375031461051e5780633a9e6a4d1461054557806341fe6a9a1461056c5780634234a1d6146105935780634b750a92146105ba5780634e890b27146105e157600080fd5b806328e44695116102c957806330c1731c116102a357806330c1731c1461048257806331aa5e26146104a957806332148d47146104d057806336b397dc146104f757600080fd5b806328e446951461040d5780632c0556ed146104345780632dacca561461045b57600080fd5b80630cbb35c3146103115780630ddec4751461034a5780631077f5441461037157806311fbfe66146103985780631c4d4406146103bf57806324934a11146103e6575b600080fd5b6103377e5445b71e11eb1760648665444e84d53f00e776b1a53692d89e3ad636c961f081565b6040519081526020015b60405180910390f35b6103377f30644e72e131a029b85045b68181585d2833e84879b9709143e1f593f000000181565b6103377f0f7c71d134f047ee686698cc879af130a64c9327f8d19a87f701071f6160358e81565b6103377f04fd0a7e5fb1e2c1a3502a54598d5411094a25df1f8151b4a4a6cd46d75cda5281565b6103377f1739c1b1a457a8c7313123d24d2f9192f896b7c63eea05a9d57f06547ad0cec881565b6103377f166be3e7ffc1338b4f76b0ecfd8697adb42fcba2699e3d10bc1d67380691436381565b6103377f1b7ffb4297c03c264229b1b70e3188815aa5d87fea283b06aaa94a7c7d96e5da81565b6103377f22a2e8ceea831d3b69922bc6a7cfe0c0b3349fc348409e3ec96dfe0f292c7a0381565b6103377f0fad452e46b04b5d3072128015cbc241a25bb1b64ef033b92141322a26a8e47781565b6103377f3017ad59e224a25d0deae3f2ef3c74e84f45858732655bc5fc86a430104f171c81565b6103377f059e5c8441d29cd77c3fc88b153363291a342db978c123c4d7f6da2d5f8b4f5281565b6103377f0b7299dfd52bdd8cfa440eb2ec79a60602171629d18bcc44676889362f401e0881565b6103377f241e5d0148d1b856c89e23d322842768e44bcbe5ad3fca28aa4e26604a12552081565b6103377f0ba59a6709f24a24088ad57ba9d35fe709f7db0f398ec3a8fc025a03a9b52cac81565b6103377f090689d0585ff075ec9e99ad690c3395bc4b313370b38ef355acdadcd122975b81565b6103377f2aeb2405739b7d4c087a2998509917ed48f4beb7b903f6a83fc49cec8a1abaf081565b6103377f2261505579b4329587bcba9471ed53522dbc50dc358c553ad32beeaa66b39ba581565b6103377f2304bee62953e41673c605de75342266256b393afcd33f7f94587c6b3da23c5b81565b6103377f01a1241b2b7c8e021ec2ca418241b12d99dd464e893833c8053e009606b72a7481565b6103377f2a45c054cb0cd067189c5b09b02d70caf88baf4b815f272c4aab4816280c42ca81565b6103377f19cbdf12f27ae4101630a191d5516b265fb37d09894aab07945a96068b09163581565b6103377f14bedd503c37ceb061d8ec60209fe345ce89830a19230301f076caff004d192681565b6103377f1f0c638c431f62e21b5fccd531c6fca3a838f20edce1c5722dddcbf3060ab26881565b6103377f1c5d9874cafe50e921fa3289fef4ba53731282473400d1b360d3ac3b0c864a9381565b6103377f0e187847ad4c798374d0d6732bf501847dd68bc0e071241e0213bc7fc13db7ab81565b6103377f30644e72e131a029b85045b68181585d97816a916871ca8d3c208c16d87cfd4781565b6103377f2b8156d06d6d6f9f47b40fe5e375e1560a785c81cedcf5536bda3a454ac40aeb81565b6103377f198e9393920d483a7260bfb731fb5d25f1aa493335a9e71297e485b7aef312c281565b6103377f04c39df1d7bc9b3ac0fbec576aab2e76c92a90ea86cb33efa03f9aa48ac9d70181565b6103377f2d1d756b93aefb8d9c261e31b476172db4eb7d946f7c1b1a8c0e759d2a586eed81565b61033761030081565b6103377f12c85ea5db8c6deb4aab71808dcb408fe3d1e7690c43d37b4ce6cc0166fa7daa81565b6103377f2732ad7092ca8221424730475c80882b9619fca38cacbe9110be6bbe356e063281565b6103377f2e83fb0b2a4d6621c47484c28bb783a9825087358d2d5789ecb105de4fd50b3981565b6103377f2f73bf3901da46b4c69a96e5726ce5a4532dcd0cb7e3e17239081c88008153cc81565b61086d610868366004611517565b610a50565b6040519015158152602001610341565b6103377f2d4d9aa7e302d9df41749d5507949d05dbea33fbb16c643b22f599a2be6df2e281565b6103377e455cdaa42ba428501f946e125a4d715c369f3a3d5b9cd38e5d74e47375be9a81565b6103377f109a911e190ffd6e63fcea6dd4c93f0986cbee339ebd65add2d9b3306412c49681565b6103377f01852e42dc9e52e1a82f020a1dacbc29fa2381bbcc4090550cb7266ee613669481565b6103377f0967032fcbf776d1afc985f88877f182d38480a653f2decaa9794cbc3bf3060c81565b6103377f18159475473052b89eb5ef006c22ba46c75a03e456d6928cff93947c3088d03581565b6103377f304cfbd1e08a704a99f5e847d93f8c3caafddec46b7a0d379da69a4d112346a781565b6103377f1800deef121f1e76426a00665e5c4479674322d4f75edadd46debd5cd992f6ed81565b6103377f12c373462c5c91e08b630200b4f2a5b3078dc4c4f97237d777eb71639fd9cc2c81565b6103377f0f015ced5ad9da41a54b45ffcc8850e5f9cbebb9dcbd47f0156734a387346f8d81565b6103377f20e0c374745c0db37a325fbf075c174034ffc6704f5d08b8064bb134249062a481565b6103377f1a8637d404b321e45cbdd810f5cad24dcf08ade192498e8b84c0163c95097cd681565b600061133a565b7f30644e72e131a029b85045b68181585d2833e84879b9709143e1f593f00000011190565b816040820152826060820152836080820152600060408083016060604085016007611770fa3d15151690508015610abf5760408260808460066096fa3d15151690505b949350505050565b7f19cbdf12f27ae4101630a191d5516b265fb37d09894aab07945a96068b09163585527f1c5d9874cafe50e921fa3289fef4ba53731282473400d1b360d3ac3b0c864a9360208601526000610b6160008601517f2d1d756b93aefb8d9c261e31b476172db4eb7d946f7c1b1a8c0e759d2a586eed7e455cdaa42ba428501f946e125a4d715c369f3a3d5b9cd38e5d74e47375be9a89610a7c565b1561133157610bb560208601517e5445b71e11eb1760648665444e84d53f00e776b1a53692d89e3ad636c961f07f18159475473052b89eb5ef006c22ba46c75a03e456d6928cff93947c3088d03589610a7c565b1561133157610c0a60408601517f2a45c054cb0cd067189c5b09b02d70caf88baf4b815f272c4aab4816280c42ca7f2261505579b4329587bcba9471ed53522dbc50dc358c553ad32beeaa66b39ba589610a7c565b1561133157610c5f60608601517f01a1241b2b7c8e021ec2ca418241b12d99dd464e893833c8053e009606b72a747f1a8637d404b321e45cbdd810f5cad24dcf08ade192498e8b84c0163c95097cd689610a7c565b1561133157610cb460808601517f166be3e7ffc1338b4f76b0ecfd8697adb42fcba2699e3d10bc1d6738069143637f2b8156d06d6d6f9f47b40fe5e375e1560a785c81cedcf5536bda3a454ac40aeb89610a7c565b1561133157610d0960a08601517f2f73bf3901da46b4c69a96e5726ce5a4532dcd0cb7e3e17239081c88008153cc7f2732ad7092ca8221424730475c80882b9619fca38cacbe9110be6bbe356e063289610a7c565b1561133157610d5e60c08601517f22a2e8ceea831d3b69922bc6a7cfe0c0b3349fc348409e3ec96dfe0f292c7a037f059e5c8441d29cd77c3fc88b153363291a342db978c123c4d7f6da2d5f8b4f5289610a7c565b1561133157610db360e08601517f0fad452e46b04b5d3072128015cbc241a25bb1b64ef033b92141322a26a8e4777f2aeb2405739b7d4c087a2998509917ed48f4beb7b903f6a83fc49cec8a1abaf089610a7c565b1561133157610e096101008601517f1b7ffb4297c03c264229b1b70e3188815aa5d87fea283b06aaa94a7c7d96e5da7f01852e42dc9e52e1a82f020a1dacbc29fa2381bbcc4090550cb7266ee613669489610a7c565b1561133157610e5f6101208601517f20e0c374745c0db37a325fbf075c174034ffc6704f5d08b8064bb134249062a47f04fd0a7e5fb1e2c1a3502a54598d5411094a25df1f8151b4a4a6cd46d75cda5289610a7c565b1561133157610eb56101408601517f1f0c638c431f62e21b5fccd531c6fca3a838f20edce1c5722dddcbf3060ab2687f0ba59a6709f24a24088ad57ba9d35fe709f7db0f398ec3a8fc025a03a9b52cac89610a7c565b1561133157610f0b6101608601517f2e83fb0b2a4d6621c47484c28bb783a9825087358d2d5789ecb105de4fd50b397f04c39df1d7bc9b3ac0fbec576aab2e76c92a90ea86cb33efa03f9aa48ac9d70189610a7c565b1561133157610f616101808601517f0f7c71d134f047ee686698cc879af130a64c9327f8d19a87f701071f6160358e7f241e5d0148d1b856c89e23d322842768e44bcbe5ad3fca28aa4e26604a12552089610a7c565b1561133157610fb76101a08601517f0f015ced5ad9da41a54b45ffcc8850e5f9cbebb9dcbd47f0156734a387346f8d7f109a911e190ffd6e63fcea6dd4c93f0986cbee339ebd65add2d9b3306412c49689610a7c565b156113315761100d6101c08601517f3017ad59e224a25d0deae3f2ef3c74e84f45858732655bc5fc86a430104f171c7f2304bee62953e41673c605de75342266256b393afcd33f7f94587c6b3da23c5b89610a7c565b15611331576110636101e08601517f0b7299dfd52bdd8cfa440eb2ec79a60602171629d18bcc44676889362f401e087f12c373462c5c91e08b630200b4f2a5b3078dc4c4f97237d777eb71639fd9cc2c89610a7c565b15611331577f198e9393920d483a7260bfb731fb5d25f1aa493335a9e71297e485b7aef312c260408701527f1800deef121f1e76426a00665e5c4479674322d4f75edadd46debd5cd992f6ed60608701527f090689d0585ff075ec9e99ad690c3395bc4b313370b38ef355acdadcd122975b60808701527f12c85ea5db8c6deb4aab71808dcb408fe3d1e7690c43d37b4ce6cc0166fa7daa60a0870152815160c08701527f30644e72e131a029b85045b68181585d97816a916871ca8d3c208c16d87cfd4760208301517f30644e72e131a029b85045b68181585d97816a916871ca8d3c208c16d87cfd47030660e087015282515161010087015260208351015161012087015260208301515161014087015260208084015101516101608701527f2d4d9aa7e302d9df41749d5507949d05dbea33fbb16c643b22f599a2be6df2e26101808701527f14bedd503c37ceb061d8ec60209fe345ce89830a19230301f076caff004d19266101a08701527f0967032fcbf776d1afc985f88877f182d38480a653f2decaa9794cbc3bf3060c6101c08701527f0e187847ad4c798374d0d6732bf501847dd68bc0e071241e0213bc7fc13db7ab6101e08701527f304cfbd1e08a704a99f5e847d93f8c3caafddec46b7a0d379da69a4d112346a76102008701527f1739c1b1a457a8c7313123d24d2f9192f896b7c63eea05a9d57f06547ad0cec8610220870152835161024087015260208401516102608701527f198e9393920d483a7260bfb731fb5d25f1aa493335a9e71297e485b7aef312c26102808701527f1800deef121f1e76426a00665e5c4479674322d4f75edadd46debd5cd992f6ed6102a08701527f090689d0585ff075ec9e99ad690c3395bc4b313370b38ef355acdadcd122975b6102c08701527f12c85ea5db8c6deb4aab71808dcb408fe3d1e7690c43d37b4ce6cc0166fa7daa6102e08701526020866103008860086202c308fa86511690505b95945050505050565b6040516103008101604052600191506113566000840151610a57565b821691506113676020840151610a57565b821691506113786040840151610a57565b821691506113896060840151610a57565b8216915061139a6080840151610a57565b821691506113ab60a0840151610a57565b821691506113bc60c0840151610a57565b821691506113cd60e0840151610a57565b821691506113df610100840151610a57565b821691506113f1610120840151610a57565b82169150611403610140840151610a57565b82169150611415610160840151610a57565b82169150611427610180840151610a57565b821691506114396101a0840151610a57565b8216915061144b6101c0840151610a57565b8216915061145d6101e0840151610a57565b821691508115191561147957611476818486888a610ac7565b91505b50949350505050565b604051601f8201601f1916810167ffffffffffffffff811182821017156114b957634e487b7160e01b600052604160045260246000fd5b604052919050565b600082601f8301126114d257600080fd5b60006114de6040611482565b90508060408401858111156114f257600080fd5b845b8181101561150c5780358352602092830192016114f4565b509195945050505050565b600080600080610300858703121561152e57600080fd5b61153886866114c1565b935085605f86011261154957600080fd5b604061155481611482565b8060c088018981111561156657600080fd5b8389015b8181101561158b5761157c8b826114c1565b8452602090930192840161156a565b508196506115998a826114c1565b9550505050506101008501600087601f8301126115b4578081fd5b806102006115c181611482565b91508301818a8211156115d2578384fd5b5b818510156115eb5784358152602094850194016115d3565b50969995985093965092945050505056fea264697066735822122094edf17b198f4ae5eaf640a16fd70603acd1c5dec1e00cd9d2d3ebf3f45b8fb164736f6c634300081b0033","opcodes":"PUSH1 0x80 PUSH1 0x40 MSTORE CALLVALUE DUP1 ISZERO PUSH1 0xF JUMPI PUSH1 0x0 DUP1 REVERT JUMPDEST POP PUSH2 0x1632 DUP1 PUSH2 0x1F PUSH1 0x0 CODECOPY PUSH1 0x0 RETURN INVALID PUSH1 0x80 PUSH1 0x40 MSTORE CALLVALUE DUP1 ISZERO PUSH2 0x10 JUMPI PUSH1 0x0 DUP1 REVERT JUMPDEST POP PUSH1 0x4 CALLDATASIZE LT PUSH2 0x30C JUMPI PUSH1 0x0 CALLDATALOAD PUSH1 0xE0 SHR DUP1 PUSH4 0x898611FD GT PUSH2 0x19D JUMPI DUP1 PUSH4 0xD663B365 GT PUSH2 0xE9 JUMPI DUP1 PUSH4 0xDD924B47 GT PUSH2 0xA2 JUMPI DUP1 PUSH4 0xE834DBDD GT PUSH2 0x7C JUMPI DUP1 PUSH4 0xE834DBDD EQ PUSH2 0x9DB JUMPI DUP1 PUSH4 0xE848DD6F EQ PUSH2 0xA02 JUMPI DUP1 PUSH4 0xEEDEE58F EQ PUSH2 0xA29 JUMPI DUP1 PUSH4 0xF7A65AAE EQ PUSH2 0x98D JUMPI PUSH1 0x0 DUP1 REVERT JUMPDEST DUP1 PUSH4 0xDD924B47 EQ PUSH2 0x966 JUMPI DUP1 PUSH4 0xDFCF46F0 EQ PUSH2 0x98D JUMPI DUP1 PUSH4 0xE11E8EE2 EQ PUSH2 0x9B4 JUMPI PUSH1 0x0 DUP1 REVERT JUMPDEST DUP1 PUSH4 0xD663B365 EQ PUSH2 0x8A4 JUMPI DUP1 PUSH4 0xD70A63CC EQ PUSH2 0x740 JUMPI DUP1 PUSH4 0xD8C710E0 EQ PUSH2 0x8CA JUMPI DUP1 PUSH4 0xDACB4E69 EQ PUSH2 0x8F1 JUMPI DUP1 PUSH4 0xDC05A822 EQ PUSH2 0x918 JUMPI DUP1 PUSH4 0xDCE42004 EQ PUSH2 0x93F JUMPI PUSH1 0x0 DUP1 REVERT JUMPDEST DUP1 PUSH4 0xAED43349 GT PUSH2 0x156 JUMPI DUP1 PUSH4 0xBF48189E GT PUSH2 0x130 JUMPI DUP1 PUSH4 0xBF48189E EQ PUSH2 0x833 JUMPI DUP1 PUSH4 0xC82FEBF5 EQ PUSH2 0x85A JUMPI DUP1 PUSH4 0xCC9C92AE EQ PUSH2 0x7BE JUMPI DUP1 PUSH4 0xD1FB02A3 EQ PUSH2 0x87D JUMPI PUSH1 0x0 DUP1 REVERT JUMPDEST DUP1 PUSH4 0xAED43349 EQ PUSH2 0x7E5 JUMPI DUP1 PUSH4 0xB936325C EQ PUSH2 0x545 JUMPI DUP1 PUSH4 0xBA688175 EQ PUSH2 0x80C JUMPI PUSH1 0x0 DUP1 REVERT JUMPDEST DUP1 PUSH4 0x898611FD EQ PUSH2 0x719 JUMPI DUP1 PUSH4 0x901660C4 EQ PUSH2 0x740 JUMPI DUP1 PUSH4 0xA127ED86 EQ PUSH2 0x767 JUMPI DUP1 PUSH4 0xA1978C3C EQ PUSH2 0x78E JUMPI DUP1 PUSH4 0xA6ACA976 EQ PUSH2 0x7B5 JUMPI DUP1 PUSH4 0xACB41936 EQ PUSH2 0x7BE JUMPI PUSH1 0x0 DUP1 REVERT JUMPDEST DUP1 PUSH4 0x39637503 GT PUSH2 0x25C JUMPI DUP1 PUSH4 0x50DEF905 GT PUSH2 0x215 JUMPI DUP1 PUSH4 0x73354B60 GT PUSH2 0x1EF JUMPI DUP1 PUSH4 0x73354B60 EQ PUSH2 0x67D JUMPI DUP1 PUSH4 0x742797C4 EQ PUSH2 0x6A4 JUMPI DUP1 PUSH4 0x7FDF8FC1 EQ PUSH2 0x6CB JUMPI DUP1 PUSH4 0x839A60D0 EQ PUSH2 0x6F2 JUMPI PUSH1 0x0 DUP1 REVERT JUMPDEST DUP1 PUSH4 0x50DEF905 EQ PUSH2 0x608 JUMPI DUP1 PUSH4 0x6336EC6C EQ PUSH2 0x62F JUMPI DUP1 PUSH4 0x6A5935A7 EQ PUSH2 0x656 JUMPI PUSH1 0x0 DUP1 REVERT JUMPDEST DUP1 PUSH4 0x39637503 EQ PUSH2 0x51E JUMPI DUP1 PUSH4 0x3A9E6A4D EQ PUSH2 0x545 JUMPI DUP1 PUSH4 0x41FE6A9A EQ PUSH2 0x56C JUMPI DUP1 PUSH4 0x4234A1D6 EQ PUSH2 0x593 JUMPI DUP1 PUSH4 0x4B750A92 EQ PUSH2 0x5BA JUMPI DUP1 PUSH4 0x4E890B27 EQ PUSH2 0x5E1 JUMPI PUSH1 0x0 DUP1 REVERT JUMPDEST DUP1 PUSH4 0x28E44695 GT PUSH2 0x2C9 JUMPI DUP1 PUSH4 0x30C1731C GT PUSH2 0x2A3 JUMPI DUP1 PUSH4 0x30C1731C EQ PUSH2 0x482 JUMPI DUP1 PUSH4 0x31AA5E26 EQ PUSH2 0x4A9 JUMPI DUP1 PUSH4 0x32148D47 EQ PUSH2 0x4D0 JUMPI DUP1 PUSH4 0x36B397DC EQ PUSH2 0x4F7 JUMPI PUSH1 0x0 DUP1 REVERT JUMPDEST DUP1 PUSH4 0x28E44695 EQ PUSH2 0x40D JUMPI DUP1 PUSH4 0x2C0556ED EQ PUSH2 0x434 JUMPI DUP1 PUSH4 0x2DACCA56 EQ PUSH2 0x45B JUMPI PUSH1 0x0 DUP1 REVERT JUMPDEST DUP1 PUSH4 0xCBB35C3 EQ PUSH2 0x311 JUMPI DUP1 PUSH4 0xDDEC475 EQ PUSH2 0x34A JUMPI DUP1 PUSH4 0x1077F544 EQ PUSH2 0x371 JUMPI DUP1 PUSH4 0x11FBFE66 EQ PUSH2 0x398 JUMPI DUP1 PUSH4 0x1C4D4406 EQ PUSH2 0x3BF JUMPI DUP1 PUSH4 0x24934A11 EQ PUSH2 0x3E6 JUMPI JUMPDEST PUSH1 0x0 DUP1 REVERT JUMPDEST PUSH2 0x337 PUSH31 0x5445B71E11EB1760648665444E84D53F00E776B1A53692D89E3AD636C961F0 DUP2 JUMP JUMPDEST PUSH1 0x40 MLOAD SWAP1 DUP2 MSTORE PUSH1 0x20 ADD JUMPDEST PUSH1 0x40 MLOAD DUP1 SWAP2 SUB SWAP1 RETURN JUMPDEST PUSH2 0x337 PUSH32 0x30644E72E131A029B85045B68181585D2833E84879B9709143E1F593F0000001 DUP2 JUMP JUMPDEST PUSH2 0x337 PUSH32 0xF7C71D134F047EE686698CC879AF130A64C9327F8D19A87F701071F6160358E DUP2 JUMP JUMPDEST PUSH2 0x337 PUSH32 0x4FD0A7E5FB1E2C1A3502A54598D5411094A25DF1F8151B4A4A6CD46D75CDA52 DUP2 JUMP JUMPDEST PUSH2 0x337 PUSH32 0x1739C1B1A457A8C7313123D24D2F9192F896B7C63EEA05A9D57F06547AD0CEC8 DUP2 JUMP JUMPDEST PUSH2 0x337 PUSH32 0x166BE3E7FFC1338B4F76B0ECFD8697ADB42FCBA2699E3D10BC1D673806914363 DUP2 JUMP JUMPDEST PUSH2 0x337 PUSH32 0x1B7FFB4297C03C264229B1B70E3188815AA5D87FEA283B06AAA94A7C7D96E5DA DUP2 JUMP JUMPDEST PUSH2 0x337 PUSH32 0x22A2E8CEEA831D3B69922BC6A7CFE0C0B3349FC348409E3EC96DFE0F292C7A03 DUP2 JUMP JUMPDEST PUSH2 0x337 PUSH32 0xFAD452E46B04B5D3072128015CBC241A25BB1B64EF033B92141322A26A8E477 DUP2 JUMP JUMPDEST PUSH2 0x337 PUSH32 0x3017AD59E224A25D0DEAE3F2EF3C74E84F45858732655BC5FC86A430104F171C DUP2 JUMP JUMPDEST PUSH2 0x337 PUSH32 0x59E5C8441D29CD77C3FC88B153363291A342DB978C123C4D7F6DA2D5F8B4F52 DUP2 JUMP JUMPDEST PUSH2 0x337 PUSH32 0xB7299DFD52BDD8CFA440EB2EC79A60602171629D18BCC44676889362F401E08 DUP2 JUMP JUMPDEST PUSH2 0x337 PUSH32 0x241E5D0148D1B856C89E23D322842768E44BCBE5AD3FCA28AA4E26604A125520 DUP2 JUMP JUMPDEST PUSH2 0x337 PUSH32 0xBA59A6709F24A24088AD57BA9D35FE709F7DB0F398EC3A8FC025A03A9B52CAC DUP2 JUMP JUMPDEST PUSH2 0x337 PUSH32 0x90689D0585FF075EC9E99AD690C3395BC4B313370B38EF355ACDADCD122975B DUP2 JUMP JUMPDEST PUSH2 0x337 PUSH32 0x2AEB2405739B7D4C087A2998509917ED48F4BEB7B903F6A83FC49CEC8A1ABAF0 DUP2 JUMP JUMPDEST PUSH2 0x337 PUSH32 0x2261505579B4329587BCBA9471ED53522DBC50DC358C553AD32BEEAA66B39BA5 DUP2 JUMP JUMPDEST PUSH2 0x337 PUSH32 0x2304BEE62953E41673C605DE75342266256B393AFCD33F7F94587C6B3DA23C5B DUP2 JUMP JUMPDEST PUSH2 0x337 PUSH32 0x1A1241B2B7C8E021EC2CA418241B12D99DD464E893833C8053E009606B72A74 DUP2 JUMP JUMPDEST PUSH2 0x337 PUSH32 0x2A45C054CB0CD067189C5B09B02D70CAF88BAF4B815F272C4AAB4816280C42CA DUP2 JUMP JUMPDEST PUSH2 0x337 PUSH32 0x19CBDF12F27AE4101630A191D5516B265FB37D09894AAB07945A96068B091635 DUP2 JUMP JUMPDEST PUSH2 0x337 PUSH32 0x14BEDD503C37CEB061D8EC60209FE345CE89830A19230301F076CAFF004D1926 DUP2 JUMP JUMPDEST PUSH2 0x337 PUSH32 0x1F0C638C431F62E21B5FCCD531C6FCA3A838F20EDCE1C5722DDDCBF3060AB268 DUP2 JUMP JUMPDEST PUSH2 0x337 PUSH32 0x1C5D9874CAFE50E921FA3289FEF4BA53731282473400D1B360D3AC3B0C864A93 DUP2 JUMP JUMPDEST PUSH2 0x337 PUSH32 0xE187847AD4C798374D0D6732BF501847DD68BC0E071241E0213BC7FC13DB7AB DUP2 JUMP JUMPDEST PUSH2 0x337 PUSH32 0x30644E72E131A029B85045B68181585D97816A916871CA8D3C208C16D87CFD47 DUP2 JUMP JUMPDEST PUSH2 0x337 PUSH32 0x2B8156D06D6D6F9F47B40FE5E375E1560A785C81CEDCF5536BDA3A454AC40AEB DUP2 JUMP JUMPDEST PUSH2 0x337 PUSH32 0x198E9393920D483A7260BFB731FB5D25F1AA493335A9E71297E485B7AEF312C2 DUP2 JUMP JUMPDEST PUSH2 0x337 PUSH32 0x4C39DF1D7BC9B3AC0FBEC576AAB2E76C92A90EA86CB33EFA03F9AA48AC9D701 DUP2 JUMP JUMPDEST PUSH2 0x337 PUSH32 0x2D1D756B93AEFB8D9C261E31B476172DB4EB7D946F7C1B1A8C0E759D2A586EED DUP2 JUMP JUMPDEST PUSH2 0x337 PUSH2 0x300 DUP2 JUMP JUMPDEST PUSH2 0x337 PUSH32 0x12C85EA5DB8C6DEB4AAB71808DCB408FE3D1E7690C43D37B4CE6CC0166FA7DAA DUP2 JUMP JUMPDEST PUSH2 0x337 PUSH32 0x2732AD7092CA8221424730475C80882B9619FCA38CACBE9110BE6BBE356E0632 DUP2 JUMP JUMPDEST PUSH2 0x337 PUSH32 0x2E83FB0B2A4D6621C47484C28BB783A9825087358D2D5789ECB105DE4FD50B39 DUP2 JUMP JUMPDEST PUSH2 0x337 PUSH32 0x2F73BF3901DA46B4C69A96E5726CE5A4532DCD0CB7E3E17239081C88008153CC DUP2 JUMP JUMPDEST PUSH2 0x86D PUSH2 0x868 CALLDATASIZE PUSH1 0x4 PUSH2 0x1517 JUMP JUMPDEST PUSH2 0xA50 JUMP JUMPDEST PUSH1 0x40 MLOAD SWAP1 ISZERO ISZERO DUP2 MSTORE PUSH1 0x20 ADD PUSH2 0x341 JUMP JUMPDEST PUSH2 0x337 PUSH32 0x2D4D9AA7E302D9DF41749D5507949D05DBEA33FBB16C643B22F599A2BE6DF2E2 DUP2 JUMP JUMPDEST PUSH2 0x337 PUSH31 0x455CDAA42BA428501F946E125A4D715C369F3A3D5B9CD38E5D74E47375BE9A DUP2 JUMP JUMPDEST PUSH2 0x337 PUSH32 0x109A911E190FFD6E63FCEA6DD4C93F0986CBEE339EBD65ADD2D9B3306412C496 DUP2 JUMP JUMPDEST PUSH2 0x337 PUSH32 0x1852E42DC9E52E1A82F020A1DACBC29FA2381BBCC4090550CB7266EE6136694 DUP2 JUMP JUMPDEST PUSH2 0x337 PUSH32 0x967032FCBF776D1AFC985F88877F182D38480A653F2DECAA9794CBC3BF3060C DUP2 JUMP JUMPDEST PUSH2 0x337 PUSH32 0x18159475473052B89EB5EF006C22BA46C75A03E456D6928CFF93947C3088D035 DUP2 JUMP JUMPDEST PUSH2 0x337 PUSH32 0x304CFBD1E08A704A99F5E847D93F8C3CAAFDDEC46B7A0D379DA69A4D112346A7 DUP2 JUMP JUMPDEST PUSH2 0x337 PUSH32 0x1800DEEF121F1E76426A00665E5C4479674322D4F75EDADD46DEBD5CD992F6ED DUP2 JUMP JUMPDEST PUSH2 0x337 PUSH32 0x12C373462C5C91E08B630200B4F2A5B3078DC4C4F97237D777EB71639FD9CC2C DUP2 JUMP JUMPDEST PUSH2 0x337 PUSH32 0xF015CED5AD9DA41A54B45FFCC8850E5F9CBEBB9DCBD47F0156734A387346F8D DUP2 JUMP JUMPDEST PUSH2 0x337 PUSH32 0x20E0C374745C0DB37A325FBF075C174034FFC6704F5D08B8064BB134249062A4 DUP2 JUMP JUMPDEST PUSH2 0x337 PUSH32 0x1A8637D404B321E45CBDD810F5CAD24DCF08ADE192498E8B84C0163C95097CD6 DUP2 JUMP JUMPDEST PUSH1 0x0 PUSH2 0x133A JUMP JUMPDEST PUSH32 0x30644E72E131A029B85045B68181585D2833E84879B9709143E1F593F0000001 GT SWAP1 JUMP JUMPDEST DUP2 PUSH1 0x40 DUP3 ADD MSTORE DUP3 PUSH1 0x60 DUP3 ADD MSTORE DUP4 PUSH1 0x80 DUP3 ADD MSTORE PUSH1 0x0 PUSH1 0x40 DUP1 DUP4 ADD PUSH1 0x60 PUSH1 0x40 DUP6 ADD PUSH1 0x7 PUSH2 0x1770 STATICCALL RETURNDATASIZE ISZERO ISZERO AND SWAP1 POP DUP1 ISZERO PUSH2 0xABF JUMPI PUSH1 0x40 DUP3 PUSH1 0x80 DUP5 PUSH1 0x6 PUSH1 0x96 STATICCALL RETURNDATASIZE ISZERO ISZERO AND SWAP1 POP JUMPDEST SWAP5 SWAP4 POP POP POP POP JUMP JUMPDEST PUSH32 0x19CBDF12F27AE4101630A191D5516B265FB37D09894AAB07945A96068B091635 DUP6 MSTORE PUSH32 0x1C5D9874CAFE50E921FA3289FEF4BA53731282473400D1B360D3AC3B0C864A93 PUSH1 0x20 DUP7 ADD MSTORE PUSH1 0x0 PUSH2 0xB61 PUSH1 0x0 DUP7 ADD MLOAD PUSH32 0x2D1D756B93AEFB8D9C261E31B476172DB4EB7D946F7C1B1A8C0E759D2A586EED PUSH31 0x455CDAA42BA428501F946E125A4D715C369F3A3D5B9CD38E5D74E47375BE9A DUP10 PUSH2 0xA7C JUMP JUMPDEST ISZERO PUSH2 0x1331 JUMPI PUSH2 0xBB5 PUSH1 0x20 DUP7 ADD MLOAD PUSH31 0x5445B71E11EB1760648665444E84D53F00E776B1A53692D89E3AD636C961F0 PUSH32 0x18159475473052B89EB5EF006C22BA46C75A03E456D6928CFF93947C3088D035 DUP10 PUSH2 0xA7C JUMP JUMPDEST ISZERO PUSH2 0x1331 JUMPI PUSH2 0xC0A PUSH1 0x40 DUP7 ADD MLOAD PUSH32 0x2A45C054CB0CD067189C5B09B02D70CAF88BAF4B815F272C4AAB4816280C42CA PUSH32 0x2261505579B4329587BCBA9471ED53522DBC50DC358C553AD32BEEAA66B39BA5 DUP10 PUSH2 0xA7C JUMP JUMPDEST ISZERO PUSH2 0x1331 JUMPI PUSH2 0xC5F PUSH1 0x60 DUP7 ADD MLOAD PUSH32 0x1A1241B2B7C8E021EC2CA418241B12D99DD464E893833C8053E009606B72A74 PUSH32 0x1A8637D404B321E45CBDD810F5CAD24DCF08ADE192498E8B84C0163C95097CD6 DUP10 PUSH2 0xA7C JUMP JUMPDEST ISZERO PUSH2 0x1331 JUMPI PUSH2 0xCB4 PUSH1 0x80 DUP7 ADD MLOAD PUSH32 0x166BE3E7FFC1338B4F76B0ECFD8697ADB42FCBA2699E3D10BC1D673806914363 PUSH32 0x2B8156D06D6D6F9F47B40FE5E375E1560A785C81CEDCF5536BDA3A454AC40AEB DUP10 PUSH2 0xA7C JUMP JUMPDEST ISZERO PUSH2 0x1331 JUMPI PUSH2 0xD09 PUSH1 0xA0 DUP7 ADD MLOAD PUSH32 0x2F73BF3901DA46B4C69A96E5726CE5A4532DCD0CB7E3E17239081C88008153CC PUSH32 0x2732AD7092CA8221424730475C80882B9619FCA38CACBE9110BE6BBE356E0632 DUP10 PUSH2 0xA7C JUMP JUMPDEST ISZERO PUSH2 0x1331 JUMPI PUSH2 0xD5E PUSH1 0xC0 DUP7 ADD MLOAD PUSH32 0x22A2E8CEEA831D3B69922BC6A7CFE0C0B3349FC348409E3EC96DFE0F292C7A03 PUSH32 0x59E5C8441D29CD77C3FC88B153363291A342DB978C123C4D7F6DA2D5F8B4F52 DUP10 PUSH2 0xA7C JUMP JUMPDEST ISZERO PUSH2 0x1331 JUMPI PUSH2 0xDB3 PUSH1 0xE0 DUP7 ADD MLOAD PUSH32 0xFAD452E46B04B5D3072128015CBC241A25BB1B64EF033B92141322A26A8E477 PUSH32 0x2AEB2405739B7D4C087A2998509917ED48F4BEB7B903F6A83FC49CEC8A1ABAF0 DUP10 PUSH2 0xA7C JUMP JUMPDEST ISZERO PUSH2 0x1331 JUMPI PUSH2 0xE09 PUSH2 0x100 DUP7 ADD MLOAD PUSH32 0x1B7FFB4297C03C264229B1B70E3188815AA5D87FEA283B06AAA94A7C7D96E5DA PUSH32 0x1852E42DC9E52E1A82F020A1DACBC29FA2381BBCC4090550CB7266EE6136694 DUP10 PUSH2 0xA7C JUMP JUMPDEST ISZERO PUSH2 0x1331 JUMPI PUSH2 0xE5F PUSH2 0x120 DUP7 ADD MLOAD PUSH32 0x20E0C374745C0DB37A325FBF075C174034FFC6704F5D08B8064BB134249062A4 PUSH32 0x4FD0A7E5FB1E2C1A3502A54598D5411094A25DF1F8151B4A4A6CD46D75CDA52 DUP10 PUSH2 0xA7C JUMP JUMPDEST ISZERO PUSH2 0x1331 JUMPI PUSH2 0xEB5 PUSH2 0x140 DUP7 ADD MLOAD PUSH32 0x1F0C638C431F62E21B5FCCD531C6FCA3A838F20EDCE1C5722DDDCBF3060AB268 PUSH32 0xBA59A6709F24A24088AD57BA9D35FE709F7DB0F398EC3A8FC025A03A9B52CAC DUP10 PUSH2 0xA7C JUMP JUMPDEST ISZERO PUSH2 0x1331 JUMPI PUSH2 0xF0B PUSH2 0x160 DUP7 ADD MLOAD PUSH32 0x2E83FB0B2A4D6621C47484C28BB783A9825087358D2D5789ECB105DE4FD50B39 PUSH32 0x4C39DF1D7BC9B3AC0FBEC576AAB2E76C92A90EA86CB33EFA03F9AA48AC9D701 DUP10 PUSH2 0xA7C JUMP JUMPDEST ISZERO PUSH2 0x1331 JUMPI PUSH2 0xF61 PUSH2 0x180 DUP7 ADD MLOAD PUSH32 0xF7C71D134F047EE686698CC879AF130A64C9327F8D19A87F701071F6160358E PUSH32 0x241E5D0148D1B856C89E23D322842768E44BCBE5AD3FCA28AA4E26604A125520 DUP10 PUSH2 0xA7C JUMP JUMPDEST ISZERO PUSH2 0x1331 JUMPI PUSH2 0xFB7 PUSH2 0x1A0 DUP7 ADD MLOAD PUSH32 0xF015CED5AD9DA41A54B45FFCC8850E5F9CBEBB9DCBD47F0156734A387346F8D PUSH32 0x109A911E190FFD6E63FCEA6DD4C93F0986CBEE339EBD65ADD2D9B3306412C496 DUP10 PUSH2 0xA7C JUMP JUMPDEST ISZERO PUSH2 0x1331 JUMPI PUSH2 0x100D PUSH2 0x1C0 DUP7 ADD MLOAD PUSH32 0x3017AD59E224A25D0DEAE3F2EF3C74E84F45858732655BC5FC86A430104F171C PUSH32 0x2304BEE62953E41673C605DE75342266256B393AFCD33F7F94587C6B3DA23C5B DUP10 PUSH2 0xA7C JUMP JUMPDEST ISZERO PUSH2 0x1331 JUMPI PUSH2 0x1063 PUSH2 0x1E0 DUP7 ADD MLOAD PUSH32 0xB7299DFD52BDD8CFA440EB2EC79A60602171629D18BCC44676889362F401E08 PUSH32 0x12C373462C5C91E08B630200B4F2A5B3078DC4C4F97237D777EB71639FD9CC2C DUP10 PUSH2 0xA7C JUMP JUMPDEST ISZERO PUSH2 0x1331 JUMPI PUSH32 0x198E9393920D483A7260BFB731FB5D25F1AA493335A9E71297E485B7AEF312C2 PUSH1 0x40 DUP8 ADD MSTORE PUSH32 0x1800DEEF121F1E76426A00665E5C4479674322D4F75EDADD46DEBD5CD992F6ED PUSH1 0x60 DUP8 ADD MSTORE PUSH32 0x90689D0585FF075EC9E99AD690C3395BC4B313370B38EF355ACDADCD122975B PUSH1 0x80 DUP8 ADD MSTORE PUSH32 0x12C85EA5DB8C6DEB4AAB71808DCB408FE3D1E7690C43D37B4CE6CC0166FA7DAA PUSH1 0xA0 DUP8 ADD MSTORE DUP2 MLOAD PUSH1 0xC0 DUP8 ADD MSTORE PUSH32 0x30644E72E131A029B85045B68181585D97816A916871CA8D3C208C16D87CFD47 PUSH1 0x20 DUP4 ADD MLOAD PUSH32 0x30644E72E131A029B85045B68181585D97816A916871CA8D3C208C16D87CFD47 SUB MOD PUSH1 0xE0 DUP8 ADD MSTORE DUP3 MLOAD MLOAD PUSH2 0x100 DUP8 ADD MSTORE PUSH1 0x20 DUP4 MLOAD ADD MLOAD PUSH2 0x120 DUP8 ADD MSTORE PUSH1 0x20 DUP4 ADD MLOAD MLOAD PUSH2 0x140 DUP8 ADD MSTORE PUSH1 0x20 DUP1 DUP5 ADD MLOAD ADD MLOAD PUSH2 0x160 DUP8 ADD MSTORE PUSH32 0x2D4D9AA7E302D9DF41749D5507949D05DBEA33FBB16C643B22F599A2BE6DF2E2 PUSH2 0x180 DUP8 ADD MSTORE PUSH32 0x14BEDD503C37CEB061D8EC60209FE345CE89830A19230301F076CAFF004D1926 PUSH2 0x1A0 DUP8 ADD MSTORE PUSH32 0x967032FCBF776D1AFC985F88877F182D38480A653F2DECAA9794CBC3BF3060C PUSH2 0x1C0 DUP8 ADD MSTORE PUSH32 0xE187847AD4C798374D0D6732BF501847DD68BC0E071241E0213BC7FC13DB7AB PUSH2 0x1E0 DUP8 ADD MSTORE PUSH32 0x304CFBD1E08A704A99F5E847D93F8C3CAAFDDEC46B7A0D379DA69A4D112346A7 PUSH2 0x200 DUP8 ADD MSTORE PUSH32 0x1739C1B1A457A8C7313123D24D2F9192F896B7C63EEA05A9D57F06547AD0CEC8 PUSH2 0x220 DUP8 ADD MSTORE DUP4 MLOAD PUSH2 0x240 DUP8 ADD MSTORE PUSH1 0x20 DUP5 ADD MLOAD PUSH2 0x260 DUP8 ADD MSTORE PUSH32 0x198E9393920D483A7260BFB731FB5D25F1AA493335A9E71297E485B7AEF312C2 PUSH2 0x280 DUP8 ADD MSTORE PUSH32 0x1800DEEF121F1E76426A00665E5C4479674322D4F75EDADD46DEBD5CD992F6ED PUSH2 0x2A0 DUP8 ADD MSTORE PUSH32 0x90689D0585FF075EC9E99AD690C3395BC4B313370B38EF355ACDADCD122975B PUSH2 0x2C0 DUP8 ADD MSTORE PUSH32 0x12C85EA5DB8C6DEB4AAB71808DCB408FE3D1E7690C43D37B4CE6CC0166FA7DAA PUSH2 0x2E0 DUP8 ADD MSTORE PUSH1 0x20 DUP7 PUSH2 0x300 DUP9 PUSH1 0x8 PUSH3 0x2C308 STATICCALL DUP7 MLOAD AND SWAP1 POP JUMPDEST SWAP6 SWAP5 POP POP POP POP POP JUMP JUMPDEST PUSH1 0x40 MLOAD PUSH2 0x300 DUP2 ADD PUSH1 0x40 MSTORE PUSH1 0x1 SWAP2 POP PUSH2 0x1356 PUSH1 0x0 DUP5 ADD MLOAD PUSH2 0xA57 JUMP JUMPDEST DUP3 AND SWAP2 POP PUSH2 0x1367 PUSH1 0x20 DUP5 ADD MLOAD PUSH2 0xA57 JUMP JUMPDEST DUP3 AND SWAP2 POP PUSH2 0x1378 PUSH1 0x40 DUP5 ADD MLOAD PUSH2 0xA57 JUMP JUMPDEST DUP3 AND SWAP2 POP PUSH2 0x1389 PUSH1 0x60 DUP5 ADD MLOAD PUSH2 0xA57 JUMP JUMPDEST DUP3 AND SWAP2 POP PUSH2 0x139A PUSH1 0x80 DUP5 ADD MLOAD PUSH2 0xA57 JUMP JUMPDEST DUP3 AND SWAP2 POP PUSH2 0x13AB PUSH1 0xA0 DUP5 ADD MLOAD PUSH2 0xA57 JUMP JUMPDEST DUP3 AND SWAP2 POP PUSH2 0x13BC PUSH1 0xC0 DUP5 ADD MLOAD PUSH2 0xA57 JUMP JUMPDEST DUP3 AND SWAP2 POP PUSH2 0x13CD PUSH1 0xE0 DUP5 ADD MLOAD PUSH2 0xA57 JUMP JUMPDEST DUP3 AND SWAP2 POP PUSH2 0x13DF PUSH2 0x100 DUP5 ADD MLOAD PUSH2 0xA57 JUMP JUMPDEST DUP3 AND SWAP2 POP PUSH2 0x13F1 PUSH2 0x120 DUP5 ADD MLOAD PUSH2 0xA57 JUMP JUMPDEST DUP3 AND SWAP2 POP PUSH2 0x1403 PUSH2 0x140 DUP5 ADD MLOAD PUSH2 0xA57 JUMP JUMPDEST DUP3 AND SWAP2 POP PUSH2 0x1415 PUSH2 0x160 DUP5 ADD MLOAD PUSH2 0xA57 JUMP JUMPDEST DUP3 AND SWAP2 POP PUSH2 0x1427 PUSH2 0x180 DUP5 ADD MLOAD PUSH2 0xA57 JUMP JUMPDEST DUP3 AND SWAP2 POP PUSH2 0x1439 PUSH2 0x1A0 DUP5 ADD MLOAD PUSH2 0xA57 JUMP JUMPDEST DUP3 AND SWAP2 POP PUSH2 0x144B PUSH2 0x1C0 DUP5 ADD MLOAD PUSH2 0xA57 JUMP JUMPDEST DUP3 AND SWAP2 POP PUSH2 0x145D PUSH2 0x1E0 DUP5 ADD MLOAD PUSH2 0xA57 JUMP JUMPDEST DUP3 AND SWAP2 POP DUP2 ISZERO NOT ISZERO PUSH2 0x1479 JUMPI PUSH2 0x1476 DUP2 DUP5 DUP7 DUP9 DUP11 PUSH2 0xAC7 JUMP JUMPDEST SWAP2 POP JUMPDEST POP SWAP5 SWAP4 POP POP POP POP JUMP JUMPDEST PUSH1 0x40 MLOAD PUSH1 0x1F DUP3 ADD PUSH1 0x1F NOT AND DUP2 ADD PUSH8 0xFFFFFFFFFFFFFFFF DUP2 GT DUP3 DUP3 LT OR ISZERO PUSH2 0x14B9 JUMPI PUSH4 0x4E487B71 PUSH1 0xE0 SHL PUSH1 0x0 MSTORE PUSH1 0x41 PUSH1 0x4 MSTORE PUSH1 0x24 PUSH1 0x0 REVERT JUMPDEST PUSH1 0x40 MSTORE SWAP2 SWAP1 POP JUMP JUMPDEST PUSH1 0x0 DUP3 PUSH1 0x1F DUP4 ADD SLT PUSH2 0x14D2 JUMPI PUSH1 0x0 DUP1 REVERT JUMPDEST PUSH1 0x0 PUSH2 0x14DE PUSH1 0x40 PUSH2 0x1482 JUMP JUMPDEST SWAP1 POP DUP1 PUSH1 0x40 DUP5 ADD DUP6 DUP2 GT ISZERO PUSH2 0x14F2 JUMPI PUSH1 0x0 DUP1 REVERT JUMPDEST DUP5 JUMPDEST DUP2 DUP2 LT ISZERO PUSH2 0x150C JUMPI DUP1 CALLDATALOAD DUP4 MSTORE PUSH1 0x20 SWAP3 DUP4 ADD SWAP3 ADD PUSH2 0x14F4 JUMP JUMPDEST POP SWAP2 SWAP6 SWAP5 POP POP POP POP POP JUMP JUMPDEST PUSH1 0x0 DUP1 PUSH1 0x0 DUP1 PUSH2 0x300 DUP6 DUP8 SUB SLT ISZERO PUSH2 0x152E JUMPI PUSH1 0x0 DUP1 REVERT JUMPDEST PUSH2 0x1538 DUP7 DUP7 PUSH2 0x14C1 JUMP JUMPDEST SWAP4 POP DUP6 PUSH1 0x5F DUP7 ADD SLT PUSH2 0x1549 JUMPI PUSH1 0x0 DUP1 REVERT JUMPDEST PUSH1 0x40 PUSH2 0x1554 DUP2 PUSH2 0x1482 JUMP JUMPDEST DUP1 PUSH1 0xC0 DUP9 ADD DUP10 DUP2 GT ISZERO PUSH2 0x1566 JUMPI PUSH1 0x0 DUP1 REVERT JUMPDEST DUP4 DUP10 ADD JUMPDEST DUP2 DUP2 LT ISZERO PUSH2 0x158B JUMPI PUSH2 0x157C DUP12 DUP3 PUSH2 0x14C1 JUMP JUMPDEST DUP5 MSTORE PUSH1 0x20 SWAP1 SWAP4 ADD SWAP3 DUP5 ADD PUSH2 0x156A JUMP JUMPDEST POP DUP2 SWAP7 POP PUSH2 0x1599 DUP11 DUP3 PUSH2 0x14C1 JUMP JUMPDEST SWAP6 POP POP POP POP POP PUSH2 0x100 DUP6 ADD PUSH1 0x0 DUP8 PUSH1 0x1F DUP4 ADD SLT PUSH2 0x15B4 JUMPI DUP1 DUP2 REVERT JUMPDEST DUP1 PUSH2 0x200 PUSH2 0x15C1 DUP2 PUSH2 0x1482 JUMP JUMPDEST SWAP2 POP DUP4 ADD DUP2 DUP11 DUP3 GT ISZERO PUSH2 0x15D2 JUMPI DUP4 DUP5 REVERT JUMPDEST JUMPDEST DUP2 DUP6 LT ISZERO PUSH2 0x15EB JUMPI DUP5 CALLDATALOAD DUP2 MSTORE PUSH1 0x20 SWAP5 DUP6 ADD SWAP5 ADD PUSH2 0x15D3 JUMP JUMPDEST POP SWAP7 SWAP10 SWAP6 SWAP9 POP SWAP4 SWAP7 POP SWAP3 SWAP5 POP POP POP POP JUMP INVALID LOG2 PUSH5 0x6970667358 0x22 SLT KECCAK256 SWAP5 0xED CALL PUSH28 0x198F4AE5EAF640A16FD70603ACD1C5DEC1E00CD9D2D3EBF3F45B8FB1 PUSH5 0x736F6C6343 STOP ADDMOD SHL STOP CALLER "},"methodIdentifiers":{"ALPHA_X()":"d1fb02a3","ALPHA_Y()":"6a5935a7","BASE_FIELD_SIZE()":"839a60d0","BETA_X1()":"dc05a822","BETA_X2()":"7fdf8fc1","BETA_Y1()":"dd924b47","BETA_Y2()":"1c4d4406","DELTA_X1()":"d70a63cc","DELTA_X2()":"f7a65aae","DELTA_Y1()":"b936325c","DELTA_Y2()":"cc9c92ae","GAMMA_X1()":"901660c4","GAMMA_X2()":"dfcf46f0","GAMMA_Y1()":"3a9e6a4d","GAMMA_Y2()":"acb41936","IC0_X()":"6336ec6c","IC0_Y()":"742797c4","IC10_X()":"11fbfe66","IC10_Y()":"e848dd6f","IC11_X()":"39637503","IC11_Y()":"73354b60","IC12_X()":"a127ed86","IC12_Y()":"ba688175","IC13_X()":"36b397dc","IC13_Y()":"1077f544","IC14_X()":"d8c710e0","IC14_Y()":"e834dbdd","IC15_X()":"4b750a92","IC15_Y()":"30c1731c","IC16_X()":"e11e8ee2","IC16_Y()":"32148d47","IC1_X()":"d663b365","IC1_Y()":"a1978c3c","IC2_X()":"dce42004","IC2_Y()":"0cbb35c3","IC3_X()":"4234a1d6","IC3_Y()":"50def905","IC4_X()":"eedee58f","IC4_Y()":"4e890b27","IC5_X()":"898611fd","IC5_Y()":"24934a11","IC6_X()":"aed43349","IC6_Y()":"bf48189e","IC7_X()":"31aa5e26","IC7_Y()":"2c0556ed","IC8_X()":"41fe6a9a","IC8_Y()":"2dacca56","IC9_X()":"dacb4e69","IC9_Y()":"28e44695","P_TOTAL_SIZE()":"a6aca976","SCALAR_FIELD_SIZE()":"0ddec475","verifyProof(uint256[2],uint256[2][2],uint256[2],uint256[16])":"c82febf5"}}}}}