{"contracts/verifiers/BurnCircuitGroth16Verifier.sol":{"BurnCircuitGroth16Verifier":{"abi":[{"inputs":[],"name":"ALPHA_X","outputs":[{"internalType":"uint256","name":"","type":"uint256"}],"stateMutability":"view","type":"function"},{"inputs":[],"name":"ALPHA_Y","outputs":[{"internalType":"uint256","name":"","type":"uint256"}],"stateMutability":"view","type":"function"},{"inputs":[],"name":"BASE_FIELD_SIZE","outputs":[{"internalType":"uint256","name":"","type":"uint256"}],"stateMutability":"view","type":"function"},{"inputs":[],"name":"BETA_X1","outputs":[{"internalType":"uint256","name":"","type":"uint256"}],"stateMutability":"view","type":"function"},{"inputs":[],"name":"BETA_X2","outputs":[{"internalType":"uint256","name":"","type":"uint256"}],"stateMutability":"view","type":"function"},{"inputs":[],"name":"BETA_Y1","outputs":[{"internalType":"uint256","name":"","type":"uint256"}],"stateMutability":"view","type":"function"},{"inputs":[],"name":"BETA_Y2","outputs":[{"internalType":"uint256","name":"","type":"uint256"}],"stateMutability":"view","type":"function"},{"inputs":[],"name":"DELTA_X1","outputs":[{"internalType":"uint256","name":"","type":"uint256"}],"stateMutability":"view","type":"function"},{"inputs":[],"name":"DELTA_X2","outputs":[{"internalType":"uint256","name":"","type":"uint256"}],"stateMutability":"view","type":"function"},{"inputs":[],"name":"DELTA_Y1","outputs":[{"internalType":"uint256","name":"","type":"uint256"}],"stateMutability":"view","type":"function"},{"inputs":[],"name":"DELTA_Y2","outputs":[{"internalType":"uint256","name":"","type":"uint256"}],"stateMutability":"view","type":"function"},{"inputs":[],"name":"GAMMA_X1","outputs":[{"internalType":"uint256","name":"","type":"uint256"}],"stateMutability":"view","type":"function"},{"inputs":[],"name":"GAMMA_X2","outputs":[{"internalType":"uint256","name":"","type":"uint256"}],"stateMutability":"view","type":"function"},{"inputs":[],"name":"GAMMA_Y1","outputs":[{"internalType":"uint256","name":"","type":"uint256"}],"stateMutability":"view","type":"function"},{"inputs":[],"name":"GAMMA_Y2","outputs":[{"internalType":"uint256","name":"","type":"uint256"}],"stateMutability":"view","type":"function"},{"inputs":[],"name":"IC0_X","outputs":[{"internalType":"uint256","name":"","type":"uint256"}],"stateMutability":"view","type":"function"},{"inputs":[],"name":"IC0_Y","outputs":[{"internalType":"uint256","name":"","type":"uint256"}],"stateMutability":"view","type":"function"},{"inputs":[],"name":"IC10_X","outputs":[{"internalType":"uint256","name":"","type":"uint256"}],"stateMutability":"view","type":"function"},{"inputs":[],"name":"IC10_Y","outputs":[{"internalType":"uint256","name":"","type":"uint256"}],"stateMutability":"view","type":"function"},{"inputs":[],"name":"IC11_X","outputs":[{"internalType":"uint256","name":"","type":"uint256"}],"stateMutability":"view","type":"function"},{"inputs":[],"name":"IC11_Y","outputs":[{"internalType":"uint256","name":"","type":"uint256"}],"stateMutability":"view","type":"function"},{"inputs":[],"name":"IC12_X","outputs":[{"internalType":"uint256","name":"","type":"uint256"}],"stateMutability":"view","type":"function"},{"inputs":[],"name":"IC12_Y","outputs":[{"internalType":"uint256","name":"","type":"uint256"}],"stateMutability":"view","type":"function"},{"inputs":[],"name":"IC13_X","outputs":[{"internalType":"uint256","name":"","type":"uint256"}],"stateMutability":"view","type":"function"},{"inputs":[],"name":"IC13_Y","outputs":[{"internalType":"uint256","name":"","type":"uint256"}],"stateMutability":"view","type":"function"},{"inputs":[],"name":"IC14_X","outputs":[{"internalType":"uint256","name":"","type":"uint256"}],"stateMutability":"view","type":"function"},{"inputs":[],"name":"IC14_Y","outputs":[{"internalType":"uint256","name":"","type":"uint256"}],"stateMutability":"view","type":"function"},{"inputs":[],"name":"IC15_X","outputs":[{"internalType":"uint256","name":"","type":"uint256"}],"stateMutability":"view","type":"function"},{"inputs":[],"name":"IC15_Y","outputs":[{"internalType":"uint256","name":"","type":"uint256"}],"stateMutability":"view","type":"function"},{"inputs":[],"name":"IC16_X","outputs":[{"internalType":"uint256","name":"","type":"uint256"}],"stateMutability":"view","type":"function"},{"inputs":[],"name":"IC16_Y","outputs":[{"internalType":"uint256","name":"","type":"uint256"}],"stateMutability":"view","type":"function"},{"inputs":[],"name":"IC17_X","outputs":[{"internalType":"uint256","name":"","type":"uint256"}],"stateMutability":"view","type":"function"},{"inputs":[],"name":"IC17_Y","outputs":[{"internalType":"uint256","name":"","type":"uint256"}],"stateMutability":"view","type":"function"},{"inputs":[],"name":"IC18_X","outputs":[{"internalType":"uint256","name":"","type":"uint256"}],"stateMutability":"view","type":"function"},{"inputs":[],"name":"IC18_Y","outputs":[{"internalType":"uint256","name":"","type":"uint256"}],"stateMutability":"view","type":"function"},{"inputs":[],"name":"IC19_X","outputs":[{"internalType":"uint256","name":"","type":"uint256"}],"stateMutability":"view","type":"function"},{"inputs":[],"name":"IC19_Y","outputs":[{"internalType":"uint256","name":"","type":"uint256"}],"stateMutability":"view","type":"function"},{"inputs":[],"name":"IC1_X","outputs":[{"internalType":"uint256","name":"","type":"uint256"}],"stateMutability":"view","type":"function"},{"inputs":[],"name":"IC1_Y","outputs":[{"internalType":"uint256","name":"","type":"uint256"}],"stateMutability":"view","type":"function"},{"inputs":[],"name":"IC2_X","outputs":[{"internalType":"uint256","name":"","type":"uint256"}],"stateMutability":"view","type":"function"},{"inputs":[],"name":"IC2_Y","outputs":[{"internalType":"uint256","name":"","type":"uint256"}],"stateMutability":"view","type":"function"},{"inputs":[],"name":"IC3_X","outputs":[{"internalType":"uint256","name":"","type":"uint256"}],"stateMutability":"view","type":"function"},{"inputs":[],"name":"IC3_Y","outputs":[{"internalType":"uint256","name":"","type":"uint256"}],"stateMutability":"view","type":"function"},{"inputs":[],"name":"IC4_X","outputs":[{"internalType":"uint256","name":"","type":"uint256"}],"stateMutability":"view","type":"function"},{"inputs":[],"name":"IC4_Y","outputs":[{"internalType":"uint256","name":"","type":"uint256"}],"stateMutability":"view","type":"function"},{"inputs":[],"name":"IC5_X","outputs":[{"internalType":"uint256","name":"","type":"uint256"}],"stateMutability":"view","type":"function"},{"inputs":[],"name":"IC5_Y","outputs":[{"internalType":"uint256","name":"","type":"uint256"}],"stateMutability":"view","type":"function"},{"inputs":[],"name":"IC6_X","outputs":[{"internalType":"uint256","name":"","type":"uint256"}],"stateMutability":"view","type":"function"},{"inputs":[],"name":"IC6_Y","outputs":[{"internalType":"uint256","name":"","type":"uint256"}],"stateMutability":"view","type":"function"},{"inputs":[],"name":"IC7_X","outputs":[{"internalType":"uint256","name":"","type":"uint256"}],"stateMutability":"view","type":"function"},{"inputs":[],"name":"IC7_Y","outputs":[{"internalType":"uint256","name":"","type":"uint256"}],"stateMutability":"view","type":"function"},{"inputs":[],"name":"IC8_X","outputs":[{"internalType":"uint256","name":"","type":"uint256"}],"stateMutability":"view","type":"function"},{"inputs":[],"name":"IC8_Y","outputs":[{"internalType":"uint256","name":"","type":"uint256"}],"stateMutability":"view","type":"function"},{"inputs":[],"name":"IC9_X","outputs":[{"internalType":"uint256","name":"","type":"uint256"}],"stateMutability":"view","type":"function"},{"inputs":[],"name":"IC9_Y","outputs":[{"internalType":"uint256","name":"","type":"uint256"}],"stateMutability":"view","type":"function"},{"inputs":[],"name":"P_TOTAL_SIZE","outputs":[{"internalType":"uint256","name":"","type":"uint256"}],"stateMutability":"view","type":"function"},{"inputs":[],"name":"SCALAR_FIELD_SIZE","outputs":[{"internalType":"uint256","name":"","type":"uint256"}],"stateMutability":"view","type":"function"},{"inputs":[{"internalType":"uint256[2]","name":"pointA_","type":"uint256[2]"},{"internalType":"uint256[2][2]","name":"pointB_","type":"uint256[2][2]"},{"internalType":"uint256[2]","name":"pointC_","type":"uint256[2]"},{"internalType":"uint256[19]","name":"publicSignals_","type":"uint256[19]"}],"name":"verifyProof","outputs":[{"internalType":"bool","name":"verified_","type":"bool"}],"stateMutability":"view","type":"function"}],"evm":{"bytecode":{"linkReferences":{},"object":"6080604052348015600f57600080fd5b506118da8061001f6000396000f3fe608060405234801561001057600080fd5b506004361061038e5760003560e01c80637fdf8fc1116101de578063d1fb02a31161010f578063dd924b47116100ad578063e848dd6f1161007c578063e848dd6f14610b4d578063eedee58f14610b74578063f3f22e7214610b9b578063f7a65aae14610ad857600080fd5b8063dd924b4714610ab1578063dfcf46f014610ad8578063e11e8ee214610aff578063e834dbdd14610b2657600080fd5b8063d8c710e0116100e9578063d8c710e014610a15578063dacb4e6914610a3c578063dc05a82214610a63578063dce4200414610a8a57600080fd5b8063d1fb02a3146109c7578063d663b365146109ee578063d70a63cc1461088657600080fd5b8063acb419361161017c578063ba68817511610156578063ba68817514610952578063bf48189e14610979578063cc9c92ae14610904578063d0fdd6af146109a057600080fd5b8063acb4193614610904578063aed433491461092b578063b936325c1461061657600080fd5b8063901660c4116101b8578063901660c414610886578063a127ed86146108ad578063a1978c3c146108d4578063a6aca976146108fb57600080fd5b80637fdf8fc114610811578063839a60d014610838578063898611fd1461085f57600080fd5b806336b397dc116102c35780634e890b27116102615780636336ec6c116102305780636336ec6c146107755780636a5935a71461079c57806373354b60146107c3578063742797c4146107ea57600080fd5b80634e890b27146106d957806350def9051461070057806359b396b5146107275780636076d7ed1461074e57600080fd5b806341fe6a9a1161029d57806341fe6a9a1461063d5780634234a1d61461066457806345ce05a81461068b5780634b750a92146106b257600080fd5b806336b397dc146105c857806339637503146105ef5780633a9e6a4d1461061657600080fd5b806328e44695116103305780632dacca561161030a5780632dacca561461052c57806330c1731c1461055357806331aa5e261461057a57806332148d47146105a157600080fd5b806328e44695146104b75780632c0556ed146104de5780632d5274481461050557600080fd5b806311fbfe661161036c57806311fbfe661461041b5780631c4d44061461044257806324934a1114610469578063286f014b1461049057600080fd5b80630cbb35c3146103935780630ddec475146103cd5780631077f544146103f4575b600080fd5b6103ba7f1a6f31985823e8e281e8a1b7bc47604aa2b23fbe9c4c19fe2928907dcb60aed181565b6040519081526020015b60405180910390f35b6103ba7f30644e72e131a029b85045b68181585d2833e84879b9709143e1f593f000000181565b6103ba7f0f381af4e8dca656dc4ab15192a48144b5ecaf35dfe0aa1b28b5fec89d16677a81565b6103ba7f1722c20a350b2b01fc016833d50fbec27d0d6def6a46a6be65e23de2178d69e081565b6103ba7f1739c1b1a457a8c7313123d24d2f9192f896b7c63eea05a9d57f06547ad0cec881565b6103ba7f2f425e310751a0560cbd9d75e24903a3005256ce1adc4bf7abf3ee3bfd572f6b81565b6103ba7f101cc19783d55570b972975aaab245ab05482c4d09cce7725f6ee219a6d016a481565b6103ba7f1cd74c3562ec6b1353e29235142fecf0bfdedb0d9bf2e03c0ee6efd9862b7a5781565b6103ba7f0e7e2398ddfc9f394d0dcd593a43a78277870b42ded7f16db7ec267d2260349581565b6103ba7f2ed92781bc0dff7f19dcc7e1ab2f70504ec5a0cfd5da318b2f1b84b998e8aef881565b6103ba7f2094fbb34cb4aea2d1f952e5449b0475795f29aa650928a7d6a90cca04b5ce2581565b6103ba7f2172ea49c516c3370da43abfd50c0693955ea12353021d63cdf9fcc12f29d8c181565b6103ba7f16c2a38109ae61abc4542c335f9af05b2ac40d2c84ac8162f01ac469754b889381565b6103ba7f2736a1a5dc6805d17813812cf5cbbc969bf589abc3b1c37dfa38ffc5f5dd447281565b6103ba7f2bbfb0d23f2df476a41623db79f40ea22a838f94358c91ac813899cbfc73df0581565b6103ba7f01a62145e119040115d1c69dff7ebb122d28fae54d5e732a9192ecaaa0ecd6af81565b6103ba7f090689d0585ff075ec9e99ad690c3395bc4b313370b38ef355acdadcd122975b81565b6103ba7f09cd22924dc4053c5838f4f1a32528c2fae8157bf9e338b1c34f90a9ac2fea4081565b6103ba7f15bdf85bc11a6f64356c5f7fd68eee8ef9c79a8ca121fc22105ac0309fa4230c81565b6103ba7f29b84884b36312f1195719ee5bf01064eb7a5c32b84c7c33b4f60f5bd926e2df81565b6103ba7f15de6e95a9e6c3671b71dff3078d2db3c6a4eced673f7ee90bdbd5877d90226181565b6103ba7f25fe86c1b27fe9726b396f9ada601521ae1c8ba893c2a27231f6471288dc4e9881565b6103ba7f0d3ba8d188e44cc4c01d1e3e2bbcdc667d0f83aa13a7cf62434d945569d7d71b81565b6103ba7f0578a6b18ce5cb28d296ff4b3ca749c655679ef0e674603e15e241669d1e247581565b6103ba7f1a15f97cd3a15d3c89c1fb870cb24fc6ca6cd6202871ab3ad2448482407b09b781565b6103ba7f0f41ed44cc532f837df89e45f9d11b986b429e395dfea658900c66c9b5ba766981565b6103ba7f14bedd503c37ceb061d8ec60209fe345ce89830a19230301f076caff004d192681565b6103ba7f18f1f301bbd51b2138107439115e22b3cb8f5606f5885a1b85f583b5be69a56d81565b6103ba7f2576002d08abb868a9a4355dd9598b87f246f91cae80e0beac3e1c3a49b5eb6f81565b6103ba7f0e187847ad4c798374d0d6732bf501847dd68bc0e071241e0213bc7fc13db7ab81565b6103ba7f30644e72e131a029b85045b68181585d97816a916871ca8d3c208c16d87cfd4781565b6103ba7f26c1713bfd28a58d03b54226ac559770c4d2596da2489e5ee513e83748a6d00e81565b6103ba7f198e9393920d483a7260bfb731fb5d25f1aa493335a9e71297e485b7aef312c281565b6103ba7f27a3c7c1fcab288dbed6e5e2203c764a2493d24fc9677d3a95f5085f6b88966481565b6103ba7f0ee669a9caad1ff91dcc4a42e26a430ac4f16d122e7f087114e3e3dc1fb6ad2c81565b6103ba61030081565b6103ba7f12c85ea5db8c6deb4aab71808dcb408fe3d1e7690c43d37b4ce6cc0166fa7daa81565b6103ba7f04945e260baa10be164297853f665ff40f6ceb9970007f3d91499ba268c2477d81565b6103ba7f2b8ae68e29d7fc58f608c37caab2877326061e4746dfedd3f1a720683d706cdb81565b6103ba7f0302417b0cd0e3360cdadd133ba973f0526806e6e9dfccaefadfcff62e67bd7f81565b6103ba7f2fbe747655d747d81576ee1853d32399c80b3efeb1adc8e6ade15af6c889d69c81565b6103ba7f2d4d9aa7e302d9df41749d5507949d05dbea33fbb16c643b22f599a2be6df2e281565b6103ba7f2797a3325b1939e4b2189dadf30a5ccdd73849197f025745e1ed6d4c8d19d8bf81565b6103ba7f0d4d12b3392b53fb9e5506111fb12264e0bd8b8d3a850294464bb5dae0cec3b381565b6103ba7f206aec841b991e8d3be7f077c4a141727236727e4cba0db16c994c83b2fb805b81565b6103ba7f0967032fcbf776d1afc985f88877f182d38480a653f2decaa9794cbc3bf3060c81565b6103ba7f01b1b7abb17466abdd146b31737d077a3d3225a46a3d5f99500fb03550ff3f7e81565b6103ba7f304cfbd1e08a704a99f5e847d93f8c3caafddec46b7a0d379da69a4d112346a781565b6103ba7f1800deef121f1e76426a00665e5c4479674322d4f75edadd46debd5cd992f6ed81565b6103ba7f14de701db9a371d99c794203f8f6c8da451f72c65b0d8ad4823cd4ffd7ffbf2481565b6103ba7f2ee154cf49e1417ef0990a8b687dd18927d1284c0e7bc9c1fea7ff466a3ff55681565b6103ba7f26166593d1566790abf19370ced679ac966ee160e858d992b542de181670737b81565b6103ba7f20c7ead8285a73bbc68e3c6e7dae7461a012316d3da0bdbfd11da6fefb03446f81565b610bae610ba93660046117bf565b610bbe565b60405190151581526020016103c4565b60006115ac565b7f30644e72e131a029b85045b68181585d2833e84879b9709143e1f593f00000011190565b816040820152826060820152836080820152600060408083016060604085016007611770fa3d15151690508015610c2d5760408260808460066096fa3d15151690505b949350505050565b7f0f41ed44cc532f837df89e45f9d11b986b429e395dfea658900c66c9b5ba766985527f2576002d08abb868a9a4355dd9598b87f246f91cae80e0beac3e1c3a49b5eb6f60208601526000610cd060008601517f0ee669a9caad1ff91dcc4a42e26a430ac4f16d122e7f087114e3e3dc1fb6ad2c7f2797a3325b1939e4b2189dadf30a5ccdd73849197f025745e1ed6d4c8d19d8bf89610bea565b156115a357610d2560208601517f1a6f31985823e8e281e8a1b7bc47604aa2b23fbe9c4c19fe2928907dcb60aed17f01b1b7abb17466abdd146b31737d077a3d3225a46a3d5f99500fb03550ff3f7e89610bea565b156115a357610d7a60408601517f0d3ba8d188e44cc4c01d1e3e2bbcdc667d0f83aa13a7cf62434d945569d7d71b7f15bdf85bc11a6f64356c5f7fd68eee8ef9c79a8ca121fc22105ac0309fa4230c89610bea565b156115a357610dcf60608601517f25fe86c1b27fe9726b396f9ada601521ae1c8ba893c2a27231f6471288dc4e987f20c7ead8285a73bbc68e3c6e7dae7461a012316d3da0bdbfd11da6fefb03446f89610bea565b156115a357610e2460808601517f2f425e310751a0560cbd9d75e24903a3005256ce1adc4bf7abf3ee3bfd572f6b7f26c1713bfd28a58d03b54226ac559770c4d2596da2489e5ee513e83748a6d00e89610bea565b156115a357610e7960a08601517f0302417b0cd0e3360cdadd133ba973f0526806e6e9dfccaefadfcff62e67bd7f7f04945e260baa10be164297853f665ff40f6ceb9970007f3d91499ba268c2477d89610bea565b156115a357610ece60c08601517f0e7e2398ddfc9f394d0dcd593a43a78277870b42ded7f16db7ec267d226034957f16c2a38109ae61abc4542c335f9af05b2ac40d2c84ac8162f01ac469754b889389610bea565b156115a357610f2360e08601517f2094fbb34cb4aea2d1f952e5449b0475795f29aa650928a7d6a90cca04b5ce257f09cd22924dc4053c5838f4f1a32528c2fae8157bf9e338b1c34f90a9ac2fea4089610bea565b156115a357610f796101008601517f1cd74c3562ec6b1353e29235142fecf0bfdedb0d9bf2e03c0ee6efd9862b7a577f206aec841b991e8d3be7f077c4a141727236727e4cba0db16c994c83b2fb805b89610bea565b156115a357610fcf6101208601517f26166593d1566790abf19370ced679ac966ee160e858d992b542de181670737b7f1722c20a350b2b01fc016833d50fbec27d0d6def6a46a6be65e23de2178d69e089610bea565b156115a3576110256101408601517f18f1f301bbd51b2138107439115e22b3cb8f5606f5885a1b85f583b5be69a56d7f01a62145e119040115d1c69dff7ebb122d28fae54d5e732a9192ecaaa0ecd6af89610bea565b156115a35761107b6101608601517f2b8ae68e29d7fc58f608c37caab2877326061e4746dfedd3f1a720683d706cdb7f27a3c7c1fcab288dbed6e5e2203c764a2493d24fc9677d3a95f5085f6b88966489610bea565b156115a3576110d16101808601517f0f381af4e8dca656dc4ab15192a48144b5ecaf35dfe0aa1b28b5fec89d16677a7f2bbfb0d23f2df476a41623db79f40ea22a838f94358c91ac813899cbfc73df0589610bea565b156115a3576111276101a08601517f2ee154cf49e1417ef0990a8b687dd18927d1284c0e7bc9c1fea7ff466a3ff5567f0d4d12b3392b53fb9e5506111fb12264e0bd8b8d3a850294464bb5dae0cec3b389610bea565b156115a35761117d6101c08601517f2172ea49c516c3370da43abfd50c0693955ea12353021d63cdf9fcc12f29d8c17f15de6e95a9e6c3671b71dff3078d2db3c6a4eced673f7ee90bdbd5877d90226189610bea565b156115a3576111d36101e08601517f2736a1a5dc6805d17813812cf5cbbc969bf589abc3b1c37dfa38ffc5f5dd44727f14de701db9a371d99c794203f8f6c8da451f72c65b0d8ad4823cd4ffd7ffbf2489610bea565b156115a3576112296102008601517f2ed92781bc0dff7f19dcc7e1ab2f70504ec5a0cfd5da318b2f1b84b998e8aef87f101cc19783d55570b972975aaab245ab05482c4d09cce7725f6ee219a6d016a489610bea565b156115a35761127f6102208601517f2fbe747655d747d81576ee1853d32399c80b3efeb1adc8e6ade15af6c889d69c7f29b84884b36312f1195719ee5bf01064eb7a5c32b84c7c33b4f60f5bd926e2df89610bea565b156115a3576112d56102408601517f1a15f97cd3a15d3c89c1fb870cb24fc6ca6cd6202871ab3ad2448482407b09b77f0578a6b18ce5cb28d296ff4b3ca749c655679ef0e674603e15e241669d1e247589610bea565b156115a3577f198e9393920d483a7260bfb731fb5d25f1aa493335a9e71297e485b7aef312c260408701527f1800deef121f1e76426a00665e5c4479674322d4f75edadd46debd5cd992f6ed60608701527f090689d0585ff075ec9e99ad690c3395bc4b313370b38ef355acdadcd122975b60808701527f12c85ea5db8c6deb4aab71808dcb408fe3d1e7690c43d37b4ce6cc0166fa7daa60a0870152815160c08701527f30644e72e131a029b85045b68181585d97816a916871ca8d3c208c16d87cfd4760208301517f30644e72e131a029b85045b68181585d97816a916871ca8d3c208c16d87cfd47030660e087015282515161010087015260208351015161012087015260208301515161014087015260208084015101516101608701527f2d4d9aa7e302d9df41749d5507949d05dbea33fbb16c643b22f599a2be6df2e26101808701527f14bedd503c37ceb061d8ec60209fe345ce89830a19230301f076caff004d19266101a08701527f0967032fcbf776d1afc985f88877f182d38480a653f2decaa9794cbc3bf3060c6101c08701527f0e187847ad4c798374d0d6732bf501847dd68bc0e071241e0213bc7fc13db7ab6101e08701527f304cfbd1e08a704a99f5e847d93f8c3caafddec46b7a0d379da69a4d112346a76102008701527f1739c1b1a457a8c7313123d24d2f9192f896b7c63eea05a9d57f06547ad0cec8610220870152835161024087015260208401516102608701527f198e9393920d483a7260bfb731fb5d25f1aa493335a9e71297e485b7aef312c26102808701527f1800deef121f1e76426a00665e5c4479674322d4f75edadd46debd5cd992f6ed6102a08701527f090689d0585ff075ec9e99ad690c3395bc4b313370b38ef355acdadcd122975b6102c08701527f12c85ea5db8c6deb4aab71808dcb408fe3d1e7690c43d37b4ce6cc0166fa7daa6102e08701526020866103008860086202c308fa86511690505b95945050505050565b6040516103008101604052600191506115c86000840151610bc5565b821691506115d96020840151610bc5565b821691506115ea6040840151610bc5565b821691506115fb6060840151610bc5565b8216915061160c6080840151610bc5565b8216915061161d60a0840151610bc5565b8216915061162e60c0840151610bc5565b8216915061163f60e0840151610bc5565b82169150611651610100840151610bc5565b82169150611663610120840151610bc5565b82169150611675610140840151610bc5565b82169150611687610160840151610bc5565b82169150611699610180840151610bc5565b821691506116ab6101a0840151610bc5565b821691506116bd6101c0840151610bc5565b821691506116cf6101e0840151610bc5565b821691506116e1610200840151610bc5565b821691506116f3610220840151610bc5565b82169150611705610240840151610bc5565b82169150811519156117215761171e818486888a610c35565b91505b50949350505050565b604051601f8201601f1916810167ffffffffffffffff8111828210171561176157634e487b7160e01b600052604160045260246000fd5b604052919050565b600082601f83011261177a57600080fd5b6000611786604061172a565b905080604084018581111561179a57600080fd5b845b818110156117b457803583526020928301920161179c565b509195945050505050565b60008060008061036085870312156117d657600080fd5b6117e08686611769565b935085605f8601126117f157600080fd5b60406117fc8161172a565b8060c088018981111561180e57600080fd5b8389015b81811015611833576118248b82611769565b84526020909301928401611812565b508196506118418a82611769565b9550505050506101008501600087601f83011261185c578081fd5b806102606118698161172a565b91508301818a82111561187a578384fd5b5b8185101561189357843581526020948501940161187b565b50969995985093965092945050505056fea2646970667358221220f108e98b2bd76c6e09f2eedd51961ffe90668d1e5e0380d17d28c9ada45270d664736f6c634300081b0033","opcodes":"PUSH1 0x80 PUSH1 0x40 MSTORE CALLVALUE DUP1 ISZERO PUSH1 0xF JUMPI PUSH1 0x0 DUP1 REVERT JUMPDEST POP PUSH2 0x18DA DUP1 PUSH2 0x1F PUSH1 0x0 CODECOPY PUSH1 0x0 RETURN INVALID PUSH1 0x80 PUSH1 0x40 MSTORE CALLVALUE DUP1 ISZERO PUSH2 0x10 JUMPI PUSH1 0x0 DUP1 REVERT JUMPDEST POP PUSH1 0x4 CALLDATASIZE LT PUSH2 0x38E JUMPI PUSH1 0x0 CALLDATALOAD PUSH1 0xE0 SHR DUP1 PUSH4 0x7FDF8FC1 GT PUSH2 0x1DE JUMPI DUP1 PUSH4 0xD1FB02A3 GT PUSH2 0x10F JUMPI DUP1 PUSH4 0xDD924B47 GT PUSH2 0xAD JUMPI DUP1 PUSH4 0xE848DD6F GT PUSH2 0x7C JUMPI DUP1 PUSH4 0xE848DD6F EQ PUSH2 0xB4D JUMPI DUP1 PUSH4 0xEEDEE58F EQ PUSH2 0xB74 JUMPI DUP1 PUSH4 0xF3F22E72 EQ PUSH2 0xB9B JUMPI DUP1 PUSH4 0xF7A65AAE EQ PUSH2 0xAD8 JUMPI PUSH1 0x0 DUP1 REVERT JUMPDEST DUP1 PUSH4 0xDD924B47 EQ PUSH2 0xAB1 JUMPI DUP1 PUSH4 0xDFCF46F0 EQ PUSH2 0xAD8 JUMPI DUP1 PUSH4 0xE11E8EE2 EQ PUSH2 0xAFF JUMPI DUP1 PUSH4 0xE834DBDD EQ PUSH2 0xB26 JUMPI PUSH1 0x0 DUP1 REVERT JUMPDEST DUP1 PUSH4 0xD8C710E0 GT PUSH2 0xE9 JUMPI DUP1 PUSH4 0xD8C710E0 EQ PUSH2 0xA15 JUMPI DUP1 PUSH4 0xDACB4E69 EQ PUSH2 0xA3C JUMPI DUP1 PUSH4 0xDC05A822 EQ PUSH2 0xA63 JUMPI DUP1 PUSH4 0xDCE42004 EQ PUSH2 0xA8A JUMPI PUSH1 0x0 DUP1 REVERT JUMPDEST DUP1 PUSH4 0xD1FB02A3 EQ PUSH2 0x9C7 JUMPI DUP1 PUSH4 0xD663B365 EQ PUSH2 0x9EE JUMPI DUP1 PUSH4 0xD70A63CC EQ PUSH2 0x886 JUMPI PUSH1 0x0 DUP1 REVERT JUMPDEST DUP1 PUSH4 0xACB41936 GT PUSH2 0x17C JUMPI DUP1 PUSH4 0xBA688175 GT PUSH2 0x156 JUMPI DUP1 PUSH4 0xBA688175 EQ PUSH2 0x952 JUMPI DUP1 PUSH4 0xBF48189E EQ PUSH2 0x979 JUMPI DUP1 PUSH4 0xCC9C92AE EQ PUSH2 0x904 JUMPI DUP1 PUSH4 0xD0FDD6AF EQ PUSH2 0x9A0 JUMPI PUSH1 0x0 DUP1 REVERT JUMPDEST DUP1 PUSH4 0xACB41936 EQ PUSH2 0x904 JUMPI DUP1 PUSH4 0xAED43349 EQ PUSH2 0x92B JUMPI DUP1 PUSH4 0xB936325C EQ PUSH2 0x616 JUMPI PUSH1 0x0 DUP1 REVERT JUMPDEST DUP1 PUSH4 0x901660C4 GT PUSH2 0x1B8 JUMPI DUP1 PUSH4 0x901660C4 EQ PUSH2 0x886 JUMPI DUP1 PUSH4 0xA127ED86 EQ PUSH2 0x8AD JUMPI DUP1 PUSH4 0xA1978C3C EQ PUSH2 0x8D4 JUMPI DUP1 PUSH4 0xA6ACA976 EQ PUSH2 0x8FB JUMPI PUSH1 0x0 DUP1 REVERT JUMPDEST DUP1 PUSH4 0x7FDF8FC1 EQ PUSH2 0x811 JUMPI DUP1 PUSH4 0x839A60D0 EQ PUSH2 0x838 JUMPI DUP1 PUSH4 0x898611FD EQ PUSH2 0x85F JUMPI PUSH1 0x0 DUP1 REVERT JUMPDEST DUP1 PUSH4 0x36B397DC GT PUSH2 0x2C3 JUMPI DUP1 PUSH4 0x4E890B27 GT PUSH2 0x261 JUMPI DUP1 PUSH4 0x6336EC6C GT PUSH2 0x230 JUMPI DUP1 PUSH4 0x6336EC6C EQ PUSH2 0x775 JUMPI DUP1 PUSH4 0x6A5935A7 EQ PUSH2 0x79C JUMPI DUP1 PUSH4 0x73354B60 EQ PUSH2 0x7C3 JUMPI DUP1 PUSH4 0x742797C4 EQ PUSH2 0x7EA JUMPI PUSH1 0x0 DUP1 REVERT JUMPDEST DUP1 PUSH4 0x4E890B27 EQ PUSH2 0x6D9 JUMPI DUP1 PUSH4 0x50DEF905 EQ PUSH2 0x700 JUMPI DUP1 PUSH4 0x59B396B5 EQ PUSH2 0x727 JUMPI DUP1 PUSH4 0x6076D7ED EQ PUSH2 0x74E JUMPI PUSH1 0x0 DUP1 REVERT JUMPDEST DUP1 PUSH4 0x41FE6A9A GT PUSH2 0x29D JUMPI DUP1 PUSH4 0x41FE6A9A EQ PUSH2 0x63D JUMPI DUP1 PUSH4 0x4234A1D6 EQ PUSH2 0x664 JUMPI DUP1 PUSH4 0x45CE05A8 EQ PUSH2 0x68B JUMPI DUP1 PUSH4 0x4B750A92 EQ PUSH2 0x6B2 JUMPI PUSH1 0x0 DUP1 REVERT JUMPDEST DUP1 PUSH4 0x36B397DC EQ PUSH2 0x5C8 JUMPI DUP1 PUSH4 0x39637503 EQ PUSH2 0x5EF JUMPI DUP1 PUSH4 0x3A9E6A4D EQ PUSH2 0x616 JUMPI PUSH1 0x0 DUP1 REVERT JUMPDEST DUP1 PUSH4 0x28E44695 GT PUSH2 0x330 JUMPI DUP1 PUSH4 0x2DACCA56 GT PUSH2 0x30A JUMPI DUP1 PUSH4 0x2DACCA56 EQ PUSH2 0x52C JUMPI DUP1 PUSH4 0x30C1731C EQ PUSH2 0x553 JUMPI DUP1 PUSH4 0x31AA5E26 EQ PUSH2 0x57A JUMPI DUP1 PUSH4 0x32148D47 EQ PUSH2 0x5A1 JUMPI PUSH1 0x0 DUP1 REVERT JUMPDEST DUP1 PUSH4 0x28E44695 EQ PUSH2 0x4B7 JUMPI DUP1 PUSH4 0x2C0556ED EQ PUSH2 0x4DE JUMPI DUP1 PUSH4 0x2D527448 EQ PUSH2 0x505 JUMPI PUSH1 0x0 DUP1 REVERT JUMPDEST DUP1 PUSH4 0x11FBFE66 GT PUSH2 0x36C JUMPI DUP1 PUSH4 0x11FBFE66 EQ PUSH2 0x41B JUMPI DUP1 PUSH4 0x1C4D4406 EQ PUSH2 0x442 JUMPI DUP1 PUSH4 0x24934A11 EQ PUSH2 0x469 JUMPI DUP1 PUSH4 0x286F014B EQ PUSH2 0x490 JUMPI PUSH1 0x0 DUP1 REVERT JUMPDEST DUP1 PUSH4 0xCBB35C3 EQ PUSH2 0x393 JUMPI DUP1 PUSH4 0xDDEC475 EQ PUSH2 0x3CD JUMPI DUP1 PUSH4 0x1077F544 EQ PUSH2 0x3F4 JUMPI JUMPDEST PUSH1 0x0 DUP1 REVERT JUMPDEST PUSH2 0x3BA PUSH32 0x1A6F31985823E8E281E8A1B7BC47604AA2B23FBE9C4C19FE2928907DCB60AED1 DUP2 JUMP JUMPDEST PUSH1 0x40 MLOAD SWAP1 DUP2 MSTORE PUSH1 0x20 ADD JUMPDEST PUSH1 0x40 MLOAD DUP1 SWAP2 SUB SWAP1 RETURN JUMPDEST PUSH2 0x3BA PUSH32 0x30644E72E131A029B85045B68181585D2833E84879B9709143E1F593F0000001 DUP2 JUMP JUMPDEST PUSH2 0x3BA PUSH32 0xF381AF4E8DCA656DC4AB15192A48144B5ECAF35DFE0AA1B28B5FEC89D16677A DUP2 JUMP JUMPDEST PUSH2 0x3BA PUSH32 0x1722C20A350B2B01FC016833D50FBEC27D0D6DEF6A46A6BE65E23DE2178D69E0 DUP2 JUMP JUMPDEST PUSH2 0x3BA PUSH32 0x1739C1B1A457A8C7313123D24D2F9192F896B7C63EEA05A9D57F06547AD0CEC8 DUP2 JUMP JUMPDEST PUSH2 0x3BA PUSH32 0x2F425E310751A0560CBD9D75E24903A3005256CE1ADC4BF7ABF3EE3BFD572F6B DUP2 JUMP JUMPDEST PUSH2 0x3BA PUSH32 0x101CC19783D55570B972975AAAB245AB05482C4D09CCE7725F6EE219A6D016A4 DUP2 JUMP JUMPDEST PUSH2 0x3BA PUSH32 0x1CD74C3562EC6B1353E29235142FECF0BFDEDB0D9BF2E03C0EE6EFD9862B7A57 DUP2 JUMP JUMPDEST PUSH2 0x3BA PUSH32 0xE7E2398DDFC9F394D0DCD593A43A78277870B42DED7F16DB7EC267D22603495 DUP2 JUMP JUMPDEST PUSH2 0x3BA PUSH32 0x2ED92781BC0DFF7F19DCC7E1AB2F70504EC5A0CFD5DA318B2F1B84B998E8AEF8 DUP2 JUMP JUMPDEST PUSH2 0x3BA PUSH32 0x2094FBB34CB4AEA2D1F952E5449B0475795F29AA650928A7D6A90CCA04B5CE25 DUP2 JUMP JUMPDEST PUSH2 0x3BA PUSH32 0x2172EA49C516C3370DA43ABFD50C0693955EA12353021D63CDF9FCC12F29D8C1 DUP2 JUMP JUMPDEST PUSH2 0x3BA PUSH32 0x16C2A38109AE61ABC4542C335F9AF05B2AC40D2C84AC8162F01AC469754B8893 DUP2 JUMP JUMPDEST PUSH2 0x3BA PUSH32 0x2736A1A5DC6805D17813812CF5CBBC969BF589ABC3B1C37DFA38FFC5F5DD4472 DUP2 JUMP JUMPDEST PUSH2 0x3BA PUSH32 0x2BBFB0D23F2DF476A41623DB79F40EA22A838F94358C91AC813899CBFC73DF05 DUP2 JUMP JUMPDEST PUSH2 0x3BA PUSH32 0x1A62145E119040115D1C69DFF7EBB122D28FAE54D5E732A9192ECAAA0ECD6AF DUP2 JUMP JUMPDEST PUSH2 0x3BA PUSH32 0x90689D0585FF075EC9E99AD690C3395BC4B313370B38EF355ACDADCD122975B DUP2 JUMP JUMPDEST PUSH2 0x3BA PUSH32 0x9CD22924DC4053C5838F4F1A32528C2FAE8157BF9E338B1C34F90A9AC2FEA40 DUP2 JUMP JUMPDEST PUSH2 0x3BA PUSH32 0x15BDF85BC11A6F64356C5F7FD68EEE8EF9C79A8CA121FC22105AC0309FA4230C DUP2 JUMP JUMPDEST PUSH2 0x3BA PUSH32 0x29B84884B36312F1195719EE5BF01064EB7A5C32B84C7C33B4F60F5BD926E2DF DUP2 JUMP JUMPDEST PUSH2 0x3BA PUSH32 0x15DE6E95A9E6C3671B71DFF3078D2DB3C6A4ECED673F7EE90BDBD5877D902261 DUP2 JUMP JUMPDEST PUSH2 0x3BA PUSH32 0x25FE86C1B27FE9726B396F9ADA601521AE1C8BA893C2A27231F6471288DC4E98 DUP2 JUMP JUMPDEST PUSH2 0x3BA PUSH32 0xD3BA8D188E44CC4C01D1E3E2BBCDC667D0F83AA13A7CF62434D945569D7D71B DUP2 JUMP JUMPDEST PUSH2 0x3BA PUSH32 0x578A6B18CE5CB28D296FF4B3CA749C655679EF0E674603E15E241669D1E2475 DUP2 JUMP JUMPDEST PUSH2 0x3BA PUSH32 0x1A15F97CD3A15D3C89C1FB870CB24FC6CA6CD6202871AB3AD2448482407B09B7 DUP2 JUMP JUMPDEST PUSH2 0x3BA PUSH32 0xF41ED44CC532F837DF89E45F9D11B986B429E395DFEA658900C66C9B5BA7669 DUP2 JUMP JUMPDEST PUSH2 0x3BA PUSH32 0x14BEDD503C37CEB061D8EC60209FE345CE89830A19230301F076CAFF004D1926 DUP2 JUMP JUMPDEST PUSH2 0x3BA PUSH32 0x18F1F301BBD51B2138107439115E22B3CB8F5606F5885A1B85F583B5BE69A56D DUP2 JUMP JUMPDEST PUSH2 0x3BA PUSH32 0x2576002D08ABB868A9A4355DD9598B87F246F91CAE80E0BEAC3E1C3A49B5EB6F DUP2 JUMP JUMPDEST PUSH2 0x3BA PUSH32 0xE187847AD4C798374D0D6732BF501847DD68BC0E071241E0213BC7FC13DB7AB DUP2 JUMP JUMPDEST PUSH2 0x3BA PUSH32 0x30644E72E131A029B85045B68181585D97816A916871CA8D3C208C16D87CFD47 DUP2 JUMP JUMPDEST PUSH2 0x3BA PUSH32 0x26C1713BFD28A58D03B54226AC559770C4D2596DA2489E5EE513E83748A6D00E DUP2 JUMP JUMPDEST PUSH2 0x3BA PUSH32 0x198E9393920D483A7260BFB731FB5D25F1AA493335A9E71297E485B7AEF312C2 DUP2 JUMP JUMPDEST PUSH2 0x3BA PUSH32 0x27A3C7C1FCAB288DBED6E5E2203C764A2493D24FC9677D3A95F5085F6B889664 DUP2 JUMP JUMPDEST PUSH2 0x3BA PUSH32 0xEE669A9CAAD1FF91DCC4A42E26A430AC4F16D122E7F087114E3E3DC1FB6AD2C DUP2 JUMP JUMPDEST PUSH2 0x3BA PUSH2 0x300 DUP2 JUMP JUMPDEST PUSH2 0x3BA PUSH32 0x12C85EA5DB8C6DEB4AAB71808DCB408FE3D1E7690C43D37B4CE6CC0166FA7DAA DUP2 JUMP JUMPDEST PUSH2 0x3BA PUSH32 0x4945E260BAA10BE164297853F665FF40F6CEB9970007F3D91499BA268C2477D DUP2 JUMP JUMPDEST PUSH2 0x3BA PUSH32 0x2B8AE68E29D7FC58F608C37CAAB2877326061E4746DFEDD3F1A720683D706CDB DUP2 JUMP JUMPDEST PUSH2 0x3BA PUSH32 0x302417B0CD0E3360CDADD133BA973F0526806E6E9DFCCAEFADFCFF62E67BD7F DUP2 JUMP JUMPDEST PUSH2 0x3BA PUSH32 0x2FBE747655D747D81576EE1853D32399C80B3EFEB1ADC8E6ADE15AF6C889D69C DUP2 JUMP JUMPDEST PUSH2 0x3BA PUSH32 0x2D4D9AA7E302D9DF41749D5507949D05DBEA33FBB16C643B22F599A2BE6DF2E2 DUP2 JUMP JUMPDEST PUSH2 0x3BA PUSH32 0x2797A3325B1939E4B2189DADF30A5CCDD73849197F025745E1ED6D4C8D19D8BF DUP2 JUMP JUMPDEST PUSH2 0x3BA PUSH32 0xD4D12B3392B53FB9E5506111FB12264E0BD8B8D3A850294464BB5DAE0CEC3B3 DUP2 JUMP JUMPDEST PUSH2 0x3BA PUSH32 0x206AEC841B991E8D3BE7F077C4A141727236727E4CBA0DB16C994C83B2FB805B DUP2 JUMP JUMPDEST PUSH2 0x3BA PUSH32 0x967032FCBF776D1AFC985F88877F182D38480A653F2DECAA9794CBC3BF3060C DUP2 JUMP JUMPDEST PUSH2 0x3BA PUSH32 0x1B1B7ABB17466ABDD146B31737D077A3D3225A46A3D5F99500FB03550FF3F7E DUP2 JUMP JUMPDEST PUSH2 0x3BA PUSH32 0x304CFBD1E08A704A99F5E847D93F8C3CAAFDDEC46B7A0D379DA69A4D112346A7 DUP2 JUMP JUMPDEST PUSH2 0x3BA PUSH32 0x1800DEEF121F1E76426A00665E5C4479674322D4F75EDADD46DEBD5CD992F6ED DUP2 JUMP JUMPDEST PUSH2 0x3BA PUSH32 0x14DE701DB9A371D99C794203F8F6C8DA451F72C65B0D8AD4823CD4FFD7FFBF24 DUP2 JUMP JUMPDEST PUSH2 0x3BA PUSH32 0x2EE154CF49E1417EF0990A8B687DD18927D1284C0E7BC9C1FEA7FF466A3FF556 DUP2 JUMP JUMPDEST PUSH2 0x3BA PUSH32 0x26166593D1566790ABF19370CED679AC966EE160E858D992B542DE181670737B DUP2 JUMP JUMPDEST PUSH2 0x3BA PUSH32 0x20C7EAD8285A73BBC68E3C6E7DAE7461A012316D3DA0BDBFD11DA6FEFB03446F DUP2 JUMP JUMPDEST PUSH2 0xBAE PUSH2 0xBA9 CALLDATASIZE PUSH1 0x4 PUSH2 0x17BF JUMP JUMPDEST PUSH2 0xBBE JUMP JUMPDEST PUSH1 0x40 MLOAD SWAP1 ISZERO ISZERO DUP2 MSTORE PUSH1 0x20 ADD PUSH2 0x3C4 JUMP JUMPDEST PUSH1 0x0 PUSH2 0x15AC JUMP JUMPDEST PUSH32 0x30644E72E131A029B85045B68181585D2833E84879B9709143E1F593F0000001 GT SWAP1 JUMP JUMPDEST DUP2 PUSH1 0x40 DUP3 ADD MSTORE DUP3 PUSH1 0x60 DUP3 ADD MSTORE DUP4 PUSH1 0x80 DUP3 ADD MSTORE PUSH1 0x0 PUSH1 0x40 DUP1 DUP4 ADD PUSH1 0x60 PUSH1 0x40 DUP6 ADD PUSH1 0x7 PUSH2 0x1770 STATICCALL RETURNDATASIZE ISZERO ISZERO AND SWAP1 POP DUP1 ISZERO PUSH2 0xC2D JUMPI PUSH1 0x40 DUP3 PUSH1 0x80 DUP5 PUSH1 0x6 PUSH1 0x96 STATICCALL RETURNDATASIZE ISZERO ISZERO AND SWAP1 POP JUMPDEST SWAP5 SWAP4 POP POP POP POP JUMP JUMPDEST PUSH32 0xF41ED44CC532F837DF89E45F9D11B986B429E395DFEA658900C66C9B5BA7669 DUP6 MSTORE PUSH32 0x2576002D08ABB868A9A4355DD9598B87F246F91CAE80E0BEAC3E1C3A49B5EB6F PUSH1 0x20 DUP7 ADD MSTORE PUSH1 0x0 PUSH2 0xCD0 PUSH1 0x0 DUP7 ADD MLOAD PUSH32 0xEE669A9CAAD1FF91DCC4A42E26A430AC4F16D122E7F087114E3E3DC1FB6AD2C PUSH32 0x2797A3325B1939E4B2189DADF30A5CCDD73849197F025745E1ED6D4C8D19D8BF DUP10 PUSH2 0xBEA JUMP JUMPDEST ISZERO PUSH2 0x15A3 JUMPI PUSH2 0xD25 PUSH1 0x20 DUP7 ADD MLOAD PUSH32 0x1A6F31985823E8E281E8A1B7BC47604AA2B23FBE9C4C19FE2928907DCB60AED1 PUSH32 0x1B1B7ABB17466ABDD146B31737D077A3D3225A46A3D5F99500FB03550FF3F7E DUP10 PUSH2 0xBEA JUMP JUMPDEST ISZERO PUSH2 0x15A3 JUMPI PUSH2 0xD7A PUSH1 0x40 DUP7 ADD MLOAD PUSH32 0xD3BA8D188E44CC4C01D1E3E2BBCDC667D0F83AA13A7CF62434D945569D7D71B PUSH32 0x15BDF85BC11A6F64356C5F7FD68EEE8EF9C79A8CA121FC22105AC0309FA4230C DUP10 PUSH2 0xBEA JUMP JUMPDEST ISZERO PUSH2 0x15A3 JUMPI PUSH2 0xDCF PUSH1 0x60 DUP7 ADD MLOAD PUSH32 0x25FE86C1B27FE9726B396F9ADA601521AE1C8BA893C2A27231F6471288DC4E98 PUSH32 0x20C7EAD8285A73BBC68E3C6E7DAE7461A012316D3DA0BDBFD11DA6FEFB03446F DUP10 PUSH2 0xBEA JUMP JUMPDEST ISZERO PUSH2 0x15A3 JUMPI PUSH2 0xE24 PUSH1 0x80 DUP7 ADD MLOAD PUSH32 0x2F425E310751A0560CBD9D75E24903A3005256CE1ADC4BF7ABF3EE3BFD572F6B PUSH32 0x26C1713BFD28A58D03B54226AC559770C4D2596DA2489E5EE513E83748A6D00E DUP10 PUSH2 0xBEA JUMP JUMPDEST ISZERO PUSH2 0x15A3 JUMPI PUSH2 0xE79 PUSH1 0xA0 DUP7 ADD MLOAD PUSH32 0x302417B0CD0E3360CDADD133BA973F0526806E6E9DFCCAEFADFCFF62E67BD7F PUSH32 0x4945E260BAA10BE164297853F665FF40F6CEB9970007F3D91499BA268C2477D DUP10 PUSH2 0xBEA JUMP JUMPDEST ISZERO PUSH2 0x15A3 JUMPI PUSH2 0xECE PUSH1 0xC0 DUP7 ADD MLOAD PUSH32 0xE7E2398DDFC9F394D0DCD593A43A78277870B42DED7F16DB7EC267D22603495 PUSH32 0x16C2A38109AE61ABC4542C335F9AF05B2AC40D2C84AC8162F01AC469754B8893 DUP10 PUSH2 0xBEA JUMP JUMPDEST ISZERO PUSH2 0x15A3 JUMPI PUSH2 0xF23 PUSH1 0xE0 DUP7 ADD MLOAD PUSH32 0x2094FBB34CB4AEA2D1F952E5449B0475795F29AA650928A7D6A90CCA04B5CE25 PUSH32 0x9CD22924DC4053C5838F4F1A32528C2FAE8157BF9E338B1C34F90A9AC2FEA40 DUP10 PUSH2 0xBEA JUMP JUMPDEST ISZERO PUSH2 0x15A3 JUMPI PUSH2 0xF79 PUSH2 0x100 DUP7 ADD MLOAD PUSH32 0x1CD74C3562EC6B1353E29235142FECF0BFDEDB0D9BF2E03C0EE6EFD9862B7A57 PUSH32 0x206AEC841B991E8D3BE7F077C4A141727236727E4CBA0DB16C994C83B2FB805B DUP10 PUSH2 0xBEA JUMP JUMPDEST ISZERO PUSH2 0x15A3 JUMPI PUSH2 0xFCF PUSH2 0x120 DUP7 ADD MLOAD PUSH32 0x26166593D1566790ABF19370CED679AC966EE160E858D992B542DE181670737B PUSH32 0x1722C20A350B2B01FC016833D50FBEC27D0D6DEF6A46A6BE65E23DE2178D69E0 DUP10 PUSH2 0xBEA JUMP JUMPDEST ISZERO PUSH2 0x15A3 JUMPI PUSH2 0x1025 PUSH2 0x140 DUP7 ADD MLOAD PUSH32 0x18F1F301BBD51B2138107439115E22B3CB8F5606F5885A1B85F583B5BE69A56D PUSH32 0x1A62145E119040115D1C69DFF7EBB122D28FAE54D5E732A9192ECAAA0ECD6AF DUP10 PUSH2 0xBEA JUMP JUMPDEST ISZERO PUSH2 0x15A3 JUMPI PUSH2 0x107B PUSH2 0x160 DUP7 ADD MLOAD PUSH32 0x2B8AE68E29D7FC58F608C37CAAB2877326061E4746DFEDD3F1A720683D706CDB PUSH32 0x27A3C7C1FCAB288DBED6E5E2203C764A2493D24FC9677D3A95F5085F6B889664 DUP10 PUSH2 0xBEA JUMP JUMPDEST ISZERO PUSH2 0x15A3 JUMPI PUSH2 0x10D1 PUSH2 0x180 DUP7 ADD MLOAD PUSH32 0xF381AF4E8DCA656DC4AB15192A48144B5ECAF35DFE0AA1B28B5FEC89D16677A PUSH32 0x2BBFB0D23F2DF476A41623DB79F40EA22A838F94358C91AC813899CBFC73DF05 DUP10 PUSH2 0xBEA JUMP JUMPDEST ISZERO PUSH2 0x15A3 JUMPI PUSH2 0x1127 PUSH2 0x1A0 DUP7 ADD MLOAD PUSH32 0x2EE154CF49E1417EF0990A8B687DD18927D1284C0E7BC9C1FEA7FF466A3FF556 PUSH32 0xD4D12B3392B53FB9E5506111FB12264E0BD8B8D3A850294464BB5DAE0CEC3B3 DUP10 PUSH2 0xBEA JUMP JUMPDEST ISZERO PUSH2 0x15A3 JUMPI PUSH2 0x117D PUSH2 0x1C0 DUP7 ADD MLOAD PUSH32 0x2172EA49C516C3370DA43ABFD50C0693955EA12353021D63CDF9FCC12F29D8C1 PUSH32 0x15DE6E95A9E6C3671B71DFF3078D2DB3C6A4ECED673F7EE90BDBD5877D902261 DUP10 PUSH2 0xBEA JUMP JUMPDEST ISZERO PUSH2 0x15A3 JUMPI PUSH2 0x11D3 PUSH2 0x1E0 DUP7 ADD MLOAD PUSH32 0x2736A1A5DC6805D17813812CF5CBBC969BF589ABC3B1C37DFA38FFC5F5DD4472 PUSH32 0x14DE701DB9A371D99C794203F8F6C8DA451F72C65B0D8AD4823CD4FFD7FFBF24 DUP10 PUSH2 0xBEA JUMP JUMPDEST ISZERO PUSH2 0x15A3 JUMPI PUSH2 0x1229 PUSH2 0x200 DUP7 ADD MLOAD PUSH32 0x2ED92781BC0DFF7F19DCC7E1AB2F70504EC5A0CFD5DA318B2F1B84B998E8AEF8 PUSH32 0x101CC19783D55570B972975AAAB245AB05482C4D09CCE7725F6EE219A6D016A4 DUP10 PUSH2 0xBEA JUMP JUMPDEST ISZERO PUSH2 0x15A3 JUMPI PUSH2 0x127F PUSH2 0x220 DUP7 ADD MLOAD PUSH32 0x2FBE747655D747D81576EE1853D32399C80B3EFEB1ADC8E6ADE15AF6C889D69C PUSH32 0x29B84884B36312F1195719EE5BF01064EB7A5C32B84C7C33B4F60F5BD926E2DF DUP10 PUSH2 0xBEA JUMP JUMPDEST ISZERO PUSH2 0x15A3 JUMPI PUSH2 0x12D5 PUSH2 0x240 DUP7 ADD MLOAD PUSH32 0x1A15F97CD3A15D3C89C1FB870CB24FC6CA6CD6202871AB3AD2448482407B09B7 PUSH32 0x578A6B18CE5CB28D296FF4B3CA749C655679EF0E674603E15E241669D1E2475 DUP10 PUSH2 0xBEA JUMP JUMPDEST ISZERO PUSH2 0x15A3 JUMPI PUSH32 0x198E9393920D483A7260BFB731FB5D25F1AA493335A9E71297E485B7AEF312C2 PUSH1 0x40 DUP8 ADD MSTORE PUSH32 0x1800DEEF121F1E76426A00665E5C4479674322D4F75EDADD46DEBD5CD992F6ED PUSH1 0x60 DUP8 ADD MSTORE PUSH32 0x90689D0585FF075EC9E99AD690C3395BC4B313370B38EF355ACDADCD122975B PUSH1 0x80 DUP8 ADD MSTORE PUSH32 0x12C85EA5DB8C6DEB4AAB71808DCB408FE3D1E7690C43D37B4CE6CC0166FA7DAA PUSH1 0xA0 DUP8 ADD MSTORE DUP2 MLOAD PUSH1 0xC0 DUP8 ADD MSTORE PUSH32 0x30644E72E131A029B85045B68181585D97816A916871CA8D3C208C16D87CFD47 PUSH1 0x20 DUP4 ADD MLOAD PUSH32 0x30644E72E131A029B85045B68181585D97816A916871CA8D3C208C16D87CFD47 SUB MOD PUSH1 0xE0 DUP8 ADD MSTORE DUP3 MLOAD MLOAD PUSH2 0x100 DUP8 ADD MSTORE PUSH1 0x20 DUP4 MLOAD ADD MLOAD PUSH2 0x120 DUP8 ADD MSTORE PUSH1 0x20 DUP4 ADD MLOAD MLOAD PUSH2 0x140 DUP8 ADD MSTORE PUSH1 0x20 DUP1 DUP5 ADD MLOAD ADD MLOAD PUSH2 0x160 DUP8 ADD MSTORE PUSH32 0x2D4D9AA7E302D9DF41749D5507949D05DBEA33FBB16C643B22F599A2BE6DF2E2 PUSH2 0x180 DUP8 ADD MSTORE PUSH32 0x14BEDD503C37CEB061D8EC60209FE345CE89830A19230301F076CAFF004D1926 PUSH2 0x1A0 DUP8 ADD MSTORE PUSH32 0x967032FCBF776D1AFC985F88877F182D38480A653F2DECAA9794CBC3BF3060C PUSH2 0x1C0 DUP8 ADD MSTORE PUSH32 0xE187847AD4C798374D0D6732BF501847DD68BC0E071241E0213BC7FC13DB7AB PUSH2 0x1E0 DUP8 ADD MSTORE PUSH32 0x304CFBD1E08A704A99F5E847D93F8C3CAAFDDEC46B7A0D379DA69A4D112346A7 PUSH2 0x200 DUP8 ADD MSTORE PUSH32 0x1739C1B1A457A8C7313123D24D2F9192F896B7C63EEA05A9D57F06547AD0CEC8 PUSH2 0x220 DUP8 ADD MSTORE DUP4 MLOAD PUSH2 0x240 DUP8 ADD MSTORE PUSH1 0x20 DUP5 ADD MLOAD PUSH2 0x260 DUP8 ADD MSTORE PUSH32 0x198E9393920D483A7260BFB731FB5D25F1AA493335A9E71297E485B7AEF312C2 PUSH2 0x280 DUP8 ADD MSTORE PUSH32 0x1800DEEF121F1E76426A00665E5C4479674322D4F75EDADD46DEBD5CD992F6ED PUSH2 0x2A0 DUP8 ADD MSTORE PUSH32 0x90689D0585FF075EC9E99AD690C3395BC4B313370B38EF355ACDADCD122975B PUSH2 0x2C0 DUP8 ADD MSTORE PUSH32 0x12C85EA5DB8C6DEB4AAB71808DCB408FE3D1E7690C43D37B4CE6CC0166FA7DAA PUSH2 0x2E0 DUP8 ADD MSTORE PUSH1 0x20 DUP7 PUSH2 0x300 DUP9 PUSH1 0x8 PUSH3 0x2C308 STATICCALL DUP7 MLOAD AND SWAP1 POP JUMPDEST SWAP6 SWAP5 POP POP POP POP POP JUMP JUMPDEST PUSH1 0x40 MLOAD PUSH2 0x300 DUP2 ADD PUSH1 0x40 MSTORE PUSH1 0x1 SWAP2 POP PUSH2 0x15C8 PUSH1 0x0 DUP5 ADD MLOAD PUSH2 0xBC5 JUMP JUMPDEST DUP3 AND SWAP2 POP PUSH2 0x15D9 PUSH1 0x20 DUP5 ADD MLOAD PUSH2 0xBC5 JUMP JUMPDEST DUP3 AND SWAP2 POP PUSH2 0x15EA PUSH1 0x40 DUP5 ADD MLOAD PUSH2 0xBC5 JUMP JUMPDEST DUP3 AND SWAP2 POP PUSH2 0x15FB PUSH1 0x60 DUP5 ADD MLOAD PUSH2 0xBC5 JUMP JUMPDEST DUP3 AND SWAP2 POP PUSH2 0x160C PUSH1 0x80 DUP5 ADD MLOAD PUSH2 0xBC5 JUMP JUMPDEST DUP3 AND SWAP2 POP PUSH2 0x161D PUSH1 0xA0 DUP5 ADD MLOAD PUSH2 0xBC5 JUMP JUMPDEST DUP3 AND SWAP2 POP PUSH2 0x162E PUSH1 0xC0 DUP5 ADD MLOAD PUSH2 0xBC5 JUMP JUMPDEST DUP3 AND SWAP2 POP PUSH2 0x163F PUSH1 0xE0 DUP5 ADD MLOAD PUSH2 0xBC5 JUMP JUMPDEST DUP3 AND SWAP2 POP PUSH2 0x1651 PUSH2 0x100 DUP5 ADD MLOAD PUSH2 0xBC5 JUMP JUMPDEST DUP3 AND SWAP2 POP PUSH2 0x1663 PUSH2 0x120 DUP5 ADD MLOAD PUSH2 0xBC5 JUMP JUMPDEST DUP3 AND SWAP2 POP PUSH2 0x1675 PUSH2 0x140 DUP5 ADD MLOAD PUSH2 0xBC5 JUMP JUMPDEST DUP3 AND SWAP2 POP PUSH2 0x1687 PUSH2 0x160 DUP5 ADD MLOAD PUSH2 0xBC5 JUMP JUMPDEST DUP3 AND SWAP2 POP PUSH2 0x1699 PUSH2 0x180 DUP5 ADD MLOAD PUSH2 0xBC5 JUMP JUMPDEST DUP3 AND SWAP2 POP PUSH2 0x16AB PUSH2 0x1A0 DUP5 ADD MLOAD PUSH2 0xBC5 JUMP JUMPDEST DUP3 AND SWAP2 POP PUSH2 0x16BD PUSH2 0x1C0 DUP5 ADD MLOAD PUSH2 0xBC5 JUMP JUMPDEST DUP3 AND SWAP2 POP PUSH2 0x16CF PUSH2 0x1E0 DUP5 ADD MLOAD PUSH2 0xBC5 JUMP JUMPDEST DUP3 AND SWAP2 POP PUSH2 0x16E1 PUSH2 0x200 DUP5 ADD MLOAD PUSH2 0xBC5 JUMP JUMPDEST DUP3 AND SWAP2 POP PUSH2 0x16F3 PUSH2 0x220 DUP5 ADD MLOAD PUSH2 0xBC5 JUMP JUMPDEST DUP3 AND SWAP2 POP PUSH2 0x1705 PUSH2 0x240 DUP5 ADD MLOAD PUSH2 0xBC5 JUMP JUMPDEST DUP3 AND SWAP2 POP DUP2 ISZERO NOT ISZERO PUSH2 0x1721 JUMPI PUSH2 0x171E DUP2 DUP5 DUP7 DUP9 DUP11 PUSH2 0xC35 JUMP JUMPDEST SWAP2 POP JUMPDEST POP SWAP5 SWAP4 POP POP POP POP JUMP JUMPDEST PUSH1 0x40 MLOAD PUSH1 0x1F DUP3 ADD PUSH1 0x1F NOT AND DUP2 ADD PUSH8 0xFFFFFFFFFFFFFFFF DUP2 GT DUP3 DUP3 LT OR ISZERO PUSH2 0x1761 JUMPI PUSH4 0x4E487B71 PUSH1 0xE0 SHL PUSH1 0x0 MSTORE PUSH1 0x41 PUSH1 0x4 MSTORE PUSH1 0x24 PUSH1 0x0 REVERT JUMPDEST PUSH1 0x40 MSTORE SWAP2 SWAP1 POP JUMP JUMPDEST PUSH1 0x0 DUP3 PUSH1 0x1F DUP4 ADD SLT PUSH2 0x177A JUMPI PUSH1 0x0 DUP1 REVERT JUMPDEST PUSH1 0x0 PUSH2 0x1786 PUSH1 0x40 PUSH2 0x172A JUMP JUMPDEST SWAP1 POP DUP1 PUSH1 0x40 DUP5 ADD DUP6 DUP2 GT ISZERO PUSH2 0x179A JUMPI PUSH1 0x0 DUP1 REVERT JUMPDEST DUP5 JUMPDEST DUP2 DUP2 LT ISZERO PUSH2 0x17B4 JUMPI DUP1 CALLDATALOAD DUP4 MSTORE PUSH1 0x20 SWAP3 DUP4 ADD SWAP3 ADD PUSH2 0x179C JUMP JUMPDEST POP SWAP2 SWAP6 SWAP5 POP POP POP POP POP JUMP JUMPDEST PUSH1 0x0 DUP1 PUSH1 0x0 DUP1 PUSH2 0x360 DUP6 DUP8 SUB SLT ISZERO PUSH2 0x17D6 JUMPI PUSH1 0x0 DUP1 REVERT JUMPDEST PUSH2 0x17E0 DUP7 DUP7 PUSH2 0x1769 JUMP JUMPDEST SWAP4 POP DUP6 PUSH1 0x5F DUP7 ADD SLT PUSH2 0x17F1 JUMPI PUSH1 0x0 DUP1 REVERT JUMPDEST PUSH1 0x40 PUSH2 0x17FC DUP2 PUSH2 0x172A JUMP JUMPDEST DUP1 PUSH1 0xC0 DUP9 ADD DUP10 DUP2 GT ISZERO PUSH2 0x180E JUMPI PUSH1 0x0 DUP1 REVERT JUMPDEST DUP4 DUP10 ADD JUMPDEST DUP2 DUP2 LT ISZERO PUSH2 0x1833 JUMPI PUSH2 0x1824 DUP12 DUP3 PUSH2 0x1769 JUMP JUMPDEST DUP5 MSTORE PUSH1 0x20 SWAP1 SWAP4 ADD SWAP3 DUP5 ADD PUSH2 0x1812 JUMP JUMPDEST POP DUP2 SWAP7 POP PUSH2 0x1841 DUP11 DUP3 PUSH2 0x1769 JUMP JUMPDEST SWAP6 POP POP POP POP POP PUSH2 0x100 DUP6 ADD PUSH1 0x0 DUP8 PUSH1 0x1F DUP4 ADD SLT PUSH2 0x185C JUMPI DUP1 DUP2 REVERT JUMPDEST DUP1 PUSH2 0x260 PUSH2 0x1869 DUP2 PUSH2 0x172A JUMP JUMPDEST SWAP2 POP DUP4 ADD DUP2 DUP11 DUP3 GT ISZERO PUSH2 0x187A JUMPI DUP4 DUP5 REVERT JUMPDEST JUMPDEST DUP2 DUP6 LT ISZERO PUSH2 0x1893 JUMPI DUP5 CALLDATALOAD DUP2 MSTORE PUSH1 0x20 SWAP5 DUP6 ADD SWAP5 ADD PUSH2 0x187B JUMP JUMPDEST POP SWAP7 SWAP10 SWAP6 SWAP9 POP SWAP4 SWAP7 POP SWAP3 SWAP5 POP POP POP POP JUMP INVALID LOG2 PUSH5 0x6970667358 0x22 SLT KECCAK256 CALL ADDMOD 0xE9 DUP12 0x2B 0xD7 PUSH13 0x6E09F2EEDD51961FFE90668D1E MCOPY SUB DUP1 0xD1 PUSH30 0x28C9ADA45270D664736F6C634300081B0033000000000000000000000000 "},"methodIdentifiers":{"ALPHA_X()":"d1fb02a3","ALPHA_Y()":"6a5935a7","BASE_FIELD_SIZE()":"839a60d0","BETA_X1()":"dc05a822","BETA_X2()":"7fdf8fc1","BETA_Y1()":"dd924b47","BETA_Y2()":"1c4d4406","DELTA_X1()":"d70a63cc","DELTA_X2()":"f7a65aae","DELTA_Y1()":"b936325c","DELTA_Y2()":"cc9c92ae","GAMMA_X1()":"901660c4","GAMMA_X2()":"dfcf46f0","GAMMA_Y1()":"3a9e6a4d","GAMMA_Y2()":"acb41936","IC0_X()":"6336ec6c","IC0_Y()":"742797c4","IC10_X()":"11fbfe66","IC10_Y()":"e848dd6f","IC11_X()":"39637503","IC11_Y()":"73354b60","IC12_X()":"a127ed86","IC12_Y()":"ba688175","IC13_X()":"36b397dc","IC13_Y()":"1077f544","IC14_X()":"d8c710e0","IC14_Y()":"e834dbdd","IC15_X()":"4b750a92","IC15_Y()":"30c1731c","IC16_X()":"e11e8ee2","IC16_Y()":"32148d47","IC17_X()":"286f014b","IC17_Y()":"2d527448","IC18_X()":"45ce05a8","IC18_Y()":"d0fdd6af","IC19_X()":"59b396b5","IC19_Y()":"6076d7ed","IC1_X()":"d663b365","IC1_Y()":"a1978c3c","IC2_X()":"dce42004","IC2_Y()":"0cbb35c3","IC3_X()":"4234a1d6","IC3_Y()":"50def905","IC4_X()":"eedee58f","IC4_Y()":"4e890b27","IC5_X()":"898611fd","IC5_Y()":"24934a11","IC6_X()":"aed43349","IC6_Y()":"bf48189e","IC7_X()":"31aa5e26","IC7_Y()":"2c0556ed","IC8_X()":"41fe6a9a","IC8_Y()":"2dacca56","IC9_X()":"dacb4e69","IC9_Y()":"28e44695","P_TOTAL_SIZE()":"a6aca976","SCALAR_FIELD_SIZE()":"0ddec475","verifyProof(uint256[2],uint256[2][2],uint256[2],uint256[19])":"f3f22e72"}}}}}