{"contracts/verifiers/MintCircuitGroth16Verifier.sol":{"MintCircuitGroth16Verifier":{"abi":[{"inputs":[],"name":"ALPHA_X","outputs":[{"internalType":"uint256","name":"","type":"uint256"}],"stateMutability":"view","type":"function"},{"inputs":[],"name":"ALPHA_Y","outputs":[{"internalType":"uint256","name":"","type":"uint256"}],"stateMutability":"view","type":"function"},{"inputs":[],"name":"BASE_FIELD_SIZE","outputs":[{"internalType":"uint256","name":"","type":"uint256"}],"stateMutability":"view","type":"function"},{"inputs":[],"name":"BETA_X1","outputs":[{"internalType":"uint256","name":"","type":"uint256"}],"stateMutability":"view","type":"function"},{"inputs":[],"name":"BETA_X2","outputs":[{"internalType":"uint256","name":"","type":"uint256"}],"stateMutability":"view","type":"function"},{"inputs":[],"name":"BETA_Y1","outputs":[{"internalType":"uint256","name":"","type":"uint256"}],"stateMutability":"view","type":"function"},{"inputs":[],"name":"BETA_Y2","outputs":[{"internalType":"uint256","name":"","type":"uint256"}],"stateMutability":"view","type":"function"},{"inputs":[],"name":"DELTA_X1","outputs":[{"internalType":"uint256","name":"","type":"uint256"}],"stateMutability":"view","type":"function"},{"inputs":[],"name":"DELTA_X2","outputs":[{"internalType":"uint256","name":"","type":"uint256"}],"stateMutability":"view","type":"function"},{"inputs":[],"name":"DELTA_Y1","outputs":[{"internalType":"uint256","name":"","type":"uint256"}],"stateMutability":"view","type":"function"},{"inputs":[],"name":"DELTA_Y2","outputs":[{"internalType":"uint256","name":"","type":"uint256"}],"stateMutability":"view","type":"function"},{"inputs":[],"name":"GAMMA_X1","outputs":[{"internalType":"uint256","name":"","type":"uint256"}],"stateMutability":"view","type":"function"},{"inputs":[],"name":"GAMMA_X2","outputs":[{"internalType":"uint256","name":"","type":"uint256"}],"stateMutability":"view","type":"function"},{"inputs":[],"name":"GAMMA_Y1","outputs":[{"internalType":"uint256","name":"","type":"uint256"}],"stateMutability":"view","type":"function"},{"inputs":[],"name":"GAMMA_Y2","outputs":[{"internalType":"uint256","name":"","type":"uint256"}],"stateMutability":"view","type":"function"},{"inputs":[],"name":"IC0_X","outputs":[{"internalType":"uint256","name":"","type":"uint256"}],"stateMutability":"view","type":"function"},{"inputs":[],"name":"IC0_Y","outputs":[{"internalType":"uint256","name":"","type":"uint256"}],"stateMutability":"view","type":"function"},{"inputs":[],"name":"IC10_X","outputs":[{"internalType":"uint256","name":"","type":"uint256"}],"stateMutability":"view","type":"function"},{"inputs":[],"name":"IC10_Y","outputs":[{"internalType":"uint256","name":"","type":"uint256"}],"stateMutability":"view","type":"function"},{"inputs":[],"name":"IC11_X","outputs":[{"internalType":"uint256","name":"","type":"uint256"}],"stateMutability":"view","type":"function"},{"inputs":[],"name":"IC11_Y","outputs":[{"internalType":"uint256","name":"","type":"uint256"}],"stateMutability":"view","type":"function"},{"inputs":[],"name":"IC12_X","outputs":[{"internalType":"uint256","name":"","type":"uint256"}],"stateMutability":"view","type":"function"},{"inputs":[],"name":"IC12_Y","outputs":[{"internalType":"uint256","name":"","type":"uint256"}],"stateMutability":"view","type":"function"},{"inputs":[],"name":"IC13_X","outputs":[{"internalType":"uint256","name":"","type":"uint256"}],"stateMutability":"view","type":"function"},{"inputs":[],"name":"IC13_Y","outputs":[{"internalType":"uint256","name":"","type":"uint256"}],"stateMutability":"view","type":"function"},{"inputs":[],"name":"IC14_X","outputs":[{"internalType":"uint256","name":"","type":"uint256"}],"stateMutability":"view","type":"function"},{"inputs":[],"name":"IC14_Y","outputs":[{"internalType":"uint256","name":"","type":"uint256"}],"stateMutability":"view","type":"function"},{"inputs":[],"name":"IC15_X","outputs":[{"internalType":"uint256","name":"","type":"uint256"}],"stateMutability":"view","type":"function"},{"inputs":[],"name":"IC15_Y","outputs":[{"internalType":"uint256","name":"","type":"uint256"}],"stateMutability":"view","type":"function"},{"inputs":[],"name":"IC16_X","outputs":[{"internalType":"uint256","name":"","type":"uint256"}],"stateMutability":"view","type":"function"},{"inputs":[],"name":"IC16_Y","outputs":[{"internalType":"uint256","name":"","type":"uint256"}],"stateMutability":"view","type":"function"},{"inputs":[],"name":"IC17_X","outputs":[{"internalType":"uint256","name":"","type":"uint256"}],"stateMutability":"view","type":"function"},{"inputs":[],"name":"IC17_Y","outputs":[{"internalType":"uint256","name":"","type":"uint256"}],"stateMutability":"view","type":"function"},{"inputs":[],"name":"IC18_X","outputs":[{"internalType":"uint256","name":"","type":"uint256"}],"stateMutability":"view","type":"function"},{"inputs":[],"name":"IC18_Y","outputs":[{"internalType":"uint256","name":"","type":"uint256"}],"stateMutability":"view","type":"function"},{"inputs":[],"name":"IC19_X","outputs":[{"internalType":"uint256","name":"","type":"uint256"}],"stateMutability":"view","type":"function"},{"inputs":[],"name":"IC19_Y","outputs":[{"internalType":"uint256","name":"","type":"uint256"}],"stateMutability":"view","type":"function"},{"inputs":[],"name":"IC1_X","outputs":[{"internalType":"uint256","name":"","type":"uint256"}],"stateMutability":"view","type":"function"},{"inputs":[],"name":"IC1_Y","outputs":[{"internalType":"uint256","name":"","type":"uint256"}],"stateMutability":"view","type":"function"},{"inputs":[],"name":"IC20_X","outputs":[{"internalType":"uint256","name":"","type":"uint256"}],"stateMutability":"view","type":"function"},{"inputs":[],"name":"IC20_Y","outputs":[{"internalType":"uint256","name":"","type":"uint256"}],"stateMutability":"view","type":"function"},{"inputs":[],"name":"IC21_X","outputs":[{"internalType":"uint256","name":"","type":"uint256"}],"stateMutability":"view","type":"function"},{"inputs":[],"name":"IC21_Y","outputs":[{"internalType":"uint256","name":"","type":"uint256"}],"stateMutability":"view","type":"function"},{"inputs":[],"name":"IC22_X","outputs":[{"internalType":"uint256","name":"","type":"uint256"}],"stateMutability":"view","type":"function"},{"inputs":[],"name":"IC22_Y","outputs":[{"internalType":"uint256","name":"","type":"uint256"}],"stateMutability":"view","type":"function"},{"inputs":[],"name":"IC23_X","outputs":[{"internalType":"uint256","name":"","type":"uint256"}],"stateMutability":"view","type":"function"},{"inputs":[],"name":"IC23_Y","outputs":[{"internalType":"uint256","name":"","type":"uint256"}],"stateMutability":"view","type":"function"},{"inputs":[],"name":"IC24_X","outputs":[{"internalType":"uint256","name":"","type":"uint256"}],"stateMutability":"view","type":"function"},{"inputs":[],"name":"IC24_Y","outputs":[{"internalType":"uint256","name":"","type":"uint256"}],"stateMutability":"view","type":"function"},{"inputs":[],"name":"IC2_X","outputs":[{"internalType":"uint256","name":"","type":"uint256"}],"stateMutability":"view","type":"function"},{"inputs":[],"name":"IC2_Y","outputs":[{"internalType":"uint256","name":"","type":"uint256"}],"stateMutability":"view","type":"function"},{"inputs":[],"name":"IC3_X","outputs":[{"internalType":"uint256","name":"","type":"uint256"}],"stateMutability":"view","type":"function"},{"inputs":[],"name":"IC3_Y","outputs":[{"internalType":"uint256","name":"","type":"uint256"}],"stateMutability":"view","type":"function"},{"inputs":[],"name":"IC4_X","outputs":[{"internalType":"uint256","name":"","type":"uint256"}],"stateMutability":"view","type":"function"},{"inputs":[],"name":"IC4_Y","outputs":[{"internalType":"uint256","name":"","type":"uint256"}],"stateMutability":"view","type":"function"},{"inputs":[],"name":"IC5_X","outputs":[{"internalType":"uint256","name":"","type":"uint256"}],"stateMutability":"view","type":"function"},{"inputs":[],"name":"IC5_Y","outputs":[{"internalType":"uint256","name":"","type":"uint256"}],"stateMutability":"view","type":"function"},{"inputs":[],"name":"IC6_X","outputs":[{"internalType":"uint256","name":"","type":"uint256"}],"stateMutability":"view","type":"function"},{"inputs":[],"name":"IC6_Y","outputs":[{"internalType":"uint256","name":"","type":"uint256"}],"stateMutability":"view","type":"function"},{"inputs":[],"name":"IC7_X","outputs":[{"internalType":"uint256","name":"","type":"uint256"}],"stateMutability":"view","type":"function"},{"inputs":[],"name":"IC7_Y","outputs":[{"internalType":"uint256","name":"","type":"uint256"}],"stateMutability":"view","type":"function"},{"inputs":[],"name":"IC8_X","outputs":[{"internalType":"uint256","name":"","type":"uint256"}],"stateMutability":"view","type":"function"},{"inputs":[],"name":"IC8_Y","outputs":[{"internalType":"uint256","name":"","type":"uint256"}],"stateMutability":"view","type":"function"},{"inputs":[],"name":"IC9_X","outputs":[{"internalType":"uint256","name":"","type":"uint256"}],"stateMutability":"view","type":"function"},{"inputs":[],"name":"IC9_Y","outputs":[{"internalType":"uint256","name":"","type":"uint256"}],"stateMutability":"view","type":"function"},{"inputs":[],"name":"P_TOTAL_SIZE","outputs":[{"internalType":"uint256","name":"","type":"uint256"}],"stateMutability":"view","type":"function"},{"inputs":[],"name":"SCALAR_FIELD_SIZE","outputs":[{"internalType":"uint256","name":"","type":"uint256"}],"stateMutability":"view","type":"function"},{"inputs":[{"internalType":"uint256[2]","name":"pointA_","type":"uint256[2]"},{"internalType":"uint256[2][2]","name":"pointB_","type":"uint256[2][2]"},{"internalType":"uint256[2]","name":"pointC_","type":"uint256[2]"},{"internalType":"uint256[24]","name":"publicSignals_","type":"uint256[24]"}],"name":"verifyProof","outputs":[{"internalType":"bool","name":"verified_","type":"bool"}],"stateMutability":"view","type":"function"}],"evm":{"bytecode":{"linkReferences":{},"object":"6080604052348015600f57600080fd5b50611cd28061001f6000396000f3fe608060405234801561001057600080fd5b50600436106103fc5760003560e01c806373354b6011610215578063d1fb02a311610125578063dd924b47116100b8578063e848dd6f11610087578063e848dd6f14610d15578063eb38888b14610d3b578063eeb9f2e414610d62578063eedee58f14610d89578063f7a65aae14610ca057600080fd5b8063dd924b4714610c79578063dfcf46f014610ca0578063e11e8ee214610cc7578063e834dbdd14610cee57600080fd5b8063d8c710e0116100f4578063d8c710e014610bdd578063dacb4e6914610c04578063dc05a82214610c2b578063dce4200414610c5257600080fd5b8063d1fb02a314610b68578063d663b36514610b8f578063d70a63cc14610a00578063d7aa472a14610bb657600080fd5b8063a1978c3c116101a8578063b936325c11610177578063b936325c1461071f578063ba68817514610af3578063bf48189e14610b1a578063cc9c92ae14610aa5578063d0fdd6af14610b4157600080fd5b8063a1978c3c14610a75578063a6aca97614610a9c578063acb4193614610aa5578063aed4334914610acc57600080fd5b8063898611fd116101e4578063898611fd146109d9578063901660c414610a00578063924f0a1514610a27578063a127ed8614610a4e57600080fd5b806373354b601461093d578063742797c4146109645780637fdf8fc11461098b578063839a60d0146109b257600080fd5b806332148d47116103105780634d01c5a0116102a357806359b396b51161027257806359b396b51461087a5780635bf9f093146108a15780636076d7ed146108c85780636336ec6c146108ef5780636a5935a71461091657600080fd5b80634d01c5a0146107e25780634e528e9f146108055780634e890b271461082c57806350def9051461085357600080fd5b806341fe6a9a116102df57806341fe6a9a146107465780634234a1d61461076d57806345ce05a8146107945780634b750a92146107bb57600080fd5b806332148d47146106aa57806336b397dc146106d157806339637503146106f85780633a9e6a4d1461071f57600080fd5b80631c4d4406116103935780632c0556ed116103625780632c0556ed146105e75780632d5274481461060e5780632dacca561461063557806330c1731c1461065c57806331aa5e261461068357600080fd5b80631c4d44061461054b57806324934a1114610572578063286f014b1461059957806328e44695146105c057600080fd5b80630ddec475116103cf5780630ddec475146104b05780630de199a5146104d75780631077f544146104fd57806311fbfe661461052457600080fd5b8063020206541461040157806308cceecf1461043b5780630c99ab7c146104625780630cbb35c314610489575b600080fd5b6104287f055e94309540a584545a2b1943e1fa6d6f3fa6575e1fdfcd7c46cb9f625dcb9981565b6040519081526020015b60405180910390f35b6104287f184a4c79ede95722e4bc75a9e2129c68913cf53bf0434afb2401add99c84e37c81565b6104287f14267c8fff65137d54c38dcdc86443fd8506601db683d68535f3ff94e648accb81565b6104287f07b31d3d89ba21bdaf376f1f739b3608d372345447a29f5a3705282fc3fcc49181565b6104287f30644e72e131a029b85045b68181585d2833e84879b9709143e1f593f000000181565b6104287ede0d739e1cf434dbe75c21e88c54326e183e9646efd5f9cbd5562a8475157681565b6104287f0d2f11e1df72fb415b17f4b37c7f00bf88c6f1687256fc2e1ec2fa610bec9b9081565b6104287f2bf41e7d2a81b2f6d9b7afcf060c5378042bd234ea3bf02b15d7e33717490afc81565b6104287f1739c1b1a457a8c7313123d24d2f9192f896b7c63eea05a9d57f06547ad0cec881565b6104287f2078a5d9f938b2ea67e4f636be9e685121d03a4d3cbc8b011831e7d7fc65733681565b6104287f09908ea9fd743c383603eeb038332496671b8514ed31e2705aa8a29dc63e8be681565b6104287f1bd03c1b7c02b082329f20674a684cd95cc0c481905140eb0d7d8b6e125819de81565b6104287f24237dda85a0741345683f9001739d0e4b5c6f6b61b7bfd0102cc934a947edae81565b6104287f2ed57b4ab48879bc6a30d2247ba01eff979e049b5522b513cb0abb65f36a8db181565b6104287f2a9db361d4314094878b3c10bdac537954f27f7854e6e1f084450130bd8a8af881565b6104287f24bf9afa2425faea005bc5cc509eb51d9f648ed24b59dfc1f016fcc8d9eade0d81565b6104287f0c7ac804d9b9bea28c49bbc545a4ae26b1a3c1d8f23577120e77f6095ee394a781565b6104287f2eb2501674bb64ef0efda3b061faa56ad771e55dd4296eb2a0adaa5dc74092d381565b6104287f1f1530e92027b80ecd82fa1eeab105f6dd267f0ceb71649ab822fee789ae75f381565b6104287f0e51b16f7f2f99de84098ebba1f1d3417c7bc9c6a5efa1993396c126e1543b7a81565b6104287f090689d0585ff075ec9e99ad690c3395bc4b313370b38ef355acdadcd122975b81565b6104287f24af836781114c83725edadda0aae456b73adb0cd7cdd0ab7e0cb2c46256a27681565b6104287f2fe76200b1ee9dbb795a42bc9ddd5c85b829d46fdaae050f4a6a5cca945cb4aa81565b6104287f05fad4fc403de2af20771e759fa2729262c189477cd3d3616d8dce926aa3a5b581565b6104287f1a3774f449f2b1ab74b10b2f786b76a70c7dcffcf42920c2a248aacc6042e09081565b6107f56107f0366004611bb7565b610db0565b6040519015158152602001610432565b6104287f0258cce5e15404e5e1b1695dfd58b3a3be26c1a7eef93775f7b3b77b63da11fb81565b6104287f085eaa09c8ae7d24bc814123a9c44391eb5f8a407d47e4b0336c158ef6e4438881565b6104287f1ae026c0599b1a9a709f240c46f449ad2fe995775550a45e18835932bd71fd6181565b6104287f27d7b535d6a9c83c064ba6c0b29328a1455048cb7c187b4d64df853cb14c81a381565b6104287f01e812a57d6d5026220d869b64d56e415bc0cf9d0b10a994035061f4319d806781565b6104287f2149668511f2da35cb3b5e44d2abb568f819008742c189b4a6bdfd0be56666b181565b6104287f1660cb6f46896e4a26c4e10c0e1cd83a36d4524a18883008ab4820ce4035e76381565b6104287f14bedd503c37ceb061d8ec60209fe345ce89830a19230301f076caff004d192681565b6104287f1d79623aa57462efda609ec71d972a1ee11b077f6f0331ee2d8f3e479fa6f30381565b6104287f0e23819dbe544e4eef2ba90baf05052e01346100615d2f1eb4389d0fa8467ae281565b6104287f0e187847ad4c798374d0d6732bf501847dd68bc0e071241e0213bc7fc13db7ab81565b6104287f30644e72e131a029b85045b68181585d97816a916871ca8d3c208c16d87cfd4781565b6104287f2ef7dc19472f4c5a11b7b26fc2a118e4417618e7c7f18391c05a202bcf0c1b8c81565b6104287f198e9393920d483a7260bfb731fb5d25f1aa493335a9e71297e485b7aef312c281565b6104287f2e236666fe18ed18253a1d13443c816545c632f44b7ff16880aae4f88d26f7d781565b6104287f2674561d11378ba989471653ac0beb60fd51587f4b8b7c9b970f81d0117ccf1381565b6104287f14c15a03f789a78f4a7905e01dad3a3f6f98f963568f5c8cde2b4e48c5ea20f781565b61042861030081565b6104287f12c85ea5db8c6deb4aab71808dcb408fe3d1e7690c43d37b4ce6cc0166fa7daa81565b6104287f2f527ced9fdf4d4852ff9d25ed3aa213fa5a1f6cd293bb538721e9620dbaef6981565b6104287f26541b41faea776f2c39021d7ca86627c5939528301225b1ab82125c5d4d837081565b6104287f085a38ade53fa5e091e072e566c400ac5b151f64bf819ea772d5109dd6566cdd81565b6104287f0c284a7fe138d4cdc90f91bd16cd11331c02dc7f31f53b63d06538f5556b3e1281565b6104287f2d4d9aa7e302d9df41749d5507949d05dbea33fbb16c643b22f599a2be6df2e281565b6104287f0c59fee267aa8005ced7734a590e95422026d6f4b36b724599d3b053ef6d83c381565b6104287f2d735f27514dc246ed5610045b5417db14fc400ec46bba4a490f28618b1e1f1b81565b6104287f1e8a25a871ef1cb921aecab28e7ca4d955a190e165485166c2b7a6342632eae581565b6104287f288b4cb73b78d003b31c475b5691202cd0bbc3bc0f592d37b6a4bd8a7828198381565b6104287f0967032fcbf776d1afc985f88877f182d38480a653f2decaa9794cbc3bf3060c81565b6104287f2aef93881c2dc3eaa42c2640f418591d8aacdc383c6b06688d5bd96d430d128f81565b6104287f304cfbd1e08a704a99f5e847d93f8c3caafddec46b7a0d379da69a4d112346a781565b6104287f1800deef121f1e76426a00665e5c4479674322d4f75edadd46debd5cd992f6ed81565b6104287f1e08792193298dc465a34b5f6147c17773c8deb3c4cef904e1cda6459fd0fa4e81565b6104287f2baff3dca18fd73b6cfeb57356c3f5f080fc4e8295ba9e10f065aed85591d78981565b6104287e48c18a515eb7212fa829d19fad606602d5c614c19b50830521d4a613b5adef81565b6104287f1b45ae2cf143545db9a131f50578847cb5be75d367da42f7d813df838355ff1781565b6104287f2cf831bff6c50dcf5b3bf4668c774ae002817b5eb91ff7659c6291745fdabdea81565b6104287f253483399961a54479888bd619a7f8763aaec837e423f0fc87fb87874a5caa8381565b600061194a565b7f30644e72e131a029b85045b68181585d2833e84879b9709143e1f593f00000011190565b816040820152826060820152836080820152600060408083016060604085016007611770fa3d15151690508015610e1f5760408260808460066096fa3d15151690505b949350505050565b7f1660cb6f46896e4a26c4e10c0e1cd83a36d4524a18883008ab4820ce4035e76385527f0e23819dbe544e4eef2ba90baf05052e01346100615d2f1eb4389d0fa8467ae260208601526000610ec260008601517f14c15a03f789a78f4a7905e01dad3a3f6f98f963568f5c8cde2b4e48c5ea20f77f0c59fee267aa8005ced7734a590e95422026d6f4b36b724599d3b053ef6d83c389610ddc565b1561194157610f1760208601517f07b31d3d89ba21bdaf376f1f739b3608d372345447a29f5a3705282fc3fcc4917f2aef93881c2dc3eaa42c2640f418591d8aacdc383c6b06688d5bd96d430d128f89610ddc565b1561194157610f6c60408601517f1ae026c0599b1a9a709f240c46f449ad2fe995775550a45e18835932bd71fd617f2fe76200b1ee9dbb795a42bc9ddd5c85b829d46fdaae050f4a6a5cca945cb4aa89610ddc565b1561194157610fc160608601517f085eaa09c8ae7d24bc814123a9c44391eb5f8a407d47e4b0336c158ef6e443887f253483399961a54479888bd619a7f8763aaec837e423f0fc87fb87874a5caa8389610ddc565b156119415761101660808601517f2078a5d9f938b2ea67e4f636be9e685121d03a4d3cbc8b011831e7d7fc6573367f2ef7dc19472f4c5a11b7b26fc2a118e4417618e7c7f18391c05a202bcf0c1b8c89610ddc565b156119415761106b60a08601517f085a38ade53fa5e091e072e566c400ac5b151f64bf819ea772d5109dd6566cdd7f2f527ced9fdf4d4852ff9d25ed3aa213fa5a1f6cd293bb538721e9620dbaef6989610ddc565b15611941576110c060c08601517f24237dda85a0741345683f9001739d0e4b5c6f6b61b7bfd0102cc934a947edae7f0c7ac804d9b9bea28c49bbc545a4ae26b1a3c1d8f23577120e77f6095ee394a789610ddc565b156119415761111560e08601517f2a9db361d4314094878b3c10bdac537954f27f7854e6e1f084450130bd8a8af87f24af836781114c83725edadda0aae456b73adb0cd7cdd0ab7e0cb2c46256a27689610ddc565b156119415761116b6101008601517f1bd03c1b7c02b082329f20674a684cd95cc0c481905140eb0d7d8b6e125819de7f288b4cb73b78d003b31c475b5691202cd0bbc3bc0f592d37b6a4bd8a7828198389610ddc565b15611941576111c06101208601517e48c18a515eb7212fa829d19fad606602d5c614c19b50830521d4a613b5adef7f2bf41e7d2a81b2f6d9b7afcf060c5378042bd234ea3bf02b15d7e33717490afc89610ddc565b15611941576112166101408601517f1d79623aa57462efda609ec71d972a1ee11b077f6f0331ee2d8f3e479fa6f3037f0e51b16f7f2f99de84098ebba1f1d3417c7bc9c6a5efa1993396c126e1543b7a89610ddc565b156119415761126c6101608601517f26541b41faea776f2c39021d7ca86627c5939528301225b1ab82125c5d4d83707f2674561d11378ba989471653ac0beb60fd51587f4b8b7c9b970f81d0117ccf1389610ddc565b15611941576112c26101808601517f0d2f11e1df72fb415b17f4b37c7f00bf88c6f1687256fc2e1ec2fa610bec9b907f1f1530e92027b80ecd82fa1eeab105f6dd267f0ceb71649ab822fee789ae75f389610ddc565b15611941576113186101a08601517f2baff3dca18fd73b6cfeb57356c3f5f080fc4e8295ba9e10f065aed85591d7897f1e8a25a871ef1cb921aecab28e7ca4d955a190e165485166c2b7a6342632eae589610ddc565b156119415761136e6101c08601517f24bf9afa2425faea005bc5cc509eb51d9f648ed24b59dfc1f016fcc8d9eade0d7f1a3774f449f2b1ab74b10b2f786b76a70c7dcffcf42920c2a248aacc6042e09089610ddc565b15611941576113c46101e08601517f2eb2501674bb64ef0efda3b061faa56ad771e55dd4296eb2a0adaa5dc74092d37f1e08792193298dc465a34b5f6147c17773c8deb3c4cef904e1cda6459fd0fa4e89610ddc565b156119415761141a6102008601517f2ed57b4ab48879bc6a30d2247ba01eff979e049b5522b513cb0abb65f36a8db17f09908ea9fd743c383603eeb038332496671b8514ed31e2705aa8a29dc63e8be689610ddc565b15611941576114706102208601517f0c284a7fe138d4cdc90f91bd16cd11331c02dc7f31f53b63d06538f5556b3e127f05fad4fc403de2af20771e759fa2729262c189477cd3d3616d8dce926aa3a5b589610ddc565b15611941576114c66102408601517f2149668511f2da35cb3b5e44d2abb568f819008742c189b4a6bdfd0be56666b17f27d7b535d6a9c83c064ba6c0b29328a1455048cb7c187b4d64df853cb14c81a389610ddc565b156119415761151c6102608601517f01e812a57d6d5026220d869b64d56e415bc0cf9d0b10a994035061f4319d80677f055e94309540a584545a2b1943e1fa6d6f3fa6575e1fdfcd7c46cb9f625dcb9989610ddc565b15611941576115726102808601517f0258cce5e15404e5e1b1695dfd58b3a3be26c1a7eef93775f7b3b77b63da11fb7f2d735f27514dc246ed5610045b5417db14fc400ec46bba4a490f28618b1e1f1b89610ddc565b15611941576115c86102a08601517f2e236666fe18ed18253a1d13443c816545c632f44b7ff16880aae4f88d26f7d77f14267c8fff65137d54c38dcdc86443fd8506601db683d68535f3ff94e648accb89610ddc565b156119415761161d6102c08601517f184a4c79ede95722e4bc75a9e2129c68913cf53bf0434afb2401add99c84e37c7ede0d739e1cf434dbe75c21e88c54326e183e9646efd5f9cbd5562a8475157689610ddc565b15611941576116736102e08601517f2cf831bff6c50dcf5b3bf4668c774ae002817b5eb91ff7659c6291745fdabdea7f1b45ae2cf143545db9a131f50578847cb5be75d367da42f7d813df838355ff1789610ddc565b15611941577f198e9393920d483a7260bfb731fb5d25f1aa493335a9e71297e485b7aef312c260408701527f1800deef121f1e76426a00665e5c4479674322d4f75edadd46debd5cd992f6ed60608701527f090689d0585ff075ec9e99ad690c3395bc4b313370b38ef355acdadcd122975b60808701527f12c85ea5db8c6deb4aab71808dcb408fe3d1e7690c43d37b4ce6cc0166fa7daa60a0870152815160c08701527f30644e72e131a029b85045b68181585d97816a916871ca8d3c208c16d87cfd4760208301517f30644e72e131a029b85045b68181585d97816a916871ca8d3c208c16d87cfd47030660e087015282515161010087015260208351015161012087015260208301515161014087015260208084015101516101608701527f2d4d9aa7e302d9df41749d5507949d05dbea33fbb16c643b22f599a2be6df2e26101808701527f14bedd503c37ceb061d8ec60209fe345ce89830a19230301f076caff004d19266101a08701527f0967032fcbf776d1afc985f88877f182d38480a653f2decaa9794cbc3bf3060c6101c08701527f0e187847ad4c798374d0d6732bf501847dd68bc0e071241e0213bc7fc13db7ab6101e08701527f304cfbd1e08a704a99f5e847d93f8c3caafddec46b7a0d379da69a4d112346a76102008701527f1739c1b1a457a8c7313123d24d2f9192f896b7c63eea05a9d57f06547ad0cec8610220870152835161024087015260208401516102608701527f198e9393920d483a7260bfb731fb5d25f1aa493335a9e71297e485b7aef312c26102808701527f1800deef121f1e76426a00665e5c4479674322d4f75edadd46debd5cd992f6ed6102a08701527f090689d0585ff075ec9e99ad690c3395bc4b313370b38ef355acdadcd122975b6102c08701527f12c85ea5db8c6deb4aab71808dcb408fe3d1e7690c43d37b4ce6cc0166fa7daa6102e08701526020866103008860086202c308fa86511690505b95945050505050565b6040516103008101604052600191506119666000840151610db7565b821691506119776020840151610db7565b821691506119886040840151610db7565b821691506119996060840151610db7565b821691506119aa6080840151610db7565b821691506119bb60a0840151610db7565b821691506119cc60c0840151610db7565b821691506119dd60e0840151610db7565b821691506119ef610100840151610db7565b82169150611a01610120840151610db7565b82169150611a13610140840151610db7565b82169150611a25610160840151610db7565b82169150611a37610180840151610db7565b82169150611a496101a0840151610db7565b82169150611a5b6101c0840151610db7565b82169150611a6d6101e0840151610db7565b82169150611a7f610200840151610db7565b82169150611a91610220840151610db7565b82169150611aa3610240840151610db7565b82169150611ab5610260840151610db7565b82169150611ac7610280840151610db7565b82169150611ad96102a0840151610db7565b82169150611aeb6102c0840151610db7565b82169150611afd6102e0840151610db7565b8216915081151915611b1957611b16818486888a610e27565b91505b50949350505050565b604051601f8201601f1916810167ffffffffffffffff81118282101715611b5957634e487b7160e01b600052604160045260246000fd5b604052919050565b600082601f830112611b7257600080fd5b6000611b7e6040611b22565b9050806040840185811115611b9257600080fd5b845b81811015611bac578035835260209283019201611b94565b509195945050505050565b6000806000806104008587031215611bce57600080fd5b611bd88686611b61565b935085605f860112611be957600080fd5b6040611bf481611b22565b8060c0880189811115611c0657600080fd5b8389015b81811015611c2b57611c1c8b82611b61565b84526020909301928401611c0a565b50819650611c398a82611b61565b9550505050506101008501600087601f830112611c54578081fd5b80610300611c6181611b22565b91508301818a821115611c72578384fd5b5b81851015611c8b578435815260209485019401611c73565b50969995985093965092945050505056fea26469706673582212202692713cf849b5cd3765393b3ac41ef8889592513ca96cc3f58be06d62d4862164736f6c634300081b0033","opcodes":"PUSH1 0x80 PUSH1 0x40 MSTORE CALLVALUE DUP1 ISZERO PUSH1 0xF JUMPI PUSH1 0x0 DUP1 REVERT JUMPDEST POP PUSH2 0x1CD2 DUP1 PUSH2 0x1F PUSH1 0x0 CODECOPY PUSH1 0x0 RETURN INVALID PUSH1 0x80 PUSH1 0x40 MSTORE CALLVALUE DUP1 ISZERO PUSH2 0x10 JUMPI PUSH1 0x0 DUP1 REVERT JUMPDEST POP PUSH1 0x4 CALLDATASIZE LT PUSH2 0x3FC JUMPI PUSH1 0x0 CALLDATALOAD PUSH1 0xE0 SHR DUP1 PUSH4 0x73354B60 GT PUSH2 0x215 JUMPI DUP1 PUSH4 0xD1FB02A3 GT PUSH2 0x125 JUMPI DUP1 PUSH4 0xDD924B47 GT PUSH2 0xB8 JUMPI DUP1 PUSH4 0xE848DD6F GT PUSH2 0x87 JUMPI DUP1 PUSH4 0xE848DD6F EQ PUSH2 0xD15 JUMPI DUP1 PUSH4 0xEB38888B EQ PUSH2 0xD3B JUMPI DUP1 PUSH4 0xEEB9F2E4 EQ PUSH2 0xD62 JUMPI DUP1 PUSH4 0xEEDEE58F EQ PUSH2 0xD89 JUMPI DUP1 PUSH4 0xF7A65AAE EQ PUSH2 0xCA0 JUMPI PUSH1 0x0 DUP1 REVERT JUMPDEST DUP1 PUSH4 0xDD924B47 EQ PUSH2 0xC79 JUMPI DUP1 PUSH4 0xDFCF46F0 EQ PUSH2 0xCA0 JUMPI DUP1 PUSH4 0xE11E8EE2 EQ PUSH2 0xCC7 JUMPI DUP1 PUSH4 0xE834DBDD EQ PUSH2 0xCEE JUMPI PUSH1 0x0 DUP1 REVERT JUMPDEST DUP1 PUSH4 0xD8C710E0 GT PUSH2 0xF4 JUMPI DUP1 PUSH4 0xD8C710E0 EQ PUSH2 0xBDD JUMPI DUP1 PUSH4 0xDACB4E69 EQ PUSH2 0xC04 JUMPI DUP1 PUSH4 0xDC05A822 EQ PUSH2 0xC2B JUMPI DUP1 PUSH4 0xDCE42004 EQ PUSH2 0xC52 JUMPI PUSH1 0x0 DUP1 REVERT JUMPDEST DUP1 PUSH4 0xD1FB02A3 EQ PUSH2 0xB68 JUMPI DUP1 PUSH4 0xD663B365 EQ PUSH2 0xB8F JUMPI DUP1 PUSH4 0xD70A63CC EQ PUSH2 0xA00 JUMPI DUP1 PUSH4 0xD7AA472A EQ PUSH2 0xBB6 JUMPI PUSH1 0x0 DUP1 REVERT JUMPDEST DUP1 PUSH4 0xA1978C3C GT PUSH2 0x1A8 JUMPI DUP1 PUSH4 0xB936325C GT PUSH2 0x177 JUMPI DUP1 PUSH4 0xB936325C EQ PUSH2 0x71F JUMPI DUP1 PUSH4 0xBA688175 EQ PUSH2 0xAF3 JUMPI DUP1 PUSH4 0xBF48189E EQ PUSH2 0xB1A JUMPI DUP1 PUSH4 0xCC9C92AE EQ PUSH2 0xAA5 JUMPI DUP1 PUSH4 0xD0FDD6AF EQ PUSH2 0xB41 JUMPI PUSH1 0x0 DUP1 REVERT JUMPDEST DUP1 PUSH4 0xA1978C3C EQ PUSH2 0xA75 JUMPI DUP1 PUSH4 0xA6ACA976 EQ PUSH2 0xA9C JUMPI DUP1 PUSH4 0xACB41936 EQ PUSH2 0xAA5 JUMPI DUP1 PUSH4 0xAED43349 EQ PUSH2 0xACC JUMPI PUSH1 0x0 DUP1 REVERT JUMPDEST DUP1 PUSH4 0x898611FD GT PUSH2 0x1E4 JUMPI DUP1 PUSH4 0x898611FD EQ PUSH2 0x9D9 JUMPI DUP1 PUSH4 0x901660C4 EQ PUSH2 0xA00 JUMPI DUP1 PUSH4 0x924F0A15 EQ PUSH2 0xA27 JUMPI DUP1 PUSH4 0xA127ED86 EQ PUSH2 0xA4E JUMPI PUSH1 0x0 DUP1 REVERT JUMPDEST DUP1 PUSH4 0x73354B60 EQ PUSH2 0x93D JUMPI DUP1 PUSH4 0x742797C4 EQ PUSH2 0x964 JUMPI DUP1 PUSH4 0x7FDF8FC1 EQ PUSH2 0x98B JUMPI DUP1 PUSH4 0x839A60D0 EQ PUSH2 0x9B2 JUMPI PUSH1 0x0 DUP1 REVERT JUMPDEST DUP1 PUSH4 0x32148D47 GT PUSH2 0x310 JUMPI DUP1 PUSH4 0x4D01C5A0 GT PUSH2 0x2A3 JUMPI DUP1 PUSH4 0x59B396B5 GT PUSH2 0x272 JUMPI DUP1 PUSH4 0x59B396B5 EQ PUSH2 0x87A JUMPI DUP1 PUSH4 0x5BF9F093 EQ PUSH2 0x8A1 JUMPI DUP1 PUSH4 0x6076D7ED EQ PUSH2 0x8C8 JUMPI DUP1 PUSH4 0x6336EC6C EQ PUSH2 0x8EF JUMPI DUP1 PUSH4 0x6A5935A7 EQ PUSH2 0x916 JUMPI PUSH1 0x0 DUP1 REVERT JUMPDEST DUP1 PUSH4 0x4D01C5A0 EQ PUSH2 0x7E2 JUMPI DUP1 PUSH4 0x4E528E9F EQ PUSH2 0x805 JUMPI DUP1 PUSH4 0x4E890B27 EQ PUSH2 0x82C JUMPI DUP1 PUSH4 0x50DEF905 EQ PUSH2 0x853 JUMPI PUSH1 0x0 DUP1 REVERT JUMPDEST DUP1 PUSH4 0x41FE6A9A GT PUSH2 0x2DF JUMPI DUP1 PUSH4 0x41FE6A9A EQ PUSH2 0x746 JUMPI DUP1 PUSH4 0x4234A1D6 EQ PUSH2 0x76D JUMPI DUP1 PUSH4 0x45CE05A8 EQ PUSH2 0x794 JUMPI DUP1 PUSH4 0x4B750A92 EQ PUSH2 0x7BB JUMPI PUSH1 0x0 DUP1 REVERT JUMPDEST DUP1 PUSH4 0x32148D47 EQ PUSH2 0x6AA JUMPI DUP1 PUSH4 0x36B397DC EQ PUSH2 0x6D1 JUMPI DUP1 PUSH4 0x39637503 EQ PUSH2 0x6F8 JUMPI DUP1 PUSH4 0x3A9E6A4D EQ PUSH2 0x71F JUMPI PUSH1 0x0 DUP1 REVERT JUMPDEST DUP1 PUSH4 0x1C4D4406 GT PUSH2 0x393 JUMPI DUP1 PUSH4 0x2C0556ED GT PUSH2 0x362 JUMPI DUP1 PUSH4 0x2C0556ED EQ PUSH2 0x5E7 JUMPI DUP1 PUSH4 0x2D527448 EQ PUSH2 0x60E JUMPI DUP1 PUSH4 0x2DACCA56 EQ PUSH2 0x635 JUMPI DUP1 PUSH4 0x30C1731C EQ PUSH2 0x65C JUMPI DUP1 PUSH4 0x31AA5E26 EQ PUSH2 0x683 JUMPI PUSH1 0x0 DUP1 REVERT JUMPDEST DUP1 PUSH4 0x1C4D4406 EQ PUSH2 0x54B JUMPI DUP1 PUSH4 0x24934A11 EQ PUSH2 0x572 JUMPI DUP1 PUSH4 0x286F014B EQ PUSH2 0x599 JUMPI DUP1 PUSH4 0x28E44695 EQ PUSH2 0x5C0 JUMPI PUSH1 0x0 DUP1 REVERT JUMPDEST DUP1 PUSH4 0xDDEC475 GT PUSH2 0x3CF JUMPI DUP1 PUSH4 0xDDEC475 EQ PUSH2 0x4B0 JUMPI DUP1 PUSH4 0xDE199A5 EQ PUSH2 0x4D7 JUMPI DUP1 PUSH4 0x1077F544 EQ PUSH2 0x4FD JUMPI DUP1 PUSH4 0x11FBFE66 EQ PUSH2 0x524 JUMPI PUSH1 0x0 DUP1 REVERT JUMPDEST DUP1 PUSH4 0x2020654 EQ PUSH2 0x401 JUMPI DUP1 PUSH4 0x8CCEECF EQ PUSH2 0x43B JUMPI DUP1 PUSH4 0xC99AB7C EQ PUSH2 0x462 JUMPI DUP1 PUSH4 0xCBB35C3 EQ PUSH2 0x489 JUMPI JUMPDEST PUSH1 0x0 DUP1 REVERT JUMPDEST PUSH2 0x428 PUSH32 0x55E94309540A584545A2B1943E1FA6D6F3FA6575E1FDFCD7C46CB9F625DCB99 DUP2 JUMP JUMPDEST PUSH1 0x40 MLOAD SWAP1 DUP2 MSTORE PUSH1 0x20 ADD JUMPDEST PUSH1 0x40 MLOAD DUP1 SWAP2 SUB SWAP1 RETURN JUMPDEST PUSH2 0x428 PUSH32 0x184A4C79EDE95722E4BC75A9E2129C68913CF53BF0434AFB2401ADD99C84E37C DUP2 JUMP JUMPDEST PUSH2 0x428 PUSH32 0x14267C8FFF65137D54C38DCDC86443FD8506601DB683D68535F3FF94E648ACCB DUP2 JUMP JUMPDEST PUSH2 0x428 PUSH32 0x7B31D3D89BA21BDAF376F1F739B3608D372345447A29F5A3705282FC3FCC491 DUP2 JUMP JUMPDEST PUSH2 0x428 PUSH32 0x30644E72E131A029B85045B68181585D2833E84879B9709143E1F593F0000001 DUP2 JUMP JUMPDEST PUSH2 0x428 PUSH31 0xDE0D739E1CF434DBE75C21E88C54326E183E9646EFD5F9CBD5562A84751576 DUP2 JUMP JUMPDEST PUSH2 0x428 PUSH32 0xD2F11E1DF72FB415B17F4B37C7F00BF88C6F1687256FC2E1EC2FA610BEC9B90 DUP2 JUMP JUMPDEST PUSH2 0x428 PUSH32 0x2BF41E7D2A81B2F6D9B7AFCF060C5378042BD234EA3BF02B15D7E33717490AFC DUP2 JUMP JUMPDEST PUSH2 0x428 PUSH32 0x1739C1B1A457A8C7313123D24D2F9192F896B7C63EEA05A9D57F06547AD0CEC8 DUP2 JUMP JUMPDEST PUSH2 0x428 PUSH32 0x2078A5D9F938B2EA67E4F636BE9E685121D03A4D3CBC8B011831E7D7FC657336 DUP2 JUMP JUMPDEST PUSH2 0x428 PUSH32 0x9908EA9FD743C383603EEB038332496671B8514ED31E2705AA8A29DC63E8BE6 DUP2 JUMP JUMPDEST PUSH2 0x428 PUSH32 0x1BD03C1B7C02B082329F20674A684CD95CC0C481905140EB0D7D8B6E125819DE DUP2 JUMP JUMPDEST PUSH2 0x428 PUSH32 0x24237DDA85A0741345683F9001739D0E4B5C6F6B61B7BFD0102CC934A947EDAE DUP2 JUMP JUMPDEST PUSH2 0x428 PUSH32 0x2ED57B4AB48879BC6A30D2247BA01EFF979E049B5522B513CB0ABB65F36A8DB1 DUP2 JUMP JUMPDEST PUSH2 0x428 PUSH32 0x2A9DB361D4314094878B3C10BDAC537954F27F7854E6E1F084450130BD8A8AF8 DUP2 JUMP JUMPDEST PUSH2 0x428 PUSH32 0x24BF9AFA2425FAEA005BC5CC509EB51D9F648ED24B59DFC1F016FCC8D9EADE0D DUP2 JUMP JUMPDEST PUSH2 0x428 PUSH32 0xC7AC804D9B9BEA28C49BBC545A4AE26B1A3C1D8F23577120E77F6095EE394A7 DUP2 JUMP JUMPDEST PUSH2 0x428 PUSH32 0x2EB2501674BB64EF0EFDA3B061FAA56AD771E55DD4296EB2A0ADAA5DC74092D3 DUP2 JUMP JUMPDEST PUSH2 0x428 PUSH32 0x1F1530E92027B80ECD82FA1EEAB105F6DD267F0CEB71649AB822FEE789AE75F3 DUP2 JUMP JUMPDEST PUSH2 0x428 PUSH32 0xE51B16F7F2F99DE84098EBBA1F1D3417C7BC9C6A5EFA1993396C126E1543B7A DUP2 JUMP JUMPDEST PUSH2 0x428 PUSH32 0x90689D0585FF075EC9E99AD690C3395BC4B313370B38EF355ACDADCD122975B DUP2 JUMP JUMPDEST PUSH2 0x428 PUSH32 0x24AF836781114C83725EDADDA0AAE456B73ADB0CD7CDD0AB7E0CB2C46256A276 DUP2 JUMP JUMPDEST PUSH2 0x428 PUSH32 0x2FE76200B1EE9DBB795A42BC9DDD5C85B829D46FDAAE050F4A6A5CCA945CB4AA DUP2 JUMP JUMPDEST PUSH2 0x428 PUSH32 0x5FAD4FC403DE2AF20771E759FA2729262C189477CD3D3616D8DCE926AA3A5B5 DUP2 JUMP JUMPDEST PUSH2 0x428 PUSH32 0x1A3774F449F2B1AB74B10B2F786B76A70C7DCFFCF42920C2A248AACC6042E090 DUP2 JUMP JUMPDEST PUSH2 0x7F5 PUSH2 0x7F0 CALLDATASIZE PUSH1 0x4 PUSH2 0x1BB7 JUMP JUMPDEST PUSH2 0xDB0 JUMP JUMPDEST PUSH1 0x40 MLOAD SWAP1 ISZERO ISZERO DUP2 MSTORE PUSH1 0x20 ADD PUSH2 0x432 JUMP JUMPDEST PUSH2 0x428 PUSH32 0x258CCE5E15404E5E1B1695DFD58B3A3BE26C1A7EEF93775F7B3B77B63DA11FB DUP2 JUMP JUMPDEST PUSH2 0x428 PUSH32 0x85EAA09C8AE7D24BC814123A9C44391EB5F8A407D47E4B0336C158EF6E44388 DUP2 JUMP JUMPDEST PUSH2 0x428 PUSH32 0x1AE026C0599B1A9A709F240C46F449AD2FE995775550A45E18835932BD71FD61 DUP2 JUMP JUMPDEST PUSH2 0x428 PUSH32 0x27D7B535D6A9C83C064BA6C0B29328A1455048CB7C187B4D64DF853CB14C81A3 DUP2 JUMP JUMPDEST PUSH2 0x428 PUSH32 0x1E812A57D6D5026220D869B64D56E415BC0CF9D0B10A994035061F4319D8067 DUP2 JUMP JUMPDEST PUSH2 0x428 PUSH32 0x2149668511F2DA35CB3B5E44D2ABB568F819008742C189B4A6BDFD0BE56666B1 DUP2 JUMP JUMPDEST PUSH2 0x428 PUSH32 0x1660CB6F46896E4A26C4E10C0E1CD83A36D4524A18883008AB4820CE4035E763 DUP2 JUMP JUMPDEST PUSH2 0x428 PUSH32 0x14BEDD503C37CEB061D8EC60209FE345CE89830A19230301F076CAFF004D1926 DUP2 JUMP JUMPDEST PUSH2 0x428 PUSH32 0x1D79623AA57462EFDA609EC71D972A1EE11B077F6F0331EE2D8F3E479FA6F303 DUP2 JUMP JUMPDEST PUSH2 0x428 PUSH32 0xE23819DBE544E4EEF2BA90BAF05052E01346100615D2F1EB4389D0FA8467AE2 DUP2 JUMP JUMPDEST PUSH2 0x428 PUSH32 0xE187847AD4C798374D0D6732BF501847DD68BC0E071241E0213BC7FC13DB7AB DUP2 JUMP JUMPDEST PUSH2 0x428 PUSH32 0x30644E72E131A029B85045B68181585D97816A916871CA8D3C208C16D87CFD47 DUP2 JUMP JUMPDEST PUSH2 0x428 PUSH32 0x2EF7DC19472F4C5A11B7B26FC2A118E4417618E7C7F18391C05A202BCF0C1B8C DUP2 JUMP JUMPDEST PUSH2 0x428 PUSH32 0x198E9393920D483A7260BFB731FB5D25F1AA493335A9E71297E485B7AEF312C2 DUP2 JUMP JUMPDEST PUSH2 0x428 PUSH32 0x2E236666FE18ED18253A1D13443C816545C632F44B7FF16880AAE4F88D26F7D7 DUP2 JUMP JUMPDEST PUSH2 0x428 PUSH32 0x2674561D11378BA989471653AC0BEB60FD51587F4B8B7C9B970F81D0117CCF13 DUP2 JUMP JUMPDEST PUSH2 0x428 PUSH32 0x14C15A03F789A78F4A7905E01DAD3A3F6F98F963568F5C8CDE2B4E48C5EA20F7 DUP2 JUMP JUMPDEST PUSH2 0x428 PUSH2 0x300 DUP2 JUMP JUMPDEST PUSH2 0x428 PUSH32 0x12C85EA5DB8C6DEB4AAB71808DCB408FE3D1E7690C43D37B4CE6CC0166FA7DAA DUP2 JUMP JUMPDEST PUSH2 0x428 PUSH32 0x2F527CED9FDF4D4852FF9D25ED3AA213FA5A1F6CD293BB538721E9620DBAEF69 DUP2 JUMP JUMPDEST PUSH2 0x428 PUSH32 0x26541B41FAEA776F2C39021D7CA86627C5939528301225B1AB82125C5D4D8370 DUP2 JUMP JUMPDEST PUSH2 0x428 PUSH32 0x85A38ADE53FA5E091E072E566C400AC5B151F64BF819EA772D5109DD6566CDD DUP2 JUMP JUMPDEST PUSH2 0x428 PUSH32 0xC284A7FE138D4CDC90F91BD16CD11331C02DC7F31F53B63D06538F5556B3E12 DUP2 JUMP JUMPDEST PUSH2 0x428 PUSH32 0x2D4D9AA7E302D9DF41749D5507949D05DBEA33FBB16C643B22F599A2BE6DF2E2 DUP2 JUMP JUMPDEST PUSH2 0x428 PUSH32 0xC59FEE267AA8005CED7734A590E95422026D6F4B36B724599D3B053EF6D83C3 DUP2 JUMP JUMPDEST PUSH2 0x428 PUSH32 0x2D735F27514DC246ED5610045B5417DB14FC400EC46BBA4A490F28618B1E1F1B DUP2 JUMP JUMPDEST PUSH2 0x428 PUSH32 0x1E8A25A871EF1CB921AECAB28E7CA4D955A190E165485166C2B7A6342632EAE5 DUP2 JUMP JUMPDEST PUSH2 0x428 PUSH32 0x288B4CB73B78D003B31C475B5691202CD0BBC3BC0F592D37B6A4BD8A78281983 DUP2 JUMP JUMPDEST PUSH2 0x428 PUSH32 0x967032FCBF776D1AFC985F88877F182D38480A653F2DECAA9794CBC3BF3060C DUP2 JUMP JUMPDEST PUSH2 0x428 PUSH32 0x2AEF93881C2DC3EAA42C2640F418591D8AACDC383C6B06688D5BD96D430D128F DUP2 JUMP JUMPDEST PUSH2 0x428 PUSH32 0x304CFBD1E08A704A99F5E847D93F8C3CAAFDDEC46B7A0D379DA69A4D112346A7 DUP2 JUMP JUMPDEST PUSH2 0x428 PUSH32 0x1800DEEF121F1E76426A00665E5C4479674322D4F75EDADD46DEBD5CD992F6ED DUP2 JUMP JUMPDEST PUSH2 0x428 PUSH32 0x1E08792193298DC465A34B5F6147C17773C8DEB3C4CEF904E1CDA6459FD0FA4E DUP2 JUMP JUMPDEST PUSH2 0x428 PUSH32 0x2BAFF3DCA18FD73B6CFEB57356C3F5F080FC4E8295BA9E10F065AED85591D789 DUP2 JUMP JUMPDEST PUSH2 0x428 PUSH31 0x48C18A515EB7212FA829D19FAD606602D5C614C19B50830521D4A613B5ADEF DUP2 JUMP JUMPDEST PUSH2 0x428 PUSH32 0x1B45AE2CF143545DB9A131F50578847CB5BE75D367DA42F7D813DF838355FF17 DUP2 JUMP JUMPDEST PUSH2 0x428 PUSH32 0x2CF831BFF6C50DCF5B3BF4668C774AE002817B5EB91FF7659C6291745FDABDEA DUP2 JUMP JUMPDEST PUSH2 0x428 PUSH32 0x253483399961A54479888BD619A7F8763AAEC837E423F0FC87FB87874A5CAA83 DUP2 JUMP JUMPDEST PUSH1 0x0 PUSH2 0x194A JUMP JUMPDEST PUSH32 0x30644E72E131A029B85045B68181585D2833E84879B9709143E1F593F0000001 GT SWAP1 JUMP JUMPDEST DUP2 PUSH1 0x40 DUP3 ADD MSTORE DUP3 PUSH1 0x60 DUP3 ADD MSTORE DUP4 PUSH1 0x80 DUP3 ADD MSTORE PUSH1 0x0 PUSH1 0x40 DUP1 DUP4 ADD PUSH1 0x60 PUSH1 0x40 DUP6 ADD PUSH1 0x7 PUSH2 0x1770 STATICCALL RETURNDATASIZE ISZERO ISZERO AND SWAP1 POP DUP1 ISZERO PUSH2 0xE1F JUMPI PUSH1 0x40 DUP3 PUSH1 0x80 DUP5 PUSH1 0x6 PUSH1 0x96 STATICCALL RETURNDATASIZE ISZERO ISZERO AND SWAP1 POP JUMPDEST SWAP5 SWAP4 POP POP POP POP JUMP JUMPDEST PUSH32 0x1660CB6F46896E4A26C4E10C0E1CD83A36D4524A18883008AB4820CE4035E763 DUP6 MSTORE PUSH32 0xE23819DBE544E4EEF2BA90BAF05052E01346100615D2F1EB4389D0FA8467AE2 PUSH1 0x20 DUP7 ADD MSTORE PUSH1 0x0 PUSH2 0xEC2 PUSH1 0x0 DUP7 ADD MLOAD PUSH32 0x14C15A03F789A78F4A7905E01DAD3A3F6F98F963568F5C8CDE2B4E48C5EA20F7 PUSH32 0xC59FEE267AA8005CED7734A590E95422026D6F4B36B724599D3B053EF6D83C3 DUP10 PUSH2 0xDDC JUMP JUMPDEST ISZERO PUSH2 0x1941 JUMPI PUSH2 0xF17 PUSH1 0x20 DUP7 ADD MLOAD PUSH32 0x7B31D3D89BA21BDAF376F1F739B3608D372345447A29F5A3705282FC3FCC491 PUSH32 0x2AEF93881C2DC3EAA42C2640F418591D8AACDC383C6B06688D5BD96D430D128F DUP10 PUSH2 0xDDC JUMP JUMPDEST ISZERO PUSH2 0x1941 JUMPI PUSH2 0xF6C PUSH1 0x40 DUP7 ADD MLOAD PUSH32 0x1AE026C0599B1A9A709F240C46F449AD2FE995775550A45E18835932BD71FD61 PUSH32 0x2FE76200B1EE9DBB795A42BC9DDD5C85B829D46FDAAE050F4A6A5CCA945CB4AA DUP10 PUSH2 0xDDC JUMP JUMPDEST ISZERO PUSH2 0x1941 JUMPI PUSH2 0xFC1 PUSH1 0x60 DUP7 ADD MLOAD PUSH32 0x85EAA09C8AE7D24BC814123A9C44391EB5F8A407D47E4B0336C158EF6E44388 PUSH32 0x253483399961A54479888BD619A7F8763AAEC837E423F0FC87FB87874A5CAA83 DUP10 PUSH2 0xDDC JUMP JUMPDEST ISZERO PUSH2 0x1941 JUMPI PUSH2 0x1016 PUSH1 0x80 DUP7 ADD MLOAD PUSH32 0x2078A5D9F938B2EA67E4F636BE9E685121D03A4D3CBC8B011831E7D7FC657336 PUSH32 0x2EF7DC19472F4C5A11B7B26FC2A118E4417618E7C7F18391C05A202BCF0C1B8C DUP10 PUSH2 0xDDC JUMP JUMPDEST ISZERO PUSH2 0x1941 JUMPI PUSH2 0x106B PUSH1 0xA0 DUP7 ADD MLOAD PUSH32 0x85A38ADE53FA5E091E072E566C400AC5B151F64BF819EA772D5109DD6566CDD PUSH32 0x2F527CED9FDF4D4852FF9D25ED3AA213FA5A1F6CD293BB538721E9620DBAEF69 DUP10 PUSH2 0xDDC JUMP JUMPDEST ISZERO PUSH2 0x1941 JUMPI PUSH2 0x10C0 PUSH1 0xC0 DUP7 ADD MLOAD PUSH32 0x24237DDA85A0741345683F9001739D0E4B5C6F6B61B7BFD0102CC934A947EDAE PUSH32 0xC7AC804D9B9BEA28C49BBC545A4AE26B1A3C1D8F23577120E77F6095EE394A7 DUP10 PUSH2 0xDDC JUMP JUMPDEST ISZERO PUSH2 0x1941 JUMPI PUSH2 0x1115 PUSH1 0xE0 DUP7 ADD MLOAD PUSH32 0x2A9DB361D4314094878B3C10BDAC537954F27F7854E6E1F084450130BD8A8AF8 PUSH32 0x24AF836781114C83725EDADDA0AAE456B73ADB0CD7CDD0AB7E0CB2C46256A276 DUP10 PUSH2 0xDDC JUMP JUMPDEST ISZERO PUSH2 0x1941 JUMPI PUSH2 0x116B PUSH2 0x100 DUP7 ADD MLOAD PUSH32 0x1BD03C1B7C02B082329F20674A684CD95CC0C481905140EB0D7D8B6E125819DE PUSH32 0x288B4CB73B78D003B31C475B5691202CD0BBC3BC0F592D37B6A4BD8A78281983 DUP10 PUSH2 0xDDC JUMP JUMPDEST ISZERO PUSH2 0x1941 JUMPI PUSH2 0x11C0 PUSH2 0x120 DUP7 ADD MLOAD PUSH31 0x48C18A515EB7212FA829D19FAD606602D5C614C19B50830521D4A613B5ADEF PUSH32 0x2BF41E7D2A81B2F6D9B7AFCF060C5378042BD234EA3BF02B15D7E33717490AFC DUP10 PUSH2 0xDDC JUMP JUMPDEST ISZERO PUSH2 0x1941 JUMPI PUSH2 0x1216 PUSH2 0x140 DUP7 ADD MLOAD PUSH32 0x1D79623AA57462EFDA609EC71D972A1EE11B077F6F0331EE2D8F3E479FA6F303 PUSH32 0xE51B16F7F2F99DE84098EBBA1F1D3417C7BC9C6A5EFA1993396C126E1543B7A DUP10 PUSH2 0xDDC JUMP JUMPDEST ISZERO PUSH2 0x1941 JUMPI PUSH2 0x126C PUSH2 0x160 DUP7 ADD MLOAD PUSH32 0x26541B41FAEA776F2C39021D7CA86627C5939528301225B1AB82125C5D4D8370 PUSH32 0x2674561D11378BA989471653AC0BEB60FD51587F4B8B7C9B970F81D0117CCF13 DUP10 PUSH2 0xDDC JUMP JUMPDEST ISZERO PUSH2 0x1941 JUMPI PUSH2 0x12C2 PUSH2 0x180 DUP7 ADD MLOAD PUSH32 0xD2F11E1DF72FB415B17F4B37C7F00BF88C6F1687256FC2E1EC2FA610BEC9B90 PUSH32 0x1F1530E92027B80ECD82FA1EEAB105F6DD267F0CEB71649AB822FEE789AE75F3 DUP10 PUSH2 0xDDC JUMP JUMPDEST ISZERO PUSH2 0x1941 JUMPI PUSH2 0x1318 PUSH2 0x1A0 DUP7 ADD MLOAD PUSH32 0x2BAFF3DCA18FD73B6CFEB57356C3F5F080FC4E8295BA9E10F065AED85591D789 PUSH32 0x1E8A25A871EF1CB921AECAB28E7CA4D955A190E165485166C2B7A6342632EAE5 DUP10 PUSH2 0xDDC JUMP JUMPDEST ISZERO PUSH2 0x1941 JUMPI PUSH2 0x136E PUSH2 0x1C0 DUP7 ADD MLOAD PUSH32 0x24BF9AFA2425FAEA005BC5CC509EB51D9F648ED24B59DFC1F016FCC8D9EADE0D PUSH32 0x1A3774F449F2B1AB74B10B2F786B76A70C7DCFFCF42920C2A248AACC6042E090 DUP10 PUSH2 0xDDC JUMP JUMPDEST ISZERO PUSH2 0x1941 JUMPI PUSH2 0x13C4 PUSH2 0x1E0 DUP7 ADD MLOAD PUSH32 0x2EB2501674BB64EF0EFDA3B061FAA56AD771E55DD4296EB2A0ADAA5DC74092D3 PUSH32 0x1E08792193298DC465A34B5F6147C17773C8DEB3C4CEF904E1CDA6459FD0FA4E DUP10 PUSH2 0xDDC JUMP JUMPDEST ISZERO PUSH2 0x1941 JUMPI PUSH2 0x141A PUSH2 0x200 DUP7 ADD MLOAD PUSH32 0x2ED57B4AB48879BC6A30D2247BA01EFF979E049B5522B513CB0ABB65F36A8DB1 PUSH32 0x9908EA9FD743C383603EEB038332496671B8514ED31E2705AA8A29DC63E8BE6 DUP10 PUSH2 0xDDC JUMP JUMPDEST ISZERO PUSH2 0x1941 JUMPI PUSH2 0x1470 PUSH2 0x220 DUP7 ADD MLOAD PUSH32 0xC284A7FE138D4CDC90F91BD16CD11331C02DC7F31F53B63D06538F5556B3E12 PUSH32 0x5FAD4FC403DE2AF20771E759FA2729262C189477CD3D3616D8DCE926AA3A5B5 DUP10 PUSH2 0xDDC JUMP JUMPDEST ISZERO PUSH2 0x1941 JUMPI PUSH2 0x14C6 PUSH2 0x240 DUP7 ADD MLOAD PUSH32 0x2149668511F2DA35CB3B5E44D2ABB568F819008742C189B4A6BDFD0BE56666B1 PUSH32 0x27D7B535D6A9C83C064BA6C0B29328A1455048CB7C187B4D64DF853CB14C81A3 DUP10 PUSH2 0xDDC JUMP JUMPDEST ISZERO PUSH2 0x1941 JUMPI PUSH2 0x151C PUSH2 0x260 DUP7 ADD MLOAD PUSH32 0x1E812A57D6D5026220D869B64D56E415BC0CF9D0B10A994035061F4319D8067 PUSH32 0x55E94309540A584545A2B1943E1FA6D6F3FA6575E1FDFCD7C46CB9F625DCB99 DUP10 PUSH2 0xDDC JUMP JUMPDEST ISZERO PUSH2 0x1941 JUMPI PUSH2 0x1572 PUSH2 0x280 DUP7 ADD MLOAD PUSH32 0x258CCE5E15404E5E1B1695DFD58B3A3BE26C1A7EEF93775F7B3B77B63DA11FB PUSH32 0x2D735F27514DC246ED5610045B5417DB14FC400EC46BBA4A490F28618B1E1F1B DUP10 PUSH2 0xDDC JUMP JUMPDEST ISZERO PUSH2 0x1941 JUMPI PUSH2 0x15C8 PUSH2 0x2A0 DUP7 ADD MLOAD PUSH32 0x2E236666FE18ED18253A1D13443C816545C632F44B7FF16880AAE4F88D26F7D7 PUSH32 0x14267C8FFF65137D54C38DCDC86443FD8506601DB683D68535F3FF94E648ACCB DUP10 PUSH2 0xDDC JUMP JUMPDEST ISZERO PUSH2 0x1941 JUMPI PUSH2 0x161D PUSH2 0x2C0 DUP7 ADD MLOAD PUSH32 0x184A4C79EDE95722E4BC75A9E2129C68913CF53BF0434AFB2401ADD99C84E37C PUSH31 0xDE0D739E1CF434DBE75C21E88C54326E183E9646EFD5F9CBD5562A84751576 DUP10 PUSH2 0xDDC JUMP JUMPDEST ISZERO PUSH2 0x1941 JUMPI PUSH2 0x1673 PUSH2 0x2E0 DUP7 ADD MLOAD PUSH32 0x2CF831BFF6C50DCF5B3BF4668C774AE002817B5EB91FF7659C6291745FDABDEA PUSH32 0x1B45AE2CF143545DB9A131F50578847CB5BE75D367DA42F7D813DF838355FF17 DUP10 PUSH2 0xDDC JUMP JUMPDEST ISZERO PUSH2 0x1941 JUMPI PUSH32 0x198E9393920D483A7260BFB731FB5D25F1AA493335A9E71297E485B7AEF312C2 PUSH1 0x40 DUP8 ADD MSTORE PUSH32 0x1800DEEF121F1E76426A00665E5C4479674322D4F75EDADD46DEBD5CD992F6ED PUSH1 0x60 DUP8 ADD MSTORE PUSH32 0x90689D0585FF075EC9E99AD690C3395BC4B313370B38EF355ACDADCD122975B PUSH1 0x80 DUP8 ADD MSTORE PUSH32 0x12C85EA5DB8C6DEB4AAB71808DCB408FE3D1E7690C43D37B4CE6CC0166FA7DAA PUSH1 0xA0 DUP8 ADD MSTORE DUP2 MLOAD PUSH1 0xC0 DUP8 ADD MSTORE PUSH32 0x30644E72E131A029B85045B68181585D97816A916871CA8D3C208C16D87CFD47 PUSH1 0x20 DUP4 ADD MLOAD PUSH32 0x30644E72E131A029B85045B68181585D97816A916871CA8D3C208C16D87CFD47 SUB MOD PUSH1 0xE0 DUP8 ADD MSTORE DUP3 MLOAD MLOAD PUSH2 0x100 DUP8 ADD MSTORE PUSH1 0x20 DUP4 MLOAD ADD MLOAD PUSH2 0x120 DUP8 ADD MSTORE PUSH1 0x20 DUP4 ADD MLOAD MLOAD PUSH2 0x140 DUP8 ADD MSTORE PUSH1 0x20 DUP1 DUP5 ADD MLOAD ADD MLOAD PUSH2 0x160 DUP8 ADD MSTORE PUSH32 0x2D4D9AA7E302D9DF41749D5507949D05DBEA33FBB16C643B22F599A2BE6DF2E2 PUSH2 0x180 DUP8 ADD MSTORE PUSH32 0x14BEDD503C37CEB061D8EC60209FE345CE89830A19230301F076CAFF004D1926 PUSH2 0x1A0 DUP8 ADD MSTORE PUSH32 0x967032FCBF776D1AFC985F88877F182D38480A653F2DECAA9794CBC3BF3060C PUSH2 0x1C0 DUP8 ADD MSTORE PUSH32 0xE187847AD4C798374D0D6732BF501847DD68BC0E071241E0213BC7FC13DB7AB PUSH2 0x1E0 DUP8 ADD MSTORE PUSH32 0x304CFBD1E08A704A99F5E847D93F8C3CAAFDDEC46B7A0D379DA69A4D112346A7 PUSH2 0x200 DUP8 ADD MSTORE PUSH32 0x1739C1B1A457A8C7313123D24D2F9192F896B7C63EEA05A9D57F06547AD0CEC8 PUSH2 0x220 DUP8 ADD MSTORE DUP4 MLOAD PUSH2 0x240 DUP8 ADD MSTORE PUSH1 0x20 DUP5 ADD MLOAD PUSH2 0x260 DUP8 ADD MSTORE PUSH32 0x198E9393920D483A7260BFB731FB5D25F1AA493335A9E71297E485B7AEF312C2 PUSH2 0x280 DUP8 ADD MSTORE PUSH32 0x1800DEEF121F1E76426A00665E5C4479674322D4F75EDADD46DEBD5CD992F6ED PUSH2 0x2A0 DUP8 ADD MSTORE PUSH32 0x90689D0585FF075EC9E99AD690C3395BC4B313370B38EF355ACDADCD122975B PUSH2 0x2C0 DUP8 ADD MSTORE PUSH32 0x12C85EA5DB8C6DEB4AAB71808DCB408FE3D1E7690C43D37B4CE6CC0166FA7DAA PUSH2 0x2E0 DUP8 ADD MSTORE PUSH1 0x20 DUP7 PUSH2 0x300 DUP9 PUSH1 0x8 PUSH3 0x2C308 STATICCALL DUP7 MLOAD AND SWAP1 POP JUMPDEST SWAP6 SWAP5 POP POP POP POP POP JUMP JUMPDEST PUSH1 0x40 MLOAD PUSH2 0x300 DUP2 ADD PUSH1 0x40 MSTORE PUSH1 0x1 SWAP2 POP PUSH2 0x1966 PUSH1 0x0 DUP5 ADD MLOAD PUSH2 0xDB7 JUMP JUMPDEST DUP3 AND SWAP2 POP PUSH2 0x1977 PUSH1 0x20 DUP5 ADD MLOAD PUSH2 0xDB7 JUMP JUMPDEST DUP3 AND SWAP2 POP PUSH2 0x1988 PUSH1 0x40 DUP5 ADD MLOAD PUSH2 0xDB7 JUMP JUMPDEST DUP3 AND SWAP2 POP PUSH2 0x1999 PUSH1 0x60 DUP5 ADD MLOAD PUSH2 0xDB7 JUMP JUMPDEST DUP3 AND SWAP2 POP PUSH2 0x19AA PUSH1 0x80 DUP5 ADD MLOAD PUSH2 0xDB7 JUMP JUMPDEST DUP3 AND SWAP2 POP PUSH2 0x19BB PUSH1 0xA0 DUP5 ADD MLOAD PUSH2 0xDB7 JUMP JUMPDEST DUP3 AND SWAP2 POP PUSH2 0x19CC PUSH1 0xC0 DUP5 ADD MLOAD PUSH2 0xDB7 JUMP JUMPDEST DUP3 AND SWAP2 POP PUSH2 0x19DD PUSH1 0xE0 DUP5 ADD MLOAD PUSH2 0xDB7 JUMP JUMPDEST DUP3 AND SWAP2 POP PUSH2 0x19EF PUSH2 0x100 DUP5 ADD MLOAD PUSH2 0xDB7 JUMP JUMPDEST DUP3 AND SWAP2 POP PUSH2 0x1A01 PUSH2 0x120 DUP5 ADD MLOAD PUSH2 0xDB7 JUMP JUMPDEST DUP3 AND SWAP2 POP PUSH2 0x1A13 PUSH2 0x140 DUP5 ADD MLOAD PUSH2 0xDB7 JUMP JUMPDEST DUP3 AND SWAP2 POP PUSH2 0x1A25 PUSH2 0x160 DUP5 ADD MLOAD PUSH2 0xDB7 JUMP JUMPDEST DUP3 AND SWAP2 POP PUSH2 0x1A37 PUSH2 0x180 DUP5 ADD MLOAD PUSH2 0xDB7 JUMP JUMPDEST DUP3 AND SWAP2 POP PUSH2 0x1A49 PUSH2 0x1A0 DUP5 ADD MLOAD PUSH2 0xDB7 JUMP JUMPDEST DUP3 AND SWAP2 POP PUSH2 0x1A5B PUSH2 0x1C0 DUP5 ADD MLOAD PUSH2 0xDB7 JUMP JUMPDEST DUP3 AND SWAP2 POP PUSH2 0x1A6D PUSH2 0x1E0 DUP5 ADD MLOAD PUSH2 0xDB7 JUMP JUMPDEST DUP3 AND SWAP2 POP PUSH2 0x1A7F PUSH2 0x200 DUP5 ADD MLOAD PUSH2 0xDB7 JUMP JUMPDEST DUP3 AND SWAP2 POP PUSH2 0x1A91 PUSH2 0x220 DUP5 ADD MLOAD PUSH2 0xDB7 JUMP JUMPDEST DUP3 AND SWAP2 POP PUSH2 0x1AA3 PUSH2 0x240 DUP5 ADD MLOAD PUSH2 0xDB7 JUMP JUMPDEST DUP3 AND SWAP2 POP PUSH2 0x1AB5 PUSH2 0x260 DUP5 ADD MLOAD PUSH2 0xDB7 JUMP JUMPDEST DUP3 AND SWAP2 POP PUSH2 0x1AC7 PUSH2 0x280 DUP5 ADD MLOAD PUSH2 0xDB7 JUMP JUMPDEST DUP3 AND SWAP2 POP PUSH2 0x1AD9 PUSH2 0x2A0 DUP5 ADD MLOAD PUSH2 0xDB7 JUMP JUMPDEST DUP3 AND SWAP2 POP PUSH2 0x1AEB PUSH2 0x2C0 DUP5 ADD MLOAD PUSH2 0xDB7 JUMP JUMPDEST DUP3 AND SWAP2 POP PUSH2 0x1AFD PUSH2 0x2E0 DUP5 ADD MLOAD PUSH2 0xDB7 JUMP JUMPDEST DUP3 AND SWAP2 POP DUP2 ISZERO NOT ISZERO PUSH2 0x1B19 JUMPI PUSH2 0x1B16 DUP2 DUP5 DUP7 DUP9 DUP11 PUSH2 0xE27 JUMP JUMPDEST SWAP2 POP JUMPDEST POP SWAP5 SWAP4 POP POP POP POP JUMP JUMPDEST PUSH1 0x40 MLOAD PUSH1 0x1F DUP3 ADD PUSH1 0x1F NOT AND DUP2 ADD PUSH8 0xFFFFFFFFFFFFFFFF DUP2 GT DUP3 DUP3 LT OR ISZERO PUSH2 0x1B59 JUMPI PUSH4 0x4E487B71 PUSH1 0xE0 SHL PUSH1 0x0 MSTORE PUSH1 0x41 PUSH1 0x4 MSTORE PUSH1 0x24 PUSH1 0x0 REVERT JUMPDEST PUSH1 0x40 MSTORE SWAP2 SWAP1 POP JUMP JUMPDEST PUSH1 0x0 DUP3 PUSH1 0x1F DUP4 ADD SLT PUSH2 0x1B72 JUMPI PUSH1 0x0 DUP1 REVERT JUMPDEST PUSH1 0x0 PUSH2 0x1B7E PUSH1 0x40 PUSH2 0x1B22 JUMP JUMPDEST SWAP1 POP DUP1 PUSH1 0x40 DUP5 ADD DUP6 DUP2 GT ISZERO PUSH2 0x1B92 JUMPI PUSH1 0x0 DUP1 REVERT JUMPDEST DUP5 JUMPDEST DUP2 DUP2 LT ISZERO PUSH2 0x1BAC JUMPI DUP1 CALLDATALOAD DUP4 MSTORE PUSH1 0x20 SWAP3 DUP4 ADD SWAP3 ADD PUSH2 0x1B94 JUMP JUMPDEST POP SWAP2 SWAP6 SWAP5 POP POP POP POP POP JUMP JUMPDEST PUSH1 0x0 DUP1 PUSH1 0x0 DUP1 PUSH2 0x400 DUP6 DUP8 SUB SLT ISZERO PUSH2 0x1BCE JUMPI PUSH1 0x0 DUP1 REVERT JUMPDEST PUSH2 0x1BD8 DUP7 DUP7 PUSH2 0x1B61 JUMP JUMPDEST SWAP4 POP DUP6 PUSH1 0x5F DUP7 ADD SLT PUSH2 0x1BE9 JUMPI PUSH1 0x0 DUP1 REVERT JUMPDEST PUSH1 0x40 PUSH2 0x1BF4 DUP2 PUSH2 0x1B22 JUMP JUMPDEST DUP1 PUSH1 0xC0 DUP9 ADD DUP10 DUP2 GT ISZERO PUSH2 0x1C06 JUMPI PUSH1 0x0 DUP1 REVERT JUMPDEST DUP4 DUP10 ADD JUMPDEST DUP2 DUP2 LT ISZERO PUSH2 0x1C2B JUMPI PUSH2 0x1C1C DUP12 DUP3 PUSH2 0x1B61 JUMP JUMPDEST DUP5 MSTORE PUSH1 0x20 SWAP1 SWAP4 ADD SWAP3 DUP5 ADD PUSH2 0x1C0A JUMP JUMPDEST POP DUP2 SWAP7 POP PUSH2 0x1C39 DUP11 DUP3 PUSH2 0x1B61 JUMP JUMPDEST SWAP6 POP POP POP POP POP PUSH2 0x100 DUP6 ADD PUSH1 0x0 DUP8 PUSH1 0x1F DUP4 ADD SLT PUSH2 0x1C54 JUMPI DUP1 DUP2 REVERT JUMPDEST DUP1 PUSH2 0x300 PUSH2 0x1C61 DUP2 PUSH2 0x1B22 JUMP JUMPDEST SWAP2 POP DUP4 ADD DUP2 DUP11 DUP3 GT ISZERO PUSH2 0x1C72 JUMPI DUP4 DUP5 REVERT JUMPDEST JUMPDEST DUP2 DUP6 LT ISZERO PUSH2 0x1C8B JUMPI DUP5 CALLDATALOAD DUP2 MSTORE PUSH1 0x20 SWAP5 DUP6 ADD SWAP5 ADD PUSH2 0x1C73 JUMP JUMPDEST POP SWAP7 SWAP10 SWAP6 SWAP9 POP SWAP4 SWAP7 POP SWAP3 SWAP5 POP POP POP POP JUMP INVALID LOG2 PUSH5 0x6970667358 0x22 SLT KECCAK256 0x26 SWAP3 PUSH18 0x3CF849B5CD3765393B3AC41EF8889592513C 0xA9 PUSH13 0xC3F58BE06D62D4862164736F6C PUSH4 0x4300081B STOP CALLER "},"methodIdentifiers":{"ALPHA_X()":"d1fb02a3","ALPHA_Y()":"6a5935a7","BASE_FIELD_SIZE()":"839a60d0","BETA_X1()":"dc05a822","BETA_X2()":"7fdf8fc1","BETA_Y1()":"dd924b47","BETA_Y2()":"1c4d4406","DELTA_X1()":"d70a63cc","DELTA_X2()":"f7a65aae","DELTA_Y1()":"b936325c","DELTA_Y2()":"cc9c92ae","GAMMA_X1()":"901660c4","GAMMA_X2()":"dfcf46f0","GAMMA_Y1()":"3a9e6a4d","GAMMA_Y2()":"acb41936","IC0_X()":"6336ec6c","IC0_Y()":"742797c4","IC10_X()":"11fbfe66","IC10_Y()":"e848dd6f","IC11_X()":"39637503","IC11_Y()":"73354b60","IC12_X()":"a127ed86","IC12_Y()":"ba688175","IC13_X()":"36b397dc","IC13_Y()":"1077f544","IC14_X()":"d8c710e0","IC14_Y()":"e834dbdd","IC15_X()":"4b750a92","IC15_Y()":"30c1731c","IC16_X()":"e11e8ee2","IC16_Y()":"32148d47","IC17_X()":"286f014b","IC17_Y()":"2d527448","IC18_X()":"45ce05a8","IC18_Y()":"d0fdd6af","IC19_X()":"59b396b5","IC19_Y()":"6076d7ed","IC1_X()":"d663b365","IC1_Y()":"a1978c3c","IC20_X()":"02020654","IC20_Y()":"5bf9f093","IC21_X()":"d7aa472a","IC21_Y()":"4e528e9f","IC22_X()":"0c99ab7c","IC22_Y()":"924f0a15","IC23_X()":"0de199a5","IC23_Y()":"08cceecf","IC24_X()":"eb38888b","IC24_Y()":"eeb9f2e4","IC2_X()":"dce42004","IC2_Y()":"0cbb35c3","IC3_X()":"4234a1d6","IC3_Y()":"50def905","IC4_X()":"eedee58f","IC4_Y()":"4e890b27","IC5_X()":"898611fd","IC5_Y()":"24934a11","IC6_X()":"aed43349","IC6_Y()":"bf48189e","IC7_X()":"31aa5e26","IC7_Y()":"2c0556ed","IC8_X()":"41fe6a9a","IC8_Y()":"2dacca56","IC9_X()":"dacb4e69","IC9_Y()":"28e44695","P_TOTAL_SIZE()":"a6aca976","SCALAR_FIELD_SIZE()":"0ddec475","verifyProof(uint256[2],uint256[2][2],uint256[2],uint256[24])":"4d01c5a0"}}}}}