{"contracts/verifiers/RegistrationCircuitGroth16Verifier.sol":{"RegistrationCircuitGroth16Verifier":{"abi":[{"inputs":[],"name":"ALPHA_X","outputs":[{"internalType":"uint256","name":"","type":"uint256"}],"stateMutability":"view","type":"function"},{"inputs":[],"name":"ALPHA_Y","outputs":[{"internalType":"uint256","name":"","type":"uint256"}],"stateMutability":"view","type":"function"},{"inputs":[],"name":"BASE_FIELD_SIZE","outputs":[{"internalType":"uint256","name":"","type":"uint256"}],"stateMutability":"view","type":"function"},{"inputs":[],"name":"BETA_X1","outputs":[{"internalType":"uint256","name":"","type":"uint256"}],"stateMutability":"view","type":"function"},{"inputs":[],"name":"BETA_X2","outputs":[{"internalType":"uint256","name":"","type":"uint256"}],"stateMutability":"view","type":"function"},{"inputs":[],"name":"BETA_Y1","outputs":[{"internalType":"uint256","name":"","type":"uint256"}],"stateMutability":"view","type":"function"},{"inputs":[],"name":"BETA_Y2","outputs":[{"internalType":"uint256","name":"","type":"uint256"}],"stateMutability":"view","type":"function"},{"inputs":[],"name":"DELTA_X1","outputs":[{"internalType":"uint256","name":"","type":"uint256"}],"stateMutability":"view","type":"function"},{"inputs":[],"name":"DELTA_X2","outputs":[{"internalType":"uint256","name":"","type":"uint256"}],"stateMutability":"view","type":"function"},{"inputs":[],"name":"DELTA_Y1","outputs":[{"internalType":"uint256","name":"","type":"uint256"}],"stateMutability":"view","type":"function"},{"inputs":[],"name":"DELTA_Y2","outputs":[{"internalType":"uint256","name":"","type":"uint256"}],"stateMutability":"view","type":"function"},{"inputs":[],"name":"GAMMA_X1","outputs":[{"internalType":"uint256","name":"","type":"uint256"}],"stateMutability":"view","type":"function"},{"inputs":[],"name":"GAMMA_X2","outputs":[{"internalType":"uint256","name":"","type":"uint256"}],"stateMutability":"view","type":"function"},{"inputs":[],"name":"GAMMA_Y1","outputs":[{"internalType":"uint256","name":"","type":"uint256"}],"stateMutability":"view","type":"function"},{"inputs":[],"name":"GAMMA_Y2","outputs":[{"internalType":"uint256","name":"","type":"uint256"}],"stateMutability":"view","type":"function"},{"inputs":[],"name":"IC0_X","outputs":[{"internalType":"uint256","name":"","type":"uint256"}],"stateMutability":"view","type":"function"},{"inputs":[],"name":"IC0_Y","outputs":[{"internalType":"uint256","name":"","type":"uint256"}],"stateMutability":"view","type":"function"},{"inputs":[],"name":"IC1_X","outputs":[{"internalType":"uint256","name":"","type":"uint256"}],"stateMutability":"view","type":"function"},{"inputs":[],"name":"IC1_Y","outputs":[{"internalType":"uint256","name":"","type":"uint256"}],"stateMutability":"view","type":"function"},{"inputs":[],"name":"IC2_X","outputs":[{"internalType":"uint256","name":"","type":"uint256"}],"stateMutability":"view","type":"function"},{"inputs":[],"name":"IC2_Y","outputs":[{"internalType":"uint256","name":"","type":"uint256"}],"stateMutability":"view","type":"function"},{"inputs":[],"name":"IC3_X","outputs":[{"internalType":"uint256","name":"","type":"uint256"}],"stateMutability":"view","type":"function"},{"inputs":[],"name":"IC3_Y","outputs":[{"internalType":"uint256","name":"","type":"uint256"}],"stateMutability":"view","type":"function"},{"inputs":[],"name":"IC4_X","outputs":[{"internalType":"uint256","name":"","type":"uint256"}],"stateMutability":"view","type":"function"},{"inputs":[],"name":"IC4_Y","outputs":[{"internalType":"uint256","name":"","type":"uint256"}],"stateMutability":"view","type":"function"},{"inputs":[],"name":"IC5_X","outputs":[{"internalType":"uint256","name":"","type":"uint256"}],"stateMutability":"view","type":"function"},{"inputs":[],"name":"IC5_Y","outputs":[{"internalType":"uint256","name":"","type":"uint256"}],"stateMutability":"view","type":"function"},{"inputs":[],"name":"P_TOTAL_SIZE","outputs":[{"internalType":"uint256","name":"","type":"uint256"}],"stateMutability":"view","type":"function"},{"inputs":[],"name":"SCALAR_FIELD_SIZE","outputs":[{"internalType":"uint256","name":"","type":"uint256"}],"stateMutability":"view","type":"function"},{"inputs":[{"internalType":"uint256[2]","name":"pointA_","type":"uint256[2]"},{"internalType":"uint256[2][2]","name":"pointB_","type":"uint256[2][2]"},{"internalType":"uint256[2]","name":"pointC_","type":"uint256[2]"},{"internalType":"uint256[5]","name":"publicSignals_","type":"uint256[5]"}],"name":"verifyProof","outputs":[{"internalType":"bool","name":"verified_","type":"bool"}],"stateMutability":"view","type":"function"}],"evm":{"bytecode":{"linkReferences":{},"object":"6080604052348015600f57600080fd5b50610d4e8061001f6000396000f3fe608060405234801561001057600080fd5b50600436106101da5760003560e01c8063901660c411610104578063d663b365116100a2578063dd924b4711610071578063dd924b471461053f578063dfcf46f014610566578063eedee58f1461058d578063f7a65aae1461056657600080fd5b8063d663b365146104ca578063d70a63cc14610425578063dc05a822146104f1578063dce420041461051857600080fd5b8063acb41936116100de578063acb419361461047c578063b936325c1461029f578063cc9c92ae1461047c578063d1fb02a3146104a357600080fd5b8063901660c414610425578063a1978c3c1461044c578063a6aca9761461047357600080fd5b80634e890b271161017c578063742797c41161014b578063742797c4146103895780637fdf8fc1146103b0578063839a60d0146103d7578063898611fd146103fe57600080fd5b80634e890b27146102ed57806350def905146103145780636336ec6c1461033b5780636a5935a71461036257600080fd5b806324934a11116101b857806324934a111461025557806334baeab91461027c5780633a9e6a4d1461029f5780634234a1d6146102c657600080fd5b80630cbb35c3146101df5780630ddec475146102195780631c4d44061461022e575b600080fd5b6102067f0fcd73b4d56ad4343796dd9bb0d9419df09630f5a5ff272f3fa342bd21f30cab81565b6040519081526020015b60405180910390f35b610206600080516020610cf983398151915281565b6102067f1739c1b1a457a8c7313123d24d2f9192f896b7c63eea05a9d57f06547ad0cec881565b6102067f1b9caf3c3e2a7c82c5044e3b3a899f4f0d28dbf174e1aecb9439457809038d8981565b61028f61028a366004610c10565b6105b4565b6040519015158152602001610210565b6102067f090689d0585ff075ec9e99ad690c3395bc4b313370b38ef355acdadcd122975b81565b6102067f111b373426ca420c28b4d961ce43ab1d0e1b9d920e2dacd7d599899f99898abf81565b6102067f19f60169a288d40a348beae483883e0662cfe6568d7832651fd8a3dfb9e2094081565b6102067f0fbbf302a37db8760933e668a0193081abc7e55928ac52a1c11152a41bc43b4081565b6102067f08da6a8e5ea2b88d10825e21e347174a990e91e12d969378db3ecd51b57a84a681565b6102067f14bedd503c37ceb061d8ec60209fe345ce89830a19230301f076caff004d192681565b6102067f18a229d1869f207508d63165df3dfd7786a5102e81a198dac3961381c01c1e7881565b6102067f0e187847ad4c798374d0d6732bf501847dd68bc0e071241e0213bc7fc13db7ab81565b6102067f30644e72e131a029b85045b68181585d97816a916871ca8d3c208c16d87cfd4781565b6102067f20b3b6fc6cc9533c632002184004ff49b38be27f7b1788fba2e1e4a83932e67e81565b6102067f198e9393920d483a7260bfb731fb5d25f1aa493335a9e71297e485b7aef312c281565b6102067f2310bf279ed58b4cf463bdf369764c452845353f114fb503f036279c81517a3881565b61020661030081565b6102067f12c85ea5db8c6deb4aab71808dcb408fe3d1e7690c43d37b4ce6cc0166fa7daa81565b6102067f2d4d9aa7e302d9df41749d5507949d05dbea33fbb16c643b22f599a2be6df2e281565b6102067f2118e76180d9d07274294c2182e4e00958b9fca9db1c51156e85a4b8cde5e1f581565b6102067f0967032fcbf776d1afc985f88877f182d38480a653f2decaa9794cbc3bf3060c81565b6102067f050ac0b65e5989b8446764d184d7d6ec3b6169c457171cbad5c3c0c1468c717781565b6102067f304cfbd1e08a704a99f5e847d93f8c3caafddec46b7a0d379da69a4d112346a781565b6102067f1800deef121f1e76426a00665e5c4479674322d4f75edadd46debd5cd992f6ed81565b6102067f06ebaca996f58376a9fe3ca5c859caa794c21f107f2a5b2d1f0941c2f4f7d6f881565b6000610acc565b816040820152826060820152836080820152600060408083016060604085016007611770fa3d151516905080156105fe5760408260808460066096fa3d15151690505b949350505050565b7f08da6a8e5ea2b88d10825e21e347174a990e91e12d969378db3ecd51b57a84a685527f18a229d1869f207508d63165df3dfd7786a5102e81a198dac3961381c01c1e78602086015260006106a160008601517f2310bf279ed58b4cf463bdf369764c452845353f114fb503f036279c81517a387f2118e76180d9d07274294c2182e4e00958b9fca9db1c51156e85a4b8cde5e1f5896105bb565b15610ac3576106f660208601517f0fcd73b4d56ad4343796dd9bb0d9419df09630f5a5ff272f3fa342bd21f30cab7f050ac0b65e5989b8446764d184d7d6ec3b6169c457171cbad5c3c0c1468c7177896105bb565b15610ac35761074b60408601517f0fbbf302a37db8760933e668a0193081abc7e55928ac52a1c11152a41bc43b407f111b373426ca420c28b4d961ce43ab1d0e1b9d920e2dacd7d599899f99898abf896105bb565b15610ac3576107a060608601517f19f60169a288d40a348beae483883e0662cfe6568d7832651fd8a3dfb9e209407f06ebaca996f58376a9fe3ca5c859caa794c21f107f2a5b2d1f0941c2f4f7d6f8896105bb565b15610ac3576107f560808601517f1b9caf3c3e2a7c82c5044e3b3a899f4f0d28dbf174e1aecb9439457809038d897f20b3b6fc6cc9533c632002184004ff49b38be27f7b1788fba2e1e4a83932e67e896105bb565b15610ac3577f198e9393920d483a7260bfb731fb5d25f1aa493335a9e71297e485b7aef312c260408701527f1800deef121f1e76426a00665e5c4479674322d4f75edadd46debd5cd992f6ed60608701527f090689d0585ff075ec9e99ad690c3395bc4b313370b38ef355acdadcd122975b60808701527f12c85ea5db8c6deb4aab71808dcb408fe3d1e7690c43d37b4ce6cc0166fa7daa60a0870152815160c08701527f30644e72e131a029b85045b68181585d97816a916871ca8d3c208c16d87cfd4760208301517f30644e72e131a029b85045b68181585d97816a916871ca8d3c208c16d87cfd47030660e087015282515161010087015260208351015161012087015260208301515161014087015260208084015101516101608701527f2d4d9aa7e302d9df41749d5507949d05dbea33fbb16c643b22f599a2be6df2e26101808701527f14bedd503c37ceb061d8ec60209fe345ce89830a19230301f076caff004d19266101a08701527f0967032fcbf776d1afc985f88877f182d38480a653f2decaa9794cbc3bf3060c6101c08701527f0e187847ad4c798374d0d6732bf501847dd68bc0e071241e0213bc7fc13db7ab6101e08701527f304cfbd1e08a704a99f5e847d93f8c3caafddec46b7a0d379da69a4d112346a76102008701527f1739c1b1a457a8c7313123d24d2f9192f896b7c63eea05a9d57f06547ad0cec8610220870152835161024087015260208401516102608701527f198e9393920d483a7260bfb731fb5d25f1aa493335a9e71297e485b7aef312c26102808701527f1800deef121f1e76426a00665e5c4479674322d4f75edadd46debd5cd992f6ed6102a08701527f090689d0585ff075ec9e99ad690c3395bc4b313370b38ef355acdadcd122975b6102c08701527f12c85ea5db8c6deb4aab71808dcb408fe3d1e7690c43d37b4ce6cc0166fa7daa6102e08701526020866103008860086202c308fa86511690505b95945050505050565b604051610300810160405260019150610af66000840151600080516020610cf98339815191521190565b6020840151921691600080516020610cf9833981519152116040840151921691600080516020610cf9833981519152116060840151921691600080516020610cf9833981519152116080840151921691600080516020610cf9833981519152118216915081151915610b7257610b6f818486888a610606565b91505b50949350505050565b604051601f8201601f1916810167ffffffffffffffff81118282101715610bb257634e487b7160e01b600052604160045260246000fd5b604052919050565b600082601f830112610bcb57600080fd5b6000610bd76040610b7b565b9050806040840185811115610beb57600080fd5b845b81811015610c05578035835260209283019201610bed565b509195945050505050565b6000806000806101a08587031215610c2757600080fd5b610c318686610bba565b935085605f860112610c4257600080fd5b6040610c4d81610b7b565b8060c0880189811115610c5f57600080fd5b8389015b81811015610c8457610c758b82610bba565b84526020909301928401610c63565b50819650610c928a82610bba565b9550505050506101008501600087601f830112610cad578081fd5b80610cb860a0610b7b565b90508060a084018a811115610ccb578384fd5b5b80851015610ce7578435825260209485019490910190610ccc565b50969995985093965092945050505056fe30644e72e131a029b85045b68181585d2833e84879b9709143e1f593f0000001a2646970667358221220d366e569e9fa7da146c4fedb40e7196f44b6bee4a9a98e156c9376dfda6b559664736f6c634300081b0033","opcodes":"PUSH1 0x80 PUSH1 0x40 MSTORE CALLVALUE DUP1 ISZERO PUSH1 0xF JUMPI PUSH1 0x0 DUP1 REVERT JUMPDEST POP PUSH2 0xD4E DUP1 PUSH2 0x1F PUSH1 0x0 CODECOPY PUSH1 0x0 RETURN INVALID PUSH1 0x80 PUSH1 0x40 MSTORE CALLVALUE DUP1 ISZERO PUSH2 0x10 JUMPI PUSH1 0x0 DUP1 REVERT JUMPDEST POP PUSH1 0x4 CALLDATASIZE LT PUSH2 0x1DA JUMPI PUSH1 0x0 CALLDATALOAD PUSH1 0xE0 SHR DUP1 PUSH4 0x901660C4 GT PUSH2 0x104 JUMPI DUP1 PUSH4 0xD663B365 GT PUSH2 0xA2 JUMPI DUP1 PUSH4 0xDD924B47 GT PUSH2 0x71 JUMPI DUP1 PUSH4 0xDD924B47 EQ PUSH2 0x53F JUMPI DUP1 PUSH4 0xDFCF46F0 EQ PUSH2 0x566 JUMPI DUP1 PUSH4 0xEEDEE58F EQ PUSH2 0x58D JUMPI DUP1 PUSH4 0xF7A65AAE EQ PUSH2 0x566 JUMPI PUSH1 0x0 DUP1 REVERT JUMPDEST DUP1 PUSH4 0xD663B365 EQ PUSH2 0x4CA JUMPI DUP1 PUSH4 0xD70A63CC EQ PUSH2 0x425 JUMPI DUP1 PUSH4 0xDC05A822 EQ PUSH2 0x4F1 JUMPI DUP1 PUSH4 0xDCE42004 EQ PUSH2 0x518 JUMPI PUSH1 0x0 DUP1 REVERT JUMPDEST DUP1 PUSH4 0xACB41936 GT PUSH2 0xDE JUMPI DUP1 PUSH4 0xACB41936 EQ PUSH2 0x47C JUMPI DUP1 PUSH4 0xB936325C EQ PUSH2 0x29F JUMPI DUP1 PUSH4 0xCC9C92AE EQ PUSH2 0x47C JUMPI DUP1 PUSH4 0xD1FB02A3 EQ PUSH2 0x4A3 JUMPI PUSH1 0x0 DUP1 REVERT JUMPDEST DUP1 PUSH4 0x901660C4 EQ PUSH2 0x425 JUMPI DUP1 PUSH4 0xA1978C3C EQ PUSH2 0x44C JUMPI DUP1 PUSH4 0xA6ACA976 EQ PUSH2 0x473 JUMPI PUSH1 0x0 DUP1 REVERT JUMPDEST DUP1 PUSH4 0x4E890B27 GT PUSH2 0x17C JUMPI DUP1 PUSH4 0x742797C4 GT PUSH2 0x14B JUMPI DUP1 PUSH4 0x742797C4 EQ PUSH2 0x389 JUMPI DUP1 PUSH4 0x7FDF8FC1 EQ PUSH2 0x3B0 JUMPI DUP1 PUSH4 0x839A60D0 EQ PUSH2 0x3D7 JUMPI DUP1 PUSH4 0x898611FD EQ PUSH2 0x3FE JUMPI PUSH1 0x0 DUP1 REVERT JUMPDEST DUP1 PUSH4 0x4E890B27 EQ PUSH2 0x2ED JUMPI DUP1 PUSH4 0x50DEF905 EQ PUSH2 0x314 JUMPI DUP1 PUSH4 0x6336EC6C EQ PUSH2 0x33B JUMPI DUP1 PUSH4 0x6A5935A7 EQ PUSH2 0x362 JUMPI PUSH1 0x0 DUP1 REVERT JUMPDEST DUP1 PUSH4 0x24934A11 GT PUSH2 0x1B8 JUMPI DUP1 PUSH4 0x24934A11 EQ PUSH2 0x255 JUMPI DUP1 PUSH4 0x34BAEAB9 EQ PUSH2 0x27C JUMPI DUP1 PUSH4 0x3A9E6A4D EQ PUSH2 0x29F JUMPI DUP1 PUSH4 0x4234A1D6 EQ PUSH2 0x2C6 JUMPI PUSH1 0x0 DUP1 REVERT JUMPDEST DUP1 PUSH4 0xCBB35C3 EQ PUSH2 0x1DF JUMPI DUP1 PUSH4 0xDDEC475 EQ PUSH2 0x219 JUMPI DUP1 PUSH4 0x1C4D4406 EQ PUSH2 0x22E JUMPI JUMPDEST PUSH1 0x0 DUP1 REVERT JUMPDEST PUSH2 0x206 PUSH32 0xFCD73B4D56AD4343796DD9BB0D9419DF09630F5A5FF272F3FA342BD21F30CAB DUP2 JUMP JUMPDEST PUSH1 0x40 MLOAD SWAP1 DUP2 MSTORE PUSH1 0x20 ADD JUMPDEST PUSH1 0x40 MLOAD DUP1 SWAP2 SUB SWAP1 RETURN JUMPDEST PUSH2 0x206 PUSH1 0x0 DUP1 MLOAD PUSH1 0x20 PUSH2 0xCF9 DUP4 CODECOPY DUP2 MLOAD SWAP2 MSTORE DUP2 JUMP JUMPDEST PUSH2 0x206 PUSH32 0x1739C1B1A457A8C7313123D24D2F9192F896B7C63EEA05A9D57F06547AD0CEC8 DUP2 JUMP JUMPDEST PUSH2 0x206 PUSH32 0x1B9CAF3C3E2A7C82C5044E3B3A899F4F0D28DBF174E1AECB9439457809038D89 DUP2 JUMP JUMPDEST PUSH2 0x28F PUSH2 0x28A CALLDATASIZE PUSH1 0x4 PUSH2 0xC10 JUMP JUMPDEST PUSH2 0x5B4 JUMP JUMPDEST PUSH1 0x40 MLOAD SWAP1 ISZERO ISZERO DUP2 MSTORE PUSH1 0x20 ADD PUSH2 0x210 JUMP JUMPDEST PUSH2 0x206 PUSH32 0x90689D0585FF075EC9E99AD690C3395BC4B313370B38EF355ACDADCD122975B DUP2 JUMP JUMPDEST PUSH2 0x206 PUSH32 0x111B373426CA420C28B4D961CE43AB1D0E1B9D920E2DACD7D599899F99898ABF DUP2 JUMP JUMPDEST PUSH2 0x206 PUSH32 0x19F60169A288D40A348BEAE483883E0662CFE6568D7832651FD8A3DFB9E20940 DUP2 JUMP JUMPDEST PUSH2 0x206 PUSH32 0xFBBF302A37DB8760933E668A0193081ABC7E55928AC52A1C11152A41BC43B40 DUP2 JUMP JUMPDEST PUSH2 0x206 PUSH32 0x8DA6A8E5EA2B88D10825E21E347174A990E91E12D969378DB3ECD51B57A84A6 DUP2 JUMP JUMPDEST PUSH2 0x206 PUSH32 0x14BEDD503C37CEB061D8EC60209FE345CE89830A19230301F076CAFF004D1926 DUP2 JUMP JUMPDEST PUSH2 0x206 PUSH32 0x18A229D1869F207508D63165DF3DFD7786A5102E81A198DAC3961381C01C1E78 DUP2 JUMP JUMPDEST PUSH2 0x206 PUSH32 0xE187847AD4C798374D0D6732BF501847DD68BC0E071241E0213BC7FC13DB7AB DUP2 JUMP JUMPDEST PUSH2 0x206 PUSH32 0x30644E72E131A029B85045B68181585D97816A916871CA8D3C208C16D87CFD47 DUP2 JUMP JUMPDEST PUSH2 0x206 PUSH32 0x20B3B6FC6CC9533C632002184004FF49B38BE27F7B1788FBA2E1E4A83932E67E DUP2 JUMP JUMPDEST PUSH2 0x206 PUSH32 0x198E9393920D483A7260BFB731FB5D25F1AA493335A9E71297E485B7AEF312C2 DUP2 JUMP JUMPDEST PUSH2 0x206 PUSH32 0x2310BF279ED58B4CF463BDF369764C452845353F114FB503F036279C81517A38 DUP2 JUMP JUMPDEST PUSH2 0x206 PUSH2 0x300 DUP2 JUMP JUMPDEST PUSH2 0x206 PUSH32 0x12C85EA5DB8C6DEB4AAB71808DCB408FE3D1E7690C43D37B4CE6CC0166FA7DAA DUP2 JUMP JUMPDEST PUSH2 0x206 PUSH32 0x2D4D9AA7E302D9DF41749D5507949D05DBEA33FBB16C643B22F599A2BE6DF2E2 DUP2 JUMP JUMPDEST PUSH2 0x206 PUSH32 0x2118E76180D9D07274294C2182E4E00958B9FCA9DB1C51156E85A4B8CDE5E1F5 DUP2 JUMP JUMPDEST PUSH2 0x206 PUSH32 0x967032FCBF776D1AFC985F88877F182D38480A653F2DECAA9794CBC3BF3060C DUP2 JUMP JUMPDEST PUSH2 0x206 PUSH32 0x50AC0B65E5989B8446764D184D7D6EC3B6169C457171CBAD5C3C0C1468C7177 DUP2 JUMP JUMPDEST PUSH2 0x206 PUSH32 0x304CFBD1E08A704A99F5E847D93F8C3CAAFDDEC46B7A0D379DA69A4D112346A7 DUP2 JUMP JUMPDEST PUSH2 0x206 PUSH32 0x1800DEEF121F1E76426A00665E5C4479674322D4F75EDADD46DEBD5CD992F6ED DUP2 JUMP JUMPDEST PUSH2 0x206 PUSH32 0x6EBACA996F58376A9FE3CA5C859CAA794C21F107F2A5B2D1F0941C2F4F7D6F8 DUP2 JUMP JUMPDEST PUSH1 0x0 PUSH2 0xACC JUMP JUMPDEST DUP2 PUSH1 0x40 DUP3 ADD MSTORE DUP3 PUSH1 0x60 DUP3 ADD MSTORE DUP4 PUSH1 0x80 DUP3 ADD MSTORE PUSH1 0x0 PUSH1 0x40 DUP1 DUP4 ADD PUSH1 0x60 PUSH1 0x40 DUP6 ADD PUSH1 0x7 PUSH2 0x1770 STATICCALL RETURNDATASIZE ISZERO ISZERO AND SWAP1 POP DUP1 ISZERO PUSH2 0x5FE JUMPI PUSH1 0x40 DUP3 PUSH1 0x80 DUP5 PUSH1 0x6 PUSH1 0x96 STATICCALL RETURNDATASIZE ISZERO ISZERO AND SWAP1 POP JUMPDEST SWAP5 SWAP4 POP POP POP POP JUMP JUMPDEST PUSH32 0x8DA6A8E5EA2B88D10825E21E347174A990E91E12D969378DB3ECD51B57A84A6 DUP6 MSTORE PUSH32 0x18A229D1869F207508D63165DF3DFD7786A5102E81A198DAC3961381C01C1E78 PUSH1 0x20 DUP7 ADD MSTORE PUSH1 0x0 PUSH2 0x6A1 PUSH1 0x0 DUP7 ADD MLOAD PUSH32 0x2310BF279ED58B4CF463BDF369764C452845353F114FB503F036279C81517A38 PUSH32 0x2118E76180D9D07274294C2182E4E00958B9FCA9DB1C51156E85A4B8CDE5E1F5 DUP10 PUSH2 0x5BB JUMP JUMPDEST ISZERO PUSH2 0xAC3 JUMPI PUSH2 0x6F6 PUSH1 0x20 DUP7 ADD MLOAD PUSH32 0xFCD73B4D56AD4343796DD9BB0D9419DF09630F5A5FF272F3FA342BD21F30CAB PUSH32 0x50AC0B65E5989B8446764D184D7D6EC3B6169C457171CBAD5C3C0C1468C7177 DUP10 PUSH2 0x5BB JUMP JUMPDEST ISZERO PUSH2 0xAC3 JUMPI PUSH2 0x74B PUSH1 0x40 DUP7 ADD MLOAD PUSH32 0xFBBF302A37DB8760933E668A0193081ABC7E55928AC52A1C11152A41BC43B40 PUSH32 0x111B373426CA420C28B4D961CE43AB1D0E1B9D920E2DACD7D599899F99898ABF DUP10 PUSH2 0x5BB JUMP JUMPDEST ISZERO PUSH2 0xAC3 JUMPI PUSH2 0x7A0 PUSH1 0x60 DUP7 ADD MLOAD PUSH32 0x19F60169A288D40A348BEAE483883E0662CFE6568D7832651FD8A3DFB9E20940 PUSH32 0x6EBACA996F58376A9FE3CA5C859CAA794C21F107F2A5B2D1F0941C2F4F7D6F8 DUP10 PUSH2 0x5BB JUMP JUMPDEST ISZERO PUSH2 0xAC3 JUMPI PUSH2 0x7F5 PUSH1 0x80 DUP7 ADD MLOAD PUSH32 0x1B9CAF3C3E2A7C82C5044E3B3A899F4F0D28DBF174E1AECB9439457809038D89 PUSH32 0x20B3B6FC6CC9533C632002184004FF49B38BE27F7B1788FBA2E1E4A83932E67E DUP10 PUSH2 0x5BB JUMP JUMPDEST ISZERO PUSH2 0xAC3 JUMPI PUSH32 0x198E9393920D483A7260BFB731FB5D25F1AA493335A9E71297E485B7AEF312C2 PUSH1 0x40 DUP8 ADD MSTORE PUSH32 0x1800DEEF121F1E76426A00665E5C4479674322D4F75EDADD46DEBD5CD992F6ED PUSH1 0x60 DUP8 ADD MSTORE PUSH32 0x90689D0585FF075EC9E99AD690C3395BC4B313370B38EF355ACDADCD122975B PUSH1 0x80 DUP8 ADD MSTORE PUSH32 0x12C85EA5DB8C6DEB4AAB71808DCB408FE3D1E7690C43D37B4CE6CC0166FA7DAA PUSH1 0xA0 DUP8 ADD MSTORE DUP2 MLOAD PUSH1 0xC0 DUP8 ADD MSTORE PUSH32 0x30644E72E131A029B85045B68181585D97816A916871CA8D3C208C16D87CFD47 PUSH1 0x20 DUP4 ADD MLOAD PUSH32 0x30644E72E131A029B85045B68181585D97816A916871CA8D3C208C16D87CFD47 SUB MOD PUSH1 0xE0 DUP8 ADD MSTORE DUP3 MLOAD MLOAD PUSH2 0x100 DUP8 ADD MSTORE PUSH1 0x20 DUP4 MLOAD ADD MLOAD PUSH2 0x120 DUP8 ADD MSTORE PUSH1 0x20 DUP4 ADD MLOAD MLOAD PUSH2 0x140 DUP8 ADD MSTORE PUSH1 0x20 DUP1 DUP5 ADD MLOAD ADD MLOAD PUSH2 0x160 DUP8 ADD MSTORE PUSH32 0x2D4D9AA7E302D9DF41749D5507949D05DBEA33FBB16C643B22F599A2BE6DF2E2 PUSH2 0x180 DUP8 ADD MSTORE PUSH32 0x14BEDD503C37CEB061D8EC60209FE345CE89830A19230301F076CAFF004D1926 PUSH2 0x1A0 DUP8 ADD MSTORE PUSH32 0x967032FCBF776D1AFC985F88877F182D38480A653F2DECAA9794CBC3BF3060C PUSH2 0x1C0 DUP8 ADD MSTORE PUSH32 0xE187847AD4C798374D0D6732BF501847DD68BC0E071241E0213BC7FC13DB7AB PUSH2 0x1E0 DUP8 ADD MSTORE PUSH32 0x304CFBD1E08A704A99F5E847D93F8C3CAAFDDEC46B7A0D379DA69A4D112346A7 PUSH2 0x200 DUP8 ADD MSTORE PUSH32 0x1739C1B1A457A8C7313123D24D2F9192F896B7C63EEA05A9D57F06547AD0CEC8 PUSH2 0x220 DUP8 ADD MSTORE DUP4 MLOAD PUSH2 0x240 DUP8 ADD MSTORE PUSH1 0x20 DUP5 ADD MLOAD PUSH2 0x260 DUP8 ADD MSTORE PUSH32 0x198E9393920D483A7260BFB731FB5D25F1AA493335A9E71297E485B7AEF312C2 PUSH2 0x280 DUP8 ADD MSTORE PUSH32 0x1800DEEF121F1E76426A00665E5C4479674322D4F75EDADD46DEBD5CD992F6ED PUSH2 0x2A0 DUP8 ADD MSTORE PUSH32 0x90689D0585FF075EC9E99AD690C3395BC4B313370B38EF355ACDADCD122975B PUSH2 0x2C0 DUP8 ADD MSTORE PUSH32 0x12C85EA5DB8C6DEB4AAB71808DCB408FE3D1E7690C43D37B4CE6CC0166FA7DAA PUSH2 0x2E0 DUP8 ADD MSTORE PUSH1 0x20 DUP7 PUSH2 0x300 DUP9 PUSH1 0x8 PUSH3 0x2C308 STATICCALL DUP7 MLOAD AND SWAP1 POP JUMPDEST SWAP6 SWAP5 POP POP POP POP POP JUMP JUMPDEST PUSH1 0x40 MLOAD PUSH2 0x300 DUP2 ADD PUSH1 0x40 MSTORE PUSH1 0x1 SWAP2 POP PUSH2 0xAF6 PUSH1 0x0 DUP5 ADD MLOAD PUSH1 0x0 DUP1 MLOAD PUSH1 0x20 PUSH2 0xCF9 DUP4 CODECOPY DUP2 MLOAD SWAP2 MSTORE GT SWAP1 JUMP JUMPDEST PUSH1 0x20 DUP5 ADD MLOAD SWAP3 AND SWAP2 PUSH1 0x0 DUP1 MLOAD PUSH1 0x20 PUSH2 0xCF9 DUP4 CODECOPY DUP2 MLOAD SWAP2 MSTORE GT PUSH1 0x40 DUP5 ADD MLOAD SWAP3 AND SWAP2 PUSH1 0x0 DUP1 MLOAD PUSH1 0x20 PUSH2 0xCF9 DUP4 CODECOPY DUP2 MLOAD SWAP2 MSTORE GT PUSH1 0x60 DUP5 ADD MLOAD SWAP3 AND SWAP2 PUSH1 0x0 DUP1 MLOAD PUSH1 0x20 PUSH2 0xCF9 DUP4 CODECOPY DUP2 MLOAD SWAP2 MSTORE GT PUSH1 0x80 DUP5 ADD MLOAD SWAP3 AND SWAP2 PUSH1 0x0 DUP1 MLOAD PUSH1 0x20 PUSH2 0xCF9 DUP4 CODECOPY DUP2 MLOAD SWAP2 MSTORE GT DUP3 AND SWAP2 POP DUP2 ISZERO NOT ISZERO PUSH2 0xB72 JUMPI PUSH2 0xB6F DUP2 DUP5 DUP7 DUP9 DUP11 PUSH2 0x606 JUMP JUMPDEST SWAP2 POP JUMPDEST POP SWAP5 SWAP4 POP POP POP POP JUMP JUMPDEST PUSH1 0x40 MLOAD PUSH1 0x1F DUP3 ADD PUSH1 0x1F NOT AND DUP2 ADD PUSH8 0xFFFFFFFFFFFFFFFF DUP2 GT DUP3 DUP3 LT OR ISZERO PUSH2 0xBB2 JUMPI PUSH4 0x4E487B71 PUSH1 0xE0 SHL PUSH1 0x0 MSTORE PUSH1 0x41 PUSH1 0x4 MSTORE PUSH1 0x24 PUSH1 0x0 REVERT JUMPDEST PUSH1 0x40 MSTORE SWAP2 SWAP1 POP JUMP JUMPDEST PUSH1 0x0 DUP3 PUSH1 0x1F DUP4 ADD SLT PUSH2 0xBCB JUMPI PUSH1 0x0 DUP1 REVERT JUMPDEST PUSH1 0x0 PUSH2 0xBD7 PUSH1 0x40 PUSH2 0xB7B JUMP JUMPDEST SWAP1 POP DUP1 PUSH1 0x40 DUP5 ADD DUP6 DUP2 GT ISZERO PUSH2 0xBEB JUMPI PUSH1 0x0 DUP1 REVERT JUMPDEST DUP5 JUMPDEST DUP2 DUP2 LT ISZERO PUSH2 0xC05 JUMPI DUP1 CALLDATALOAD DUP4 MSTORE PUSH1 0x20 SWAP3 DUP4 ADD SWAP3 ADD PUSH2 0xBED JUMP JUMPDEST POP SWAP2 SWAP6 SWAP5 POP POP POP POP POP JUMP JUMPDEST PUSH1 0x0 DUP1 PUSH1 0x0 DUP1 PUSH2 0x1A0 DUP6 DUP8 SUB SLT ISZERO PUSH2 0xC27 JUMPI PUSH1 0x0 DUP1 REVERT JUMPDEST PUSH2 0xC31 DUP7 DUP7 PUSH2 0xBBA JUMP JUMPDEST SWAP4 POP DUP6 PUSH1 0x5F DUP7 ADD SLT PUSH2 0xC42 JUMPI PUSH1 0x0 DUP1 REVERT JUMPDEST PUSH1 0x40 PUSH2 0xC4D DUP2 PUSH2 0xB7B JUMP JUMPDEST DUP1 PUSH1 0xC0 DUP9 ADD DUP10 DUP2 GT ISZERO PUSH2 0xC5F JUMPI PUSH1 0x0 DUP1 REVERT JUMPDEST DUP4 DUP10 ADD JUMPDEST DUP2 DUP2 LT ISZERO PUSH2 0xC84 JUMPI PUSH2 0xC75 DUP12 DUP3 PUSH2 0xBBA JUMP JUMPDEST DUP5 MSTORE PUSH1 0x20 SWAP1 SWAP4 ADD SWAP3 DUP5 ADD PUSH2 0xC63 JUMP JUMPDEST POP DUP2 SWAP7 POP PUSH2 0xC92 DUP11 DUP3 PUSH2 0xBBA JUMP JUMPDEST SWAP6 POP POP POP POP POP PUSH2 0x100 DUP6 ADD PUSH1 0x0 DUP8 PUSH1 0x1F DUP4 ADD SLT PUSH2 0xCAD JUMPI DUP1 DUP2 REVERT JUMPDEST DUP1 PUSH2 0xCB8 PUSH1 0xA0 PUSH2 0xB7B JUMP JUMPDEST SWAP1 POP DUP1 PUSH1 0xA0 DUP5 ADD DUP11 DUP2 GT ISZERO PUSH2 0xCCB JUMPI DUP4 DUP5 REVERT JUMPDEST JUMPDEST DUP1 DUP6 LT ISZERO PUSH2 0xCE7 JUMPI DUP5 CALLDATALOAD DUP3 MSTORE PUSH1 0x20 SWAP5 DUP6 ADD SWAP5 SWAP1 SWAP2 ADD SWAP1 PUSH2 0xCCC JUMP JUMPDEST POP SWAP7 SWAP10 SWAP6 SWAP9 POP SWAP4 SWAP7 POP SWAP3 SWAP5 POP POP POP POP JUMP INVALID ADDRESS PUSH5 0x4E72E131A0 0x29 0xB8 POP GASLIMIT 0xB6 DUP2 DUP2 PC TSTORE 0x28 CALLER 0xE8 BASEFEE PUSH26 0xB9709143E1F593F0000001A2646970667358221220D366E569E9 STATICCALL PUSH30 0xA146C4FEDB40E7196F44B6BEE4A9A98E156C9376DFDA6B559664736F6C63 NUMBER STOP ADDMOD SHL STOP CALLER "},"methodIdentifiers":{"ALPHA_X()":"d1fb02a3","ALPHA_Y()":"6a5935a7","BASE_FIELD_SIZE()":"839a60d0","BETA_X1()":"dc05a822","BETA_X2()":"7fdf8fc1","BETA_Y1()":"dd924b47","BETA_Y2()":"1c4d4406","DELTA_X1()":"d70a63cc","DELTA_X2()":"f7a65aae","DELTA_Y1()":"b936325c","DELTA_Y2()":"cc9c92ae","GAMMA_X1()":"901660c4","GAMMA_X2()":"dfcf46f0","GAMMA_Y1()":"3a9e6a4d","GAMMA_Y2()":"acb41936","IC0_X()":"6336ec6c","IC0_Y()":"742797c4","IC1_X()":"d663b365","IC1_Y()":"a1978c3c","IC2_X()":"dce42004","IC2_Y()":"0cbb35c3","IC3_X()":"4234a1d6","IC3_Y()":"50def905","IC4_X()":"eedee58f","IC4_Y()":"4e890b27","IC5_X()":"898611fd","IC5_Y()":"24934a11","P_TOTAL_SIZE()":"a6aca976","SCALAR_FIELD_SIZE()":"0ddec475","verifyProof(uint256[2],uint256[2][2],uint256[2],uint256[5])":"34baeab9"}}}}}